{
  "_format": "hh-sol-artifact-1",
  "contractName": "MockFHERC20",
  "sourceName": "contracts/mocks/MockFHERC20.sol",
  "abi": [
    {
      "inputs": [
        {
          "internalType": "string",
          "name": "name",
          "type": "string"
        },
        {
          "internalType": "string",
          "name": "symbol",
          "type": "string"
        },
        {
          "internalType": "uint128",
          "name": "initialSupply",
          "type": "uint128"
        }
      ],
      "stateMutability": "nonpayable",
      "type": "constructor"
    },
    {
      "inputs": [],
      "name": "ECDSAInvalidSignature",
      "type": "error"
    },
    {
      "inputs": [
        {
          "internalType": "uint256",
          "name": "length",
          "type": "uint256"
        }
      ],
      "name": "ECDSAInvalidSignatureLength",
      "type": "error"
    },
    {
      "inputs": [
        {
          "internalType": "bytes32",
          "name": "s",
          "type": "bytes32"
        }
      ],
      "name": "ECDSAInvalidSignatureS",
      "type": "error"
    },
    {
      "inputs": [
        {
          "internalType": "address",
          "name": "spender",
          "type": "address"
        },
        {
          "internalType": "uint256",
          "name": "allowance",
          "type": "uint256"
        },
        {
          "internalType": "uint256",
          "name": "needed",
          "type": "uint256"
        }
      ],
      "name": "ERC20InsufficientAllowance",
      "type": "error"
    },
    {
      "inputs": [
        {
          "internalType": "address",
          "name": "sender",
          "type": "address"
        },
        {
          "internalType": "uint256",
          "name": "balance",
          "type": "uint256"
        },
        {
          "internalType": "uint256",
          "name": "needed",
          "type": "uint256"
        }
      ],
      "name": "ERC20InsufficientBalance",
      "type": "error"
    },
    {
      "inputs": [
        {
          "internalType": "address",
          "name": "approver",
          "type": "address"
        }
      ],
      "name": "ERC20InvalidApprover",
      "type": "error"
    },
    {
      "inputs": [
        {
          "internalType": "address",
          "name": "receiver",
          "type": "address"
        }
      ],
      "name": "ERC20InvalidReceiver",
      "type": "error"
    },
    {
      "inputs": [
        {
          "internalType": "address",
          "name": "sender",
          "type": "address"
        }
      ],
      "name": "ERC20InvalidSender",
      "type": "error"
    },
    {
      "inputs": [
        {
          "internalType": "address",
          "name": "spender",
          "type": "address"
        }
      ],
      "name": "ERC20InvalidSpender",
      "type": "error"
    },
    {
      "inputs": [
        {
          "internalType": "uint256",
          "name": "deadline",
          "type": "uint256"
        }
      ],
      "name": "ERC2612ExpiredSignature",
      "type": "error"
    },
    {
      "inputs": [
        {
          "internalType": "address",
          "name": "signer",
          "type": "address"
        },
        {
          "internalType": "address",
          "name": "owner",
          "type": "address"
        }
      ],
      "name": "ERC2612InvalidSigner",
      "type": "error"
    },
    {
      "inputs": [
        {
          "internalType": "address",
          "name": "from",
          "type": "address"
        },
        {
          "internalType": "address",
          "name": "permitOwner",
          "type": "address"
        }
      ],
      "name": "FHERC20EncTransferFromOwnerMismatch",
      "type": "error"
    },
    {
      "inputs": [
        {
          "internalType": "address",
          "name": "to",
          "type": "address"
        },
        {
          "internalType": "address",
          "name": "permitSpender",
          "type": "address"
        }
      ],
      "name": "FHERC20EncTransferFromSpenderMismatch",
      "type": "error"
    },
    {
      "inputs": [
        {
          "internalType": "uint256",
          "name": "inValueHash",
          "type": "uint256"
        },
        {
          "internalType": "uint256",
          "name": "permitValueHash",
          "type": "uint256"
        }
      ],
      "name": "FHERC20EncTransferFromValueHashMismatch",
      "type": "error"
    },
    {
      "inputs": [],
      "name": "FHERC20IncompatibleFunction",
      "type": "error"
    },
    {
      "inputs": [
        {
          "internalType": "address",
          "name": "account",
          "type": "address"
        },
        {
          "internalType": "uint256",
          "name": "currentNonce",
          "type": "uint256"
        }
      ],
      "name": "InvalidAccountNonce",
      "type": "error"
    },
    {
      "inputs": [
        {
          "internalType": "uint8",
          "name": "got",
          "type": "uint8"
        },
        {
          "internalType": "uint8",
          "name": "expected",
          "type": "uint8"
        }
      ],
      "name": "InvalidEncryptedInput",
      "type": "error"
    },
    {
      "inputs": [],
      "name": "InvalidShortString",
      "type": "error"
    },
    {
      "inputs": [
        {
          "internalType": "int32",
          "name": "value",
          "type": "int32"
        }
      ],
      "name": "SecurityZoneOutOfBounds",
      "type": "error"
    },
    {
      "inputs": [
        {
          "internalType": "string",
          "name": "str",
          "type": "string"
        }
      ],
      "name": "StringTooLong",
      "type": "error"
    },
    {
      "anonymous": false,
      "inputs": [
        {
          "indexed": true,
          "internalType": "address",
          "name": "owner",
          "type": "address"
        },
        {
          "indexed": true,
          "internalType": "address",
          "name": "spender",
          "type": "address"
        },
        {
          "indexed": false,
          "internalType": "uint256",
          "name": "value",
          "type": "uint256"
        }
      ],
      "name": "Approval",
      "type": "event"
    },
    {
      "anonymous": false,
      "inputs": [],
      "name": "EIP712DomainChanged",
      "type": "event"
    },
    {
      "anonymous": false,
      "inputs": [
        {
          "indexed": true,
          "internalType": "address",
          "name": "from",
          "type": "address"
        },
        {
          "indexed": true,
          "internalType": "address",
          "name": "to",
          "type": "address"
        },
        {
          "indexed": false,
          "internalType": "uint256",
          "name": "value_hash",
          "type": "uint256"
        }
      ],
      "name": "EncTransfer",
      "type": "event"
    },
    {
      "anonymous": false,
      "inputs": [
        {
          "indexed": true,
          "internalType": "address",
          "name": "from",
          "type": "address"
        },
        {
          "indexed": true,
          "internalType": "address",
          "name": "to",
          "type": "address"
        },
        {
          "indexed": false,
          "internalType": "uint256",
          "name": "value",
          "type": "uint256"
        }
      ],
      "name": "Transfer",
      "type": "event"
    },
    {
      "inputs": [],
      "name": "DOMAIN_SEPARATOR",
      "outputs": [
        {
          "internalType": "bytes32",
          "name": "",
          "type": "bytes32"
        }
      ],
      "stateMutability": "view",
      "type": "function"
    },
    {
      "inputs": [
        {
          "internalType": "address",
          "name": "",
          "type": "address"
        },
        {
          "internalType": "address",
          "name": "",
          "type": "address"
        }
      ],
      "name": "allowance",
      "outputs": [
        {
          "internalType": "uint256",
          "name": "",
          "type": "uint256"
        }
      ],
      "stateMutability": "pure",
      "type": "function"
    },
    {
      "inputs": [
        {
          "internalType": "address",
          "name": "",
          "type": "address"
        },
        {
          "internalType": "uint256",
          "name": "",
          "type": "uint256"
        }
      ],
      "name": "approve",
      "outputs": [
        {
          "internalType": "bool",
          "name": "",
          "type": "bool"
        }
      ],
      "stateMutability": "pure",
      "type": "function"
    },
    {
      "inputs": [
        {
          "internalType": "address",
          "name": "account",
          "type": "address"
        }
      ],
      "name": "balanceOf",
      "outputs": [
        {
          "internalType": "uint256",
          "name": "",
          "type": "uint256"
        }
      ],
      "stateMutability": "view",
      "type": "function"
    },
    {
      "inputs": [],
      "name": "balanceOfIsIndicator",
      "outputs": [
        {
          "internalType": "bool",
          "name": "",
          "type": "bool"
        }
      ],
      "stateMutability": "view",
      "type": "function"
    },
    {
      "inputs": [],
      "name": "decimals",
      "outputs": [
        {
          "internalType": "uint8",
          "name": "",
          "type": "uint8"
        }
      ],
      "stateMutability": "view",
      "type": "function"
    },
    {
      "inputs": [],
      "name": "eip712Domain",
      "outputs": [
        {
          "internalType": "bytes1",
          "name": "fields",
          "type": "bytes1"
        },
        {
          "internalType": "string",
          "name": "name",
          "type": "string"
        },
        {
          "internalType": "string",
          "name": "version",
          "type": "string"
        },
        {
          "internalType": "uint256",
          "name": "chainId",
          "type": "uint256"
        },
        {
          "internalType": "address",
          "name": "verifyingContract",
          "type": "address"
        },
        {
          "internalType": "bytes32",
          "name": "salt",
          "type": "bytes32"
        },
        {
          "internalType": "uint256[]",
          "name": "extensions",
          "type": "uint256[]"
        }
      ],
      "stateMutability": "view",
      "type": "function"
    },
    {
      "inputs": [
        {
          "internalType": "address",
          "name": "account",
          "type": "address"
        }
      ],
      "name": "encBalanceOf",
      "outputs": [
        {
          "internalType": "euint128",
          "name": "",
          "type": "uint256"
        }
      ],
      "stateMutability": "view",
      "type": "function"
    },
    {
      "inputs": [
        {
          "internalType": "address",
          "name": "to",
          "type": "address"
        },
        {
          "internalType": "euint128",
          "name": "amount",
          "type": "uint256"
        }
      ],
      "name": "encMint",
      "outputs": [],
      "stateMutability": "nonpayable",
      "type": "function"
    },
    {
      "inputs": [],
      "name": "encTotalSupply",
      "outputs": [
        {
          "internalType": "euint128",
          "name": "",
          "type": "uint256"
        }
      ],
      "stateMutability": "view",
      "type": "function"
    },
    {
      "inputs": [
        {
          "internalType": "address",
          "name": "to",
          "type": "address"
        },
        {
          "components": [
            {
              "internalType": "uint256",
              "name": "ctHash",
              "type": "uint256"
            },
            {
              "internalType": "uint8",
              "name": "securityZone",
              "type": "uint8"
            },
            {
              "internalType": "uint8",
              "name": "utype",
              "type": "uint8"
            },
            {
              "internalType": "bytes",
              "name": "signature",
              "type": "bytes"
            }
          ],
          "internalType": "struct InEuint128",
          "name": "inValue",
          "type": "tuple"
        }
      ],
      "name": "encTransfer",
      "outputs": [
        {
          "internalType": "euint128",
          "name": "transferred",
          "type": "uint256"
        }
      ],
      "stateMutability": "nonpayable",
      "type": "function"
    },
    {
      "inputs": [
        {
          "internalType": "address",
          "name": "to",
          "type": "address"
        },
        {
          "internalType": "euint128",
          "name": "value",
          "type": "uint256"
        }
      ],
      "name": "encTransfer",
      "outputs": [
        {
          "internalType": "euint128",
          "name": "transferred",
          "type": "uint256"
        }
      ],
      "stateMutability": "nonpayable",
      "type": "function"
    },
    {
      "inputs": [
        {
          "internalType": "address",
          "name": "from",
          "type": "address"
        },
        {
          "internalType": "address",
          "name": "to",
          "type": "address"
        },
        {
          "internalType": "euint128",
          "name": "value",
          "type": "uint256"
        },
        {
          "components": [
            {
              "internalType": "uint256",
              "name": "ctHash",
              "type": "uint256"
            },
            {
              "internalType": "uint8",
              "name": "securityZone",
              "type": "uint8"
            },
            {
              "internalType": "uint8",
              "name": "utype",
              "type": "uint8"
            },
            {
              "internalType": "bytes",
              "name": "signature",
              "type": "bytes"
            }
          ],
          "internalType": "struct InEuint128",
          "name": "maxInValue",
          "type": "tuple"
        },
        {
          "components": [
            {
              "internalType": "address",
              "name": "owner",
              "type": "address"
            },
            {
              "internalType": "address",
              "name": "spender",
              "type": "address"
            },
            {
              "internalType": "uint256",
              "name": "value_hash",
              "type": "uint256"
            },
            {
              "internalType": "uint256",
              "name": "deadline",
              "type": "uint256"
            },
            {
              "internalType": "uint8",
              "name": "v",
              "type": "uint8"
            },
            {
              "internalType": "bytes32",
              "name": "r",
              "type": "bytes32"
            },
            {
              "internalType": "bytes32",
              "name": "s",
              "type": "bytes32"
            }
          ],
          "internalType": "struct IFHERC20.FHERC20_EIP712_Permit",
          "name": "permit",
          "type": "tuple"
        }
      ],
      "name": "encTransferFrom",
      "outputs": [
        {
          "internalType": "euint128",
          "name": "",
          "type": "uint256"
        }
      ],
      "stateMutability": "nonpayable",
      "type": "function"
    },
    {
      "inputs": [
        {
          "internalType": "address",
          "name": "from",
          "type": "address"
        },
        {
          "internalType": "address",
          "name": "to",
          "type": "address"
        },
        {
          "components": [
            {
              "internalType": "uint256",
              "name": "ctHash",
              "type": "uint256"
            },
            {
              "internalType": "uint8",
              "name": "securityZone",
              "type": "uint8"
            },
            {
              "internalType": "uint8",
              "name": "utype",
              "type": "uint8"
            },
            {
              "internalType": "bytes",
              "name": "signature",
              "type": "bytes"
            }
          ],
          "internalType": "struct InEuint128",
          "name": "inValue",
          "type": "tuple"
        },
        {
          "components": [
            {
              "internalType": "address",
              "name": "owner",
              "type": "address"
            },
            {
              "internalType": "address",
              "name": "spender",
              "type": "address"
            },
            {
              "internalType": "uint256",
              "name": "value_hash",
              "type": "uint256"
            },
            {
              "internalType": "uint256",
              "name": "deadline",
              "type": "uint256"
            },
            {
              "internalType": "uint8",
              "name": "v",
              "type": "uint8"
            },
            {
              "internalType": "bytes32",
              "name": "r",
              "type": "bytes32"
            },
            {
              "internalType": "bytes32",
              "name": "s",
              "type": "bytes32"
            }
          ],
          "internalType": "struct IFHERC20.FHERC20_EIP712_Permit",
          "name": "permit",
          "type": "tuple"
        }
      ],
      "name": "encTransferFrom",
      "outputs": [
        {
          "internalType": "euint128",
          "name": "transferred",
          "type": "uint256"
        }
      ],
      "stateMutability": "nonpayable",
      "type": "function"
    },
    {
      "inputs": [],
      "name": "indicatorTick",
      "outputs": [
        {
          "internalType": "uint256",
          "name": "",
          "type": "uint256"
        }
      ],
      "stateMutability": "view",
      "type": "function"
    },
    {
      "inputs": [],
      "name": "isFherc20",
      "outputs": [
        {
          "internalType": "bool",
          "name": "",
          "type": "bool"
        }
      ],
      "stateMutability": "view",
      "type": "function"
    },
    {
      "inputs": [
        {
          "internalType": "address",
          "name": "to",
          "type": "address"
        },
        {
          "internalType": "uint128",
          "name": "amount",
          "type": "uint128"
        }
      ],
      "name": "mint",
      "outputs": [],
      "stateMutability": "nonpayable",
      "type": "function"
    },
    {
      "inputs": [],
      "name": "name",
      "outputs": [
        {
          "internalType": "string",
          "name": "",
          "type": "string"
        }
      ],
      "stateMutability": "view",
      "type": "function"
    },
    {
      "inputs": [
        {
          "internalType": "address",
          "name": "owner",
          "type": "address"
        }
      ],
      "name": "nonces",
      "outputs": [
        {
          "internalType": "uint256",
          "name": "",
          "type": "uint256"
        }
      ],
      "stateMutability": "view",
      "type": "function"
    },
    {
      "inputs": [],
      "name": "resetIndicatedBalance",
      "outputs": [],
      "stateMutability": "nonpayable",
      "type": "function"
    },
    {
      "inputs": [],
      "name": "symbol",
      "outputs": [
        {
          "internalType": "string",
          "name": "",
          "type": "string"
        }
      ],
      "stateMutability": "view",
      "type": "function"
    },
    {
      "inputs": [],
      "name": "totalSupply",
      "outputs": [
        {
          "internalType": "uint256",
          "name": "",
          "type": "uint256"
        }
      ],
      "stateMutability": "view",
      "type": "function"
    },
    {
      "inputs": [
        {
          "internalType": "address",
          "name": "",
          "type": "address"
        },
        {
          "internalType": "uint256",
          "name": "",
          "type": "uint256"
        }
      ],
      "name": "transfer",
      "outputs": [
        {
          "internalType": "bool",
          "name": "",
          "type": "bool"
        }
      ],
      "stateMutability": "pure",
      "type": "function"
    },
    {
      "inputs": [
        {
          "internalType": "address",
          "name": "",
          "type": "address"
        },
        {
          "internalType": "address",
          "name": "",
          "type": "address"
        },
        {
          "internalType": "uint256",
          "name": "",
          "type": "uint256"
        }
      ],
      "name": "transferFrom",
      "outputs": [
        {
          "internalType": "bool",
          "name": "",
          "type": "bool"
        }
      ],
      "stateMutability": "pure",
      "type": "function"
    }
  ],
  "bytecode": "0x6101606040908082523461046d57612a04803803809161001f8285610686565b8339810160608282031261046d5781516001600160401b03939084811161046d578261004c9185016106a9565b916020908185015186811161046d5783916100689187016106a9565b9401516001600160801b038116919082900361046d578251958387018781108282111761056457845260019081885282880195603160f81b87526100ab816106fe565b976101209889526100bb8a610881565b976101409889528251868401209a8b60e052519020996101009a808c524660a052885190878201927f8b73c3c69bb8fe3d512ecc4cf759cc79239f7b179b0ffacaa9a75d522b39400f84528a83015260608201524660808201523060a082015260a0815260c08101818110868211176105645789525190206080523060c052815183811161056457600754928584811c94168015610633575b87851014610546578190601f948581116105e4575b508790858311600114610583575f92610578575b50505f19600383901b1c191690851b176007555b8051928311610564576008548481811c9116801561055a575b8682101461054657828111610502575b50849183116001146104a1579282939183925f94610496575b50501b915f199060031b1c1916176008555b601260ff196009541617600955655af3107a4000600a55825161020781610650565b5f81528351926102168461066b565b600384526060368486013761022a84610d13565b52600661023684610d20565b528251600210156104825781835f6060610267960152855180958192631888debd60e01b83526004958684016109ea565b03815f5f805160206129e48339815191525af1928315610478575f93610445575b50331561042f575f917f27717e7ab7bb4c260a567a3e9e1800d1d1d9f9dda250385529cb585b7f549e949160055461ffff90816102c6818316610af0565b1661ffff19809216176005556102de87600654610b37565b6006553386528284526102f48789882054610b37565b3387528385528887205560038452610310828988205416610af0565b91338752600385528887209216908254161790558380528082528584205480610405575b5033845280825285842054806103d9575b50506103513385610cc9565b61035c600654610c29565b600a548551908152837fddf252ad1be2c89b69c2b068fc378daa952ba7f163c4a11628f55a4df523b3ef833393a384519384523393a35191611cb39384610d31853960805184610df7015260a05184610ec3015260c05184610dc1015260e05184610e4601525183610e6c015251826108a2015251816108cf0152f35b6103e290610c29565b33845281526103f43386852054610cc9565b6103fe3385610cc9565b5f80610345565b61040e90610c29565b83805280825261042086852054610c81565b61042985610c81565b5f610334565b6024905f85519163ec442f0560e01b8352820152fd5b9092508181813d8311610471575b61045d8183610686565b8101031261046d5751915f610288565b5f80fd5b503d610453565b84513d5f823e3d90fd5b634e487b7160e01b5f52603260045260245ffd5b015192505f806101d3565b90601f1983169160085f5283865f20935f5b88888383106104eb57505050106104d3575b505050811b016008556101e5565b01515f1960f88460031b161c191690555f80806104c5565b8686015188559096019594850194879350016104b3565b60085f52855f208380860160051c82019288871061053d575b0160051c019085905b8281106105325750506101ba565b5f8155018590610524565b9250819261051b565b634e487b7160e01b5f52602260045260245ffd5b90607f16906101aa565b634e487b7160e01b5f52604160045260245ffd5b015190505f8061017d565b90879350601f1983169160075f52895f20925f5b8b8282106105ce57505084116105b6575b505050811b01600755610191565b01515f1960f88460031b161c191690555f80806105a8565b8385015186558b97909501949384019301610597565b90915060075f52875f208580850160051c8201928a861061062a575b918991869594930160051c01915b82811061061c575050610169565b5f815585945089910161060e565b92508192610600565b93607f1693610154565b6001600160401b03811161056457604052565b602081019081106001600160401b0382111761056457604052565b608081019081106001600160401b0382111761056457604052565b601f909101601f19168101906001600160401b0382119082101761056457604052565b81601f8201121561046d578051906001600160401b03821161056457604051926106dd601f8401601f191660200185610686565b8284526020838301011161046d57815f9260208093018386015e8301015290565b8051602090818110156107745750601f825111610736578082519201519080831061072857501790565b825f19910360031b1b161790565b60448260405192839163305a27a960e01b83528160048401528051918291826024860152018484015e5f828201840152601f01601f19168101030190fd5b906001600160401b038211610564575f54926001938481811c91168015610877575b8382101461054657601f8111610844575b5081601f84116001146107e257509282939183925f946107d7575b50501b915f199060031b1c1916175f5560ff90565b015192505f806107c2565b919083601f1981165f8052845f20945f905b8883831061082a5750505010610812575b505050811b015f5560ff90565b01515f1960f88460031b161c191690555f8080610805565b8587015188559096019594850194879350908101906107f4565b5f805284601f845f20920160051c820191601f860160051c015b82811061086c5750506107a7565b5f815501859061085e565b90607f1690610796565b8051602090818110156108ab5750601f825111610736578082519201519080831061072857501790565b9192916001600160401b0381116105645760019182548381811c911680156109ad575b8282101461054657601f811161097a575b5080601f831160011461091a5750819293945f9261090f575b50505f19600383901b1c191690821b17905560ff90565b015190505f806108f8565b90601f19831695845f52825f20925f905b888210610963575050838596971061094b575b505050811b01905560ff90565b01515f1960f88460031b161c191690555f808061093e565b80878596829496860151815501950193019061092b565b835f5283601f835f20920160051c820191601f850160051c015b8281106109a25750506108df565b5f8155018490610994565b90607f16906108ce565b9081518082526020808093019301915f5b8281106109d6575050505090565b8351855293810193928101926001016109c8565b9091610a0f610a1d9360068452601a60208501526080604085015260808401906109b7565b9160608184039101526109b7565b90565b604051610a2c81610650565b5f815260405190610a3c8261066b565b6003825260603660208401375f610a5283610d13565b526006610a5e83610d20565b52815160021015610482575f6060830152604051631888debd60e01b81529160209183918291610a929190600484016109ea565b03815f5f805160206129e48339815191525af1908115610ae5575f91610ab6575090565b90506020813d602011610add575b81610ad160209383610686565b8101031261046d575190565b3d9150610ac4565b6040513d5f823e3d90fd5b61ffff80911680158015610b2c575b610b2457600101908111610b105790565b634e487b7160e01b5f52601160045260245ffd5b505061138990565b5061270f8114610aff565b8015610c1b575b8115610c0b575b6040805190929091606083016001600160401b038111848210176105645784526002835283366020850137610b7983610d13565b52610b8382610d20565b526020610bcb835192610b9584610650565b5f8452610bdd85519485938493631888debd60e01b855260066004860152600860248601526080604486015260848501906109b7565b838103600319016064850152906109b7565b03815f5f805160206129e48339815191525af1918215610c0257505f91610ab6575090565b513d5f823e3d90fd5b9050610c15610a20565b90610b45565b50610c24610a20565b610b3e565b5f805160206129e4833981519152803b1561046d57604051631974142760e21b815260048101929092523060248301525f908290818381604481015b03925af18015610ae557610c765750565b610c7f9061063d565b565b5f805160206129e483398151915290813b1561046d575f91604483926040519485938492631974142760e21b845260048401528160248401525af18015610ae557610c765750565b5f805160206129e483398151915291823b1561046d57604051631974142760e21b815260048101929092526001600160a01b03166024820152905f90829081838160448101610c65565b8051156104825760200190565b805160011015610482576040019056fe608060409080825260049081361015610016575f80fd5b5f3560e01c90816306fdde0314610a6157508063095ea7b3146105bb57806318160ddd14610a3a57806323b872dd14610a1f578063313ce567146109fe5780633644e515146109e2578063365ac002146105c0578063490690f3146109c457806370a08231146109845780637ecebe001461094d57806384b0196e1461088557806395d89b41146107a05780639a04a31214610782578063a2a6c7a7146105c5578063a415f269146105c0578063a9059cbb146105bb578063aa3502921461056d578063b4b2019014610546578063b72b0e9614610522578063bab20208146104f9578063be29184f146103ce578063dd62ed3e1461039d578063dfc4d7c7146103675763e985fb4614610128575f80fd5b346102d7576101403660031901126102d757610142610b31565b9061014b610b47565b9060443567ffffffffffffffff81116102d75761016b9036908301610cbb565b9060e03660631901126102d75760c43590814211610352576001600160a01b039160643590838216908183036102d75781858916036103245760843590858216918281036102d7578233036102f75750865160a435908181036102db5750918a91604293855f526002602052835f20908154916001830190558451938760208601967f93d8009bee40988d1c028b4098d01ce80031d9f6d397b9d85bbf53f8390279df88528601526060850152608084015260a083015260c082015260c0815261023481610c37565b51902061023f610dbe565b908a519161190160f01b835260028301526022820152209360e4359460ff861686036102d7576102859561027c91610124359161010435916118e2565b90969196611964565b8416036102aa576020876102a3888861029d89610ee9565b916112d3565b9051908152f35b86516325c0072360e11b81526001600160a01b039384169281019283529216602082015281906040010390fd5b5f80fd5b60449187918d519263112139c560e01b84528301526024820152fd5b8a5163ae8c825f60e01b8152338188019081526001600160a01b0390921660208301529081906040010390fd5b88516312441e3960e21b81526001600160a01b03808a16828701908152908516602082015281906040010390fd5b60249186519163313c898160e11b8352820152fd5b5090346102d75760203660031901126102d7576020916001600160a01b0361038d610b31565b165f528252805f20549051908152f35b5090346102d757806003193601126102d7576103b7610b31565b506103c0610b47565b505163d411f9a960e01b8152fd5b5090346102d757806003193601126102d7576103e8610b31565b602435926fffffffffffffffffffffffffffffffff84168094036102d75782519061041282610c1b565b5f825283519461042186610bd7565b600386526060366020880137610436866119e7565b526006610442866119f4565b528451600210156104e657906020915f606087015261047285519687938493631888debd60e01b855284016118af565b03815f73ea30c4b8b44078bbf8a6ef5b9f1ec1626c7848d95af19182156104dd57505f916104a7575b6104a592506115cd565b005b90506020823d6020116104d5575b816104c260209383610c8b565b810103126102d7576104a591519061049b565b3d91506104b5565b513d5f823e3d90fd5b603290634e487b7160e01b5f525260245ffd5b82346102d757806003193601126102d7576020906102a3610518610b31565b60243590336112d3565b82346102d7573660031901126102d7576104a561053d610b31565b602435906115cd565b82346102d7575f3660031901126102d757335f908152600360205220805461ffff19169055005b5090346102d757806003193601126102d757610587610b31565b6024359067ffffffffffffffff82116102d7576105b46105af6020956102a394369101610cbb565b610ee9565b90336112d3565b610b5d565b610b89565b5090346102d7576101603660031901126102d7576105e1610b31565b916105ea610b47565b906044359060643567ffffffffffffffff81116102d75761060e9036908301610cbb565b9060e03660831901126102d75760e43590814211610352576001600160a01b039160843590838216908183036102d75781858b16036107545760a43590858216918281036102d7578233036102f75750865160c435908181036102db5750918a91604293855f526002602052835f20908154916001830190558451938760208601967f93d8009bee40988d1c028b4098d01ce80031d9f6d397b9d85bbf53f8390279df88528601526060850152608084015260a083015260c082015260c081526106d781610c37565b5190206106e2610dbe565b908a519161190160f01b8352600283015260228201522093610104359460ff861686036102d7576107209561027c91610144359161012435916118e2565b8416036102aa576020876102a38a8961029d8a61074561073f8c610ee9565b8261100d565b9061074e611a04565b9161111b565b88516312441e3960e21b81526001600160a01b03808c16828701908152908516602082015281906040010390fd5b82346102d7575f3660031901126102d7576020906006549051908152f35b82346102d7575f3660031901126102d75780516008549091825f6107c384610d5f565b808352602094600190866001821691825f14610863575050600114610808575b505061080492916107f5910385610c8b565b51928284938452830190610b0d565b0390f35b9085925060085f527ff3f7a9fe364faab93b216da50a3214154f22a0a2b415b23a84c8169e8b636ee3915f925b82841061084b57505050820101816107f56107e3565b8054848a018601528895508794909301928101610835565b60ff19168682015292151560051b850190920192508391506107f590506107e3565b82346102d7575f3660031901126102d757610920906108046108c67f00000000000000000000000000000000000000000000000000000000000000006116f1565b9161092d6108f37f00000000000000000000000000000000000000000000000000000000000000006117f1565b9180519261090084610c1b565b5f84528151968796600f60f81b885260e0602089015260e0880190610b0d565b9186830390870152610b0d565b904660608501523060808501525f60a085015283820360c0850152610ba4565b82346102d75760203660031901126102d7576020906001600160a01b03610972610b31565b165f5260028252805f20549051908152f35b82346102d75760203660031901126102d7576020906001600160a01b036109a9610b31565b165f52600382526102a361ffff825f205416600a5490610d97565b82346102d7575f3660031901126102d757602090600a549051908152f35b82346102d7575f3660031901126102d7576020906102a3610dbe565b82346102d7575f3660031901126102d75760209060ff600954169051908152f35b5090346102d75760603660031901126102d7576103b7610b31565b82346102d7575f3660031901126102d7576020906102a361ffff60055416600a5490610d97565b83346102d7575f3660031901126102d75760075490825f610a8184610d5f565b808352602094600190866001821691825f14610863575050600114610ab257505061080492916107f5910385610c8b565b9085925060075f527fa66cc928b5edb82af9bd49922954155ab7b0942694bea4ce44661d9a8736c688915f925b828410610af557505050820101816107f56107e3565b8054848a018601528895508794909301928101610adf565b805180835260209291819084018484015e5f828201840152601f01601f1916010190565b600435906001600160a01b03821682036102d757565b602435906001600160a01b03821682036102d757565b346102d75760403660031901126102d757610b76610b31565b5060405163d411f9a960e01b8152600490fd5b346102d7575f3660031901126102d757602060405160018152f35b9081518082526020808093019301915f5b828110610bc3575050505090565b835185529381019392810192600101610bb5565b6080810190811067ffffffffffffffff821117610bf357604052565b634e487b7160e01b5f52604160045260245ffd5b67ffffffffffffffff8111610bf357604052565b6020810190811067ffffffffffffffff821117610bf357604052565b60e0810190811067ffffffffffffffff821117610bf357604052565b6060810190811067ffffffffffffffff821117610bf357604052565b6040810190811067ffffffffffffffff821117610bf357604052565b90601f8019910116810190811067ffffffffffffffff821117610bf357604052565b359060ff821682036102d757565b91906080838203126102d75760405192610cd484610bd7565b83813581526020610ce6818401610cad565b81830152610cf660408401610cad565b6040830152606083013567ffffffffffffffff938482116102d757019084601f830112156102d7578135938411610bf35760405194610d3e601f8601601f1916830187610c8b565b8486528185840101116102d75783606094825f940183880137850101520152565b90600182811c92168015610d8d575b6020831014610d7957565b634e487b7160e01b5f52602260045260245ffd5b91607f1691610d6e565b81810292918115918404141715610daa57565b634e487b7160e01b5f52601160045260245ffd5b307f00000000000000000000000000000000000000000000000000000000000000006001600160a01b03161480610ec0575b15610e19577f000000000000000000000000000000000000000000000000000000000000000090565b60405160208101907f8b73c3c69bb8fe3d512ecc4cf759cc79239f7b179b0ffacaa9a75d522b39400f82527f000000000000000000000000000000000000000000000000000000000000000060408201527f000000000000000000000000000000000000000000000000000000000000000060608201524660808201523060a082015260a0815260c0810181811067ffffffffffffffff821117610bf35760405251902090565b507f00000000000000000000000000000000000000000000000000000000000000004614610df0565b60409060ff828201511660068103610fef5750606060ff91835190610f0d82610bd7565b5f825282602093835f86809601525f8882015201528051610f926060868585015116930151875192610f3e84610bd7565b8352848301938452868884016006815260608501928352895198899687966313fce3b160e11b88528c6004890152516044880152511660648601525116608484015251608060a484015260c4830190610b0d565b33602483015203815f73ea30c4b8b44078bbf8a6ef5b9f1ec1626c7848d95af19283156104dd57505f92610fc557505090565b90809250813d8311610fe8575b610fdc8183610c8b565b810103126102d7575190565b503d610fd2565b6044908351906367cf307160e01b8252600482015260066024820152fd5b90811561110b575b80156110fd575b6040519161102983610c53565b60028352604036602085013761103e836119e7565b52611048826119f4565b5260206110926040519261105b84610c1b565b5f84526110a46040519485938493631888debd60e01b85526006600486015260136024860152608060448601526084850190610ba4565b83810360031901606485015290610ba4565b03815f73ea30c4b8b44078bbf8a6ef5b9f1ec1626c7848d95af19081156110f2575f916110cf575090565b90506020813d6020116110ea575b81610fdc60209383610c8b565b3d91506110dd565b6040513d5f823e3d90fd5b50611106611a04565b61101c565b9050611115611a04565b90611015565b919082156111e9575b80156111db575b81156111cb575b6040519261113f84610bd7565b600384526060366020860137611154846119e7565b5261115e836119f4565b528151600210156111b757606082015260206110926040519261118084610c1b565b5f84526110a46040519485938493631888debd60e01b85526006600486015260046024860152608060448601526084850190610ba4565b634e487b7160e01b5f52603260045260245ffd5b90506111d5611a04565b90611132565b506111e4611a04565b61112b565b91506040516111f781610c1b565b5f81526040519061120782610bd7565b6003825260603660208401375f61121d836119e7565b525f611228836119f4565b528151600210156111b7576110926020915f60608501526112726040519485938493631888debd60e01b85525f6004860152601a6024860152608060448601526084850190610ba4565b03815f73ea30c4b8b44078bbf8a6ef5b9f1ec1626c7848d95af19081156110f2575f916112a1575b5091611124565b90506020813d6020116112cb575b816112bc60209383610c8b565b810103126102d757515f61129a565b3d91506112af565b9091906001600160a01b03808216919082156115b557841692831561159d57825f52600490602091808352611311604092610745845f20548261100d565b96855f52818452825f20549488861561158d575b891561157f575b84519661133888610c53565b600288528536888a013761134b886119e7565b52611355876119f4565b528461109285519761136689610c1b565b5f895261139b8751998a938493631888debd60e01b855260068a86015260076024860152608060448601526084850190610ba4565b03815f73ea30c4b8b44078bbf8a6ef5b9f1ec1626c7848d95af18015611575575f90611528575b7f27717e7ab7bb4c260a567a3e9e1800d1d1d9f9dda250385529cb585b7f549e949650875f52838652845f20556003855261ffff61140481865f205416611a76565b885f5260038752855f208261ffff19921682825416179055895f5284875261142f8b875f2054611adb565b8a5f52858852865f20556003875261144b82875f205416611aa8565b918a5f5260038852865f20921690825416179055865f52828552835f205490816114fc575b5050865f52818452825f205491826114d0575b5050506114903387611c2c565b61149b600654611b7e565b84847fddf252ad1be2c89b69c2b068fc378daa952ba7f163c4a11628f55a4df523b3ef84600a548551908152a351858152a390565b6114dc6114f493611b7e565b875f5284526114ee81845f2054611c2c565b87611c2c565b5f8080611483565b61150861152192611b7e565b875f5283865261151b81865f2054611c2c565b89611c2c565b5f80611470565b508486813d831161156e575b61153e8183610c8b565b810103126102d7577f27717e7ab7bb4c260a567a3e9e1800d1d1d9f9dda250385529cb585b7f549e9495516113c2565b503d611534565b84513d5f823e3d90fd5b50611588611a04565b61132c565b9550611597611a04565b95611325565b60405163ec442f0560e01b81525f6004820152602490fd5b604051634b637e8f60e11b81525f6004820152602490fd5b6001600160a01b03811690811561159d577f27717e7ab7bb4c260a567a3e9e1800d1d1d9f9dda250385529cb585b7f549e945f9160055461ffff9182611614818416611aa8565b1661ffff198093161760055561162c87600654611adb565b60065585855260049060209382855260409361164b8a868a2054611adb565b898952848752858920556003865261166782868a205416611aa8565b918989526003875285892092169082541617905585805281845282862054806116c7575b508686528184528286205491826116a9575050506114903387611c2c565b6116b56114f493611b7e565b87875284526114ee8184882054611c2c565b6116d090611b7e565b8580528184526116e283872054611bdd565b6116eb88611bdd565b5f61168b565b60ff811461172f5760ff811690601f821161171d576040519161171383610c6f565b8252602082015290565b604051632cd44ac360e21b8152600490fd5b506040515f815f549161174183610d5f565b808352926020906001908181169081156117cd575060011461176f575b505061176c92500382610c8b565b90565b9150925f80527f290decd9548b62a8d60345a988386fc84ba6bc95484008f6362f93160ef3e563935f925b8284106117b5575061176c9450505081016020015f8061175e565b8554878501830152948501948694509281019261179a565b9150506020925061176c94915060ff191682840152151560051b8201015f8061175e565b60ff81146118135760ff811690601f821161171d576040519161171383610c6f565b506040515f8160019160015461182881610d5f565b80845293602091600181169081156117cd575060011461185057505061176c92500382610c8b565b91509260015f527fb10e2d527612073b26eecdfd717e6a320cf44b4afac2b0732d9fcbe2b7fa0cf6935f925b828410611897575061176c9450505081016020015f8061175e565b8554878501830152948501948694509281019261187c565b90916118d461176c9360068452601a6020850152608060408501526080840190610ba4565b916060818403910152610ba4565b91907f7fffffffffffffffffffffffffffffff5d576e7357a4501ddfe92f46681b20a08411611959579160209360809260ff5f9560405194855216868401526040830152606082015282805260015afa156110f2575f516001600160a01b0381161561194f57905f905f90565b505f906001905f90565b5050505f9160039190565b60048110156119d35780611976575050565b600181036119905760405163f645eedf60e01b8152600490fd5b600281036119b15760405163fce698f760e01b815260048101839052602490fd5b6003146119bb5750565b602490604051906335e2f38360e21b82526004820152fd5b634e487b7160e01b5f52602160045260245ffd5b8051156111b75760200190565b8051600110156111b75760400190565b604051611a1081610c1b565b5f815260405190611a2082610bd7565b6003825260603660208401375f611a36836119e7565b526006611a42836119f4565b528151600210156111b7575f6060830152604051631888debd60e01b815291602091839182916110a49190600484016118af565b61ffff80911680158015611a9e575b611a96575f1901908111610daa5790565b505061138790565b5060018114611a85565b61ffff80911680158015611ad0575b611ac857600101908111610daa5790565b505061138990565b5061270f8114611ab7565b908115611b6e575b8015611b60575b60405191611af783610c53565b600283526040366020850137611b0c836119e7565b52611b16826119f4565b52602061109260405192611b2984610c1b565b5f84526110a46040519485938493631888debd60e01b85526006600486015260086024860152608060448601526084850190610ba4565b50611b69611a04565b611aea565b9050611b78611a04565b90611ae3565b73ea30c4b8b44078bbf8a6ef5b9f1ec1626c7848d9803b156102d757604051631974142760e21b815260048101929092523060248301525f908290818381604481015b03925af180156110f257611bd25750565b611bdb90610c07565b565b73ea30c4b8b44078bbf8a6ef5b9f1ec1626c7848d990813b156102d7575f91604483926040519485938492631974142760e21b845260048401528160248401525af180156110f257611bd25750565b73ea30c4b8b44078bbf8a6ef5b9f1ec1626c7848d991823b156102d757604051631974142760e21b815260048101929092526001600160a01b03166024820152905f90829081838160448101611bc156fea2646970667358221220942a2950a083547bca280f989d13353a6735f2629142fea7b35fdd4c36b63d1664736f6c63430008190033000000000000000000000000ea30c4b8b44078bbf8a6ef5b9f1ec1626c7848d9",
  "linkReferences": {},
  "deployedLinkReferences": {}
}