{
  "_format": "hh-sol-artifact-1",
  "contractName": "MarketFHE",
  "sourceName": "contracts/MarketFHE.sol",
  "abi": [
    {
      "inputs": [
        {
          "internalType": "string",
          "name": "name",
          "type": "string"
        },
        {
          "internalType": "string",
          "name": "symbol",
          "type": "string"
        },
        {
          "internalType": "address",
          "name": "_collateralToken",
          "type": "address"
        },
        {
          "internalType": "address",
          "name": "_borrowToken",
          "type": "address"
        },
        {
          "internalType": "uint16",
          "name": "_maxLtvBasisPoint",
          "type": "uint16"
        },
        {
          "internalType": "int24",
          "name": "_tickSpacing",
          "type": "int24"
        },
        {
          "internalType": "contract IOracle",
          "name": "_oracle",
          "type": "address"
        }
      ],
      "stateMutability": "nonpayable",
      "type": "constructor"
    },
    {
      "inputs": [],
      "name": "ECDSAInvalidSignature",
      "type": "error"
    },
    {
      "inputs": [
        {
          "internalType": "uint256",
          "name": "length",
          "type": "uint256"
        }
      ],
      "name": "ECDSAInvalidSignatureLength",
      "type": "error"
    },
    {
      "inputs": [
        {
          "internalType": "bytes32",
          "name": "s",
          "type": "bytes32"
        }
      ],
      "name": "ECDSAInvalidSignatureS",
      "type": "error"
    },
    {
      "inputs": [
        {
          "internalType": "address",
          "name": "spender",
          "type": "address"
        },
        {
          "internalType": "uint256",
          "name": "allowance",
          "type": "uint256"
        },
        {
          "internalType": "uint256",
          "name": "needed",
          "type": "uint256"
        }
      ],
      "name": "ERC20InsufficientAllowance",
      "type": "error"
    },
    {
      "inputs": [
        {
          "internalType": "address",
          "name": "sender",
          "type": "address"
        },
        {
          "internalType": "uint256",
          "name": "balance",
          "type": "uint256"
        },
        {
          "internalType": "uint256",
          "name": "needed",
          "type": "uint256"
        }
      ],
      "name": "ERC20InsufficientBalance",
      "type": "error"
    },
    {
      "inputs": [
        {
          "internalType": "address",
          "name": "approver",
          "type": "address"
        }
      ],
      "name": "ERC20InvalidApprover",
      "type": "error"
    },
    {
      "inputs": [
        {
          "internalType": "address",
          "name": "receiver",
          "type": "address"
        }
      ],
      "name": "ERC20InvalidReceiver",
      "type": "error"
    },
    {
      "inputs": [
        {
          "internalType": "address",
          "name": "sender",
          "type": "address"
        }
      ],
      "name": "ERC20InvalidSender",
      "type": "error"
    },
    {
      "inputs": [
        {
          "internalType": "address",
          "name": "spender",
          "type": "address"
        }
      ],
      "name": "ERC20InvalidSpender",
      "type": "error"
    },
    {
      "inputs": [
        {
          "internalType": "uint256",
          "name": "deadline",
          "type": "uint256"
        }
      ],
      "name": "ERC2612ExpiredSignature",
      "type": "error"
    },
    {
      "inputs": [
        {
          "internalType": "address",
          "name": "signer",
          "type": "address"
        },
        {
          "internalType": "address",
          "name": "owner",
          "type": "address"
        }
      ],
      "name": "ERC2612InvalidSigner",
      "type": "error"
    },
    {
      "inputs": [
        {
          "internalType": "address",
          "name": "from",
          "type": "address"
        },
        {
          "internalType": "address",
          "name": "permitOwner",
          "type": "address"
        }
      ],
      "name": "FHERC20EncTransferFromOwnerMismatch",
      "type": "error"
    },
    {
      "inputs": [
        {
          "internalType": "address",
          "name": "to",
          "type": "address"
        },
        {
          "internalType": "address",
          "name": "permitSpender",
          "type": "address"
        }
      ],
      "name": "FHERC20EncTransferFromSpenderMismatch",
      "type": "error"
    },
    {
      "inputs": [
        {
          "internalType": "uint256",
          "name": "inValueHash",
          "type": "uint256"
        },
        {
          "internalType": "uint256",
          "name": "permitValueHash",
          "type": "uint256"
        }
      ],
      "name": "FHERC20EncTransferFromValueHashMismatch",
      "type": "error"
    },
    {
      "inputs": [],
      "name": "FHERC20IncompatibleFunction",
      "type": "error"
    },
    {
      "inputs": [
        {
          "internalType": "address",
          "name": "account",
          "type": "address"
        },
        {
          "internalType": "uint256",
          "name": "currentNonce",
          "type": "uint256"
        }
      ],
      "name": "InvalidAccountNonce",
      "type": "error"
    },
    {
      "inputs": [
        {
          "internalType": "uint8",
          "name": "got",
          "type": "uint8"
        },
        {
          "internalType": "uint8",
          "name": "expected",
          "type": "uint8"
        }
      ],
      "name": "InvalidEncryptedInput",
      "type": "error"
    },
    {
      "inputs": [],
      "name": "InvalidShortString",
      "type": "error"
    },
    {
      "inputs": [
        {
          "internalType": "int32",
          "name": "value",
          "type": "int32"
        }
      ],
      "name": "SecurityZoneOutOfBounds",
      "type": "error"
    },
    {
      "inputs": [
        {
          "internalType": "string",
          "name": "str",
          "type": "string"
        }
      ],
      "name": "StringTooLong",
      "type": "error"
    },
    {
      "anonymous": false,
      "inputs": [
        {
          "indexed": true,
          "internalType": "address",
          "name": "owner",
          "type": "address"
        },
        {
          "indexed": true,
          "internalType": "address",
          "name": "spender",
          "type": "address"
        },
        {
          "indexed": false,
          "internalType": "uint256",
          "name": "value",
          "type": "uint256"
        }
      ],
      "name": "Approval",
      "type": "event"
    },
    {
      "anonymous": false,
      "inputs": [],
      "name": "EIP712DomainChanged",
      "type": "event"
    },
    {
      "anonymous": false,
      "inputs": [
        {
          "indexed": false,
          "internalType": "address",
          "name": "caller",
          "type": "address"
        },
        {
          "indexed": false,
          "internalType": "address",
          "name": "receiver",
          "type": "address"
        },
        {
          "indexed": false,
          "internalType": "uint256",
          "name": "assetsValueHash",
          "type": "uint256"
        },
        {
          "indexed": false,
          "internalType": "uint256",
          "name": "sharesValueHash",
          "type": "uint256"
        }
      ],
      "name": "EncDeposit",
      "type": "event"
    },
    {
      "anonymous": false,
      "inputs": [
        {
          "indexed": true,
          "internalType": "address",
          "name": "from",
          "type": "address"
        },
        {
          "indexed": true,
          "internalType": "address",
          "name": "to",
          "type": "address"
        },
        {
          "indexed": false,
          "internalType": "uint256",
          "name": "value_hash",
          "type": "uint256"
        }
      ],
      "name": "EncTransfer",
      "type": "event"
    },
    {
      "anonymous": false,
      "inputs": [
        {
          "indexed": false,
          "internalType": "address",
          "name": "caller",
          "type": "address"
        },
        {
          "indexed": false,
          "internalType": "address",
          "name": "receiver",
          "type": "address"
        },
        {
          "indexed": false,
          "internalType": "address",
          "name": "owner",
          "type": "address"
        },
        {
          "indexed": false,
          "internalType": "uint256",
          "name": "assetsValueHash",
          "type": "uint256"
        },
        {
          "indexed": false,
          "internalType": "uint256",
          "name": "sharesValueHash",
          "type": "uint256"
        }
      ],
      "name": "EncWithdraw",
      "type": "event"
    },
    {
      "anonymous": false,
      "inputs": [
        {
          "indexed": true,
          "internalType": "address",
          "name": "from",
          "type": "address"
        },
        {
          "indexed": true,
          "internalType": "address",
          "name": "to",
          "type": "address"
        },
        {
          "indexed": false,
          "internalType": "uint256",
          "name": "value",
          "type": "uint256"
        }
      ],
      "name": "Transfer",
      "type": "event"
    },
    {
      "inputs": [],
      "name": "DOMAIN_SEPARATOR",
      "outputs": [
        {
          "internalType": "bytes32",
          "name": "",
          "type": "bytes32"
        }
      ],
      "stateMutability": "view",
      "type": "function"
    },
    {
      "inputs": [],
      "name": "MAX_BASIS_POINT",
      "outputs": [
        {
          "internalType": "uint16",
          "name": "",
          "type": "uint16"
        }
      ],
      "stateMutability": "view",
      "type": "function"
    },
    {
      "inputs": [
        {
          "internalType": "address",
          "name": "",
          "type": "address"
        },
        {
          "internalType": "address",
          "name": "",
          "type": "address"
        }
      ],
      "name": "allowance",
      "outputs": [
        {
          "internalType": "uint256",
          "name": "",
          "type": "uint256"
        }
      ],
      "stateMutability": "pure",
      "type": "function"
    },
    {
      "inputs": [
        {
          "internalType": "address",
          "name": "",
          "type": "address"
        },
        {
          "internalType": "uint256",
          "name": "",
          "type": "uint256"
        }
      ],
      "name": "approve",
      "outputs": [
        {
          "internalType": "bool",
          "name": "",
          "type": "bool"
        }
      ],
      "stateMutability": "pure",
      "type": "function"
    },
    {
      "inputs": [],
      "name": "asset",
      "outputs": [
        {
          "internalType": "address",
          "name": "",
          "type": "address"
        }
      ],
      "stateMutability": "view",
      "type": "function"
    },
    {
      "inputs": [
        {
          "internalType": "address",
          "name": "account",
          "type": "address"
        }
      ],
      "name": "balanceOf",
      "outputs": [
        {
          "internalType": "uint256",
          "name": "",
          "type": "uint256"
        }
      ],
      "stateMutability": "view",
      "type": "function"
    },
    {
      "inputs": [],
      "name": "balanceOfIsIndicator",
      "outputs": [
        {
          "internalType": "bool",
          "name": "",
          "type": "bool"
        }
      ],
      "stateMutability": "view",
      "type": "function"
    },
    {
      "inputs": [
        {
          "components": [
            {
              "internalType": "uint256",
              "name": "ctHash",
              "type": "uint256"
            },
            {
              "internalType": "uint8",
              "name": "securityZone",
              "type": "uint8"
            },
            {
              "internalType": "uint8",
              "name": "utype",
              "type": "uint8"
            },
            {
              "internalType": "bytes",
              "name": "signature",
              "type": "bytes"
            }
          ],
          "internalType": "struct InEuint128[]",
          "name": "inBorrowAmounts",
          "type": "tuple[]"
        },
        {
          "internalType": "int24[]",
          "name": "tickInputs",
          "type": "int24[]"
        },
        {
          "components": [
            {
              "internalType": "uint256",
              "name": "ctHash",
              "type": "uint256"
            },
            {
              "internalType": "uint8",
              "name": "securityZone",
              "type": "uint8"
            },
            {
              "internalType": "uint8",
              "name": "utype",
              "type": "uint8"
            },
            {
              "internalType": "bytes",
              "name": "signature",
              "type": "bytes"
            }
          ],
          "internalType": "struct InEuint128[]",
          "name": "inMaxCollateralAmounts",
          "type": "tuple[]"
        },
        {
          "components": [
            {
              "internalType": "address",
              "name": "owner",
              "type": "address"
            },
            {
              "internalType": "address",
              "name": "spender",
              "type": "address"
            },
            {
              "internalType": "uint256",
              "name": "value_hash",
              "type": "uint256"
            },
            {
              "internalType": "uint256",
              "name": "deadline",
              "type": "uint256"
            },
            {
              "internalType": "uint8",
              "name": "v",
              "type": "uint8"
            },
            {
              "internalType": "bytes32",
              "name": "r",
              "type": "bytes32"
            },
            {
              "internalType": "bytes32",
              "name": "s",
              "type": "bytes32"
            }
          ],
          "internalType": "struct IFHERC20.FHERC20_EIP712_Permit[]",
          "name": "permits",
          "type": "tuple[]"
        }
      ],
      "name": "borrow",
      "outputs": [],
      "stateMutability": "nonpayable",
      "type": "function"
    },
    {
      "inputs": [],
      "name": "borrowToken",
      "outputs": [
        {
          "internalType": "address",
          "name": "",
          "type": "address"
        }
      ],
      "stateMutability": "view",
      "type": "function"
    },
    {
      "inputs": [],
      "name": "collateralToken",
      "outputs": [
        {
          "internalType": "address",
          "name": "",
          "type": "address"
        }
      ],
      "stateMutability": "view",
      "type": "function"
    },
    {
      "inputs": [
        {
          "internalType": "euint128",
          "name": "shares",
          "type": "uint256"
        }
      ],
      "name": "convertToAssets",
      "outputs": [
        {
          "internalType": "euint128",
          "name": "",
          "type": "uint256"
        }
      ],
      "stateMutability": "nonpayable",
      "type": "function"
    },
    {
      "inputs": [
        {
          "internalType": "euint128",
          "name": "assets",
          "type": "uint256"
        }
      ],
      "name": "convertToShares",
      "outputs": [
        {
          "internalType": "euint128",
          "name": "",
          "type": "uint256"
        }
      ],
      "stateMutability": "nonpayable",
      "type": "function"
    },
    {
      "inputs": [],
      "name": "debtIndex",
      "outputs": [
        {
          "internalType": "euint128",
          "name": "",
          "type": "uint256"
        }
      ],
      "stateMutability": "view",
      "type": "function"
    },
    {
      "inputs": [],
      "name": "debtIndexGrow",
      "outputs": [
        {
          "internalType": "euint128",
          "name": "",
          "type": "uint256"
        }
      ],
      "stateMutability": "view",
      "type": "function"
    },
    {
      "inputs": [],
      "name": "decimals",
      "outputs": [
        {
          "internalType": "uint8",
          "name": "",
          "type": "uint8"
        }
      ],
      "stateMutability": "view",
      "type": "function"
    },
    {
      "inputs": [],
      "name": "eip712Domain",
      "outputs": [
        {
          "internalType": "bytes1",
          "name": "fields",
          "type": "bytes1"
        },
        {
          "internalType": "string",
          "name": "name",
          "type": "string"
        },
        {
          "internalType": "string",
          "name": "version",
          "type": "string"
        },
        {
          "internalType": "uint256",
          "name": "chainId",
          "type": "uint256"
        },
        {
          "internalType": "address",
          "name": "verifyingContract",
          "type": "address"
        },
        {
          "internalType": "bytes32",
          "name": "salt",
          "type": "bytes32"
        },
        {
          "internalType": "uint256[]",
          "name": "extensions",
          "type": "uint256[]"
        }
      ],
      "stateMutability": "view",
      "type": "function"
    },
    {
      "inputs": [
        {
          "internalType": "address",
          "name": "account",
          "type": "address"
        }
      ],
      "name": "encBalanceOf",
      "outputs": [
        {
          "internalType": "euint128",
          "name": "",
          "type": "uint256"
        }
      ],
      "stateMutability": "view",
      "type": "function"
    },
    {
      "inputs": [
        {
          "components": [
            {
              "internalType": "uint256",
              "name": "ctHash",
              "type": "uint256"
            },
            {
              "internalType": "uint8",
              "name": "securityZone",
              "type": "uint8"
            },
            {
              "internalType": "uint8",
              "name": "utype",
              "type": "uint8"
            },
            {
              "internalType": "bytes",
              "name": "signature",
              "type": "bytes"
            }
          ],
          "internalType": "struct InEuint128",
          "name": "inAssets",
          "type": "tuple"
        },
        {
          "internalType": "address",
          "name": "receiver",
          "type": "address"
        },
        {
          "components": [
            {
              "internalType": "address",
              "name": "owner",
              "type": "address"
            },
            {
              "internalType": "address",
              "name": "spender",
              "type": "address"
            },
            {
              "internalType": "uint256",
              "name": "value_hash",
              "type": "uint256"
            },
            {
              "internalType": "uint256",
              "name": "deadline",
              "type": "uint256"
            },
            {
              "internalType": "uint8",
              "name": "v",
              "type": "uint8"
            },
            {
              "internalType": "bytes32",
              "name": "r",
              "type": "bytes32"
            },
            {
              "internalType": "bytes32",
              "name": "s",
              "type": "bytes32"
            }
          ],
          "internalType": "struct IFHERC20.FHERC20_EIP712_Permit",
          "name": "permit",
          "type": "tuple"
        }
      ],
      "name": "encDeposit",
      "outputs": [
        {
          "internalType": "euint128",
          "name": "shares",
          "type": "uint256"
        }
      ],
      "stateMutability": "nonpayable",
      "type": "function"
    },
    {
      "inputs": [
        {
          "components": [
            {
              "internalType": "uint256",
              "name": "ctHash",
              "type": "uint256"
            },
            {
              "internalType": "uint8",
              "name": "securityZone",
              "type": "uint8"
            },
            {
              "internalType": "uint8",
              "name": "utype",
              "type": "uint8"
            },
            {
              "internalType": "bytes",
              "name": "signature",
              "type": "bytes"
            }
          ],
          "internalType": "struct InEuint128",
          "name": "inShares",
          "type": "tuple"
        },
        {
          "internalType": "address",
          "name": "receiver",
          "type": "address"
        },
        {
          "internalType": "address",
          "name": "owner",
          "type": "address"
        },
        {
          "components": [
            {
              "internalType": "address",
              "name": "owner",
              "type": "address"
            },
            {
              "internalType": "address",
              "name": "spender",
              "type": "address"
            },
            {
              "internalType": "uint256",
              "name": "value_hash",
              "type": "uint256"
            },
            {
              "internalType": "uint256",
              "name": "deadline",
              "type": "uint256"
            },
            {
              "internalType": "uint8",
              "name": "v",
              "type": "uint8"
            },
            {
              "internalType": "bytes32",
              "name": "r",
              "type": "bytes32"
            },
            {
              "internalType": "bytes32",
              "name": "s",
              "type": "bytes32"
            }
          ],
          "internalType": "struct IFHERC20.FHERC20_EIP712_Permit",
          "name": "permit",
          "type": "tuple"
        }
      ],
      "name": "encRedeem",
      "outputs": [
        {
          "internalType": "euint128",
          "name": "assets",
          "type": "uint256"
        }
      ],
      "stateMutability": "nonpayable",
      "type": "function"
    },
    {
      "inputs": [],
      "name": "encTotalAssets",
      "outputs": [
        {
          "internalType": "euint128",
          "name": "",
          "type": "uint256"
        }
      ],
      "stateMutability": "nonpayable",
      "type": "function"
    },
    {
      "inputs": [],
      "name": "encTotalSupply",
      "outputs": [
        {
          "internalType": "euint128",
          "name": "",
          "type": "uint256"
        }
      ],
      "stateMutability": "view",
      "type": "function"
    },
    {
      "inputs": [
        {
          "internalType": "address",
          "name": "to",
          "type": "address"
        },
        {
          "components": [
            {
              "internalType": "uint256",
              "name": "ctHash",
              "type": "uint256"
            },
            {
              "internalType": "uint8",
              "name": "securityZone",
              "type": "uint8"
            },
            {
              "internalType": "uint8",
              "name": "utype",
              "type": "uint8"
            },
            {
              "internalType": "bytes",
              "name": "signature",
              "type": "bytes"
            }
          ],
          "internalType": "struct InEuint128",
          "name": "inValue",
          "type": "tuple"
        }
      ],
      "name": "encTransfer",
      "outputs": [
        {
          "internalType": "euint128",
          "name": "transferred",
          "type": "uint256"
        }
      ],
      "stateMutability": "nonpayable",
      "type": "function"
    },
    {
      "inputs": [
        {
          "internalType": "address",
          "name": "to",
          "type": "address"
        },
        {
          "internalType": "euint128",
          "name": "value",
          "type": "uint256"
        }
      ],
      "name": "encTransfer",
      "outputs": [
        {
          "internalType": "euint128",
          "name": "transferred",
          "type": "uint256"
        }
      ],
      "stateMutability": "nonpayable",
      "type": "function"
    },
    {
      "inputs": [
        {
          "internalType": "address",
          "name": "from",
          "type": "address"
        },
        {
          "internalType": "address",
          "name": "to",
          "type": "address"
        },
        {
          "internalType": "euint128",
          "name": "value",
          "type": "uint256"
        },
        {
          "components": [
            {
              "internalType": "address",
              "name": "owner",
              "type": "address"
            },
            {
              "internalType": "address",
              "name": "spender",
              "type": "address"
            },
            {
              "internalType": "uint256",
              "name": "value_hash",
              "type": "uint256"
            },
            {
              "internalType": "uint256",
              "name": "deadline",
              "type": "uint256"
            },
            {
              "internalType": "uint8",
              "name": "v",
              "type": "uint8"
            },
            {
              "internalType": "bytes32",
              "name": "r",
              "type": "bytes32"
            },
            {
              "internalType": "bytes32",
              "name": "s",
              "type": "bytes32"
            }
          ],
          "internalType": "struct IFHERC20.FHERC20_EIP712_Permit",
          "name": "permit",
          "type": "tuple"
        }
      ],
      "name": "encTransferFrom",
      "outputs": [
        {
          "internalType": "euint128",
          "name": "transferred",
          "type": "uint256"
        }
      ],
      "stateMutability": "nonpayable",
      "type": "function"
    },
    {
      "inputs": [
        {
          "internalType": "address",
          "name": "from",
          "type": "address"
        },
        {
          "internalType": "address",
          "name": "to",
          "type": "address"
        },
        {
          "components": [
            {
              "internalType": "uint256",
              "name": "ctHash",
              "type": "uint256"
            },
            {
              "internalType": "uint8",
              "name": "securityZone",
              "type": "uint8"
            },
            {
              "internalType": "uint8",
              "name": "utype",
              "type": "uint8"
            },
            {
              "internalType": "bytes",
              "name": "signature",
              "type": "bytes"
            }
          ],
          "internalType": "struct InEuint128",
          "name": "inValue",
          "type": "tuple"
        },
        {
          "components": [
            {
              "internalType": "address",
              "name": "owner",
              "type": "address"
            },
            {
              "internalType": "address",
              "name": "spender",
              "type": "address"
            },
            {
              "internalType": "uint256",
              "name": "value_hash",
              "type": "uint256"
            },
            {
              "internalType": "uint256",
              "name": "deadline",
              "type": "uint256"
            },
            {
              "internalType": "uint8",
              "name": "v",
              "type": "uint8"
            },
            {
              "internalType": "bytes32",
              "name": "r",
              "type": "bytes32"
            },
            {
              "internalType": "bytes32",
              "name": "s",
              "type": "bytes32"
            }
          ],
          "internalType": "struct IFHERC20.FHERC20_EIP712_Permit",
          "name": "permit",
          "type": "tuple"
        }
      ],
      "name": "encTransferFromDirect",
      "outputs": [
        {
          "internalType": "euint128",
          "name": "transferred",
          "type": "uint256"
        }
      ],
      "stateMutability": "nonpayable",
      "type": "function"
    },
    {
      "inputs": [
        {
          "internalType": "address",
          "name": "from",
          "type": "address"
        },
        {
          "internalType": "address",
          "name": "to",
          "type": "address"
        },
        {
          "internalType": "euint128",
          "name": "value",
          "type": "uint256"
        },
        {
          "components": [
            {
              "internalType": "uint256",
              "name": "ctHash",
              "type": "uint256"
            },
            {
              "internalType": "uint8",
              "name": "securityZone",
              "type": "uint8"
            },
            {
              "internalType": "uint8",
              "name": "utype",
              "type": "uint8"
            },
            {
              "internalType": "bytes",
              "name": "signature",
              "type": "bytes"
            }
          ],
          "internalType": "struct InEuint128",
          "name": "maxInValue",
          "type": "tuple"
        },
        {
          "components": [
            {
              "internalType": "address",
              "name": "owner",
              "type": "address"
            },
            {
              "internalType": "address",
              "name": "spender",
              "type": "address"
            },
            {
              "internalType": "uint256",
              "name": "value_hash",
              "type": "uint256"
            },
            {
              "internalType": "uint256",
              "name": "deadline",
              "type": "uint256"
            },
            {
              "internalType": "uint8",
              "name": "v",
              "type": "uint8"
            },
            {
              "internalType": "bytes32",
              "name": "r",
              "type": "bytes32"
            },
            {
              "internalType": "bytes32",
              "name": "s",
              "type": "bytes32"
            }
          ],
          "internalType": "struct IFHERC20.FHERC20_EIP712_Permit",
          "name": "permit",
          "type": "tuple"
        }
      ],
      "name": "encTransferFromDirectWithMax",
      "outputs": [
        {
          "internalType": "euint128",
          "name": "",
          "type": "uint256"
        }
      ],
      "stateMutability": "nonpayable",
      "type": "function"
    },
    {
      "inputs": [
        {
          "internalType": "address",
          "name": "from",
          "type": "address"
        },
        {
          "internalType": "address",
          "name": "to",
          "type": "address"
        },
        {
          "internalType": "euint128",
          "name": "value",
          "type": "uint256"
        },
        {
          "internalType": "euint128",
          "name": "maxValue",
          "type": "uint256"
        },
        {
          "components": [
            {
              "internalType": "address",
              "name": "owner",
              "type": "address"
            },
            {
              "internalType": "address",
              "name": "spender",
              "type": "address"
            },
            {
              "internalType": "uint256",
              "name": "value_hash",
              "type": "uint256"
            },
            {
              "internalType": "uint256",
              "name": "deadline",
              "type": "uint256"
            },
            {
              "internalType": "uint8",
              "name": "v",
              "type": "uint8"
            },
            {
              "internalType": "bytes32",
              "name": "r",
              "type": "bytes32"
            },
            {
              "internalType": "bytes32",
              "name": "s",
              "type": "bytes32"
            }
          ],
          "internalType": "struct IFHERC20.FHERC20_EIP712_Permit",
          "name": "permit",
          "type": "tuple"
        }
      ],
      "name": "encTransferFromWithMax",
      "outputs": [
        {
          "internalType": "euint128",
          "name": "transferred",
          "type": "uint256"
        }
      ],
      "stateMutability": "nonpayable",
      "type": "function"
    },
    {
      "inputs": [],
      "name": "getDecBorrowTokenBalance",
      "outputs": [
        {
          "internalType": "uint256",
          "name": "balance",
          "type": "uint256"
        },
        {
          "internalType": "bool",
          "name": "success",
          "type": "bool"
        }
      ],
      "stateMutability": "view",
      "type": "function"
    },
    {
      "inputs": [
        {
          "internalType": "address",
          "name": "user",
          "type": "address"
        },
        {
          "internalType": "uint256",
          "name": "index",
          "type": "uint256"
        }
      ],
      "name": "getUserPositionAt",
      "outputs": [
        {
          "components": [
            {
              "internalType": "euint128",
              "name": "collateral",
              "type": "uint256"
            },
            {
              "internalType": "euint128",
              "name": "scaledDebt",
              "type": "uint256"
            },
            {
              "internalType": "uint256",
              "name": "debtIndex0",
              "type": "uint256"
            },
            {
              "internalType": "euint128",
              "name": "liquidationCount",
              "type": "uint256"
            }
          ],
          "internalType": "struct Position.Info",
          "name": "",
          "type": "tuple"
        }
      ],
      "stateMutability": "view",
      "type": "function"
    },
    {
      "inputs": [
        {
          "internalType": "address",
          "name": "user",
          "type": "address"
        }
      ],
      "name": "getUserPositions",
      "outputs": [
        {
          "components": [
            {
              "internalType": "euint128",
              "name": "collateral",
              "type": "uint256"
            },
            {
              "internalType": "euint128",
              "name": "scaledDebt",
              "type": "uint256"
            },
            {
              "internalType": "uint256",
              "name": "debtIndex0",
              "type": "uint256"
            },
            {
              "internalType": "euint128",
              "name": "liquidationCount",
              "type": "uint256"
            }
          ],
          "internalType": "struct Position.Info[]",
          "name": "result",
          "type": "tuple[]"
        }
      ],
      "stateMutability": "view",
      "type": "function"
    },
    {
      "inputs": [
        {
          "internalType": "address",
          "name": "user",
          "type": "address"
        }
      ],
      "name": "getUserPositionsLength",
      "outputs": [
        {
          "internalType": "uint256",
          "name": "",
          "type": "uint256"
        }
      ],
      "stateMutability": "view",
      "type": "function"
    },
    {
      "inputs": [],
      "name": "indicatorTick",
      "outputs": [
        {
          "internalType": "uint256",
          "name": "",
          "type": "uint256"
        }
      ],
      "stateMutability": "view",
      "type": "function"
    },
    {
      "inputs": [],
      "name": "isFherc20",
      "outputs": [
        {
          "internalType": "bool",
          "name": "",
          "type": "bool"
        }
      ],
      "stateMutability": "view",
      "type": "function"
    },
    {
      "inputs": [],
      "name": "lastUpdatedTimestamp",
      "outputs": [
        {
          "internalType": "uint32",
          "name": "",
          "type": "uint32"
        }
      ],
      "stateMutability": "view",
      "type": "function"
    },
    {
      "inputs": [],
      "name": "lendingIndex",
      "outputs": [
        {
          "internalType": "euint128",
          "name": "",
          "type": "uint256"
        }
      ],
      "stateMutability": "view",
      "type": "function"
    },
    {
      "inputs": [],
      "name": "lendingIndexGrow",
      "outputs": [
        {
          "internalType": "euint128",
          "name": "",
          "type": "uint256"
        }
      ],
      "stateMutability": "view",
      "type": "function"
    },
    {
      "inputs": [
        {
          "internalType": "int24",
          "name": "tick",
          "type": "int24"
        },
        {
          "components": [
            {
              "internalType": "uint256",
              "name": "ctHash",
              "type": "uint256"
            },
            {
              "internalType": "uint8",
              "name": "securityZone",
              "type": "uint8"
            },
            {
              "internalType": "uint8",
              "name": "utype",
              "type": "uint8"
            },
            {
              "internalType": "bytes",
              "name": "signature",
              "type": "bytes"
            }
          ],
          "internalType": "struct InEuint128",
          "name": "inMaxDebtAmount",
          "type": "tuple"
        },
        {
          "components": [
            {
              "internalType": "uint256",
              "name": "ctHash",
              "type": "uint256"
            },
            {
              "internalType": "uint8",
              "name": "securityZone",
              "type": "uint8"
            },
            {
              "internalType": "uint8",
              "name": "utype",
              "type": "uint8"
            },
            {
              "internalType": "bytes",
              "name": "signature",
              "type": "bytes"
            }
          ],
          "internalType": "struct InEuint128",
          "name": "inMinCollateralAmount",
          "type": "tuple"
        },
        {
          "components": [
            {
              "internalType": "address",
              "name": "owner",
              "type": "address"
            },
            {
              "internalType": "address",
              "name": "spender",
              "type": "address"
            },
            {
              "internalType": "uint256",
              "name": "value_hash",
              "type": "uint256"
            },
            {
              "internalType": "uint256",
              "name": "deadline",
              "type": "uint256"
            },
            {
              "internalType": "uint8",
              "name": "v",
              "type": "uint8"
            },
            {
              "internalType": "bytes32",
              "name": "r",
              "type": "bytes32"
            },
            {
              "internalType": "bytes32",
              "name": "s",
              "type": "bytes32"
            }
          ],
          "internalType": "struct IFHERC20.FHERC20_EIP712_Permit",
          "name": "permit",
          "type": "tuple"
        }
      ],
      "name": "liquidate",
      "outputs": [],
      "stateMutability": "nonpayable",
      "type": "function"
    },
    {
      "inputs": [
        {
          "internalType": "bytes32",
          "name": "",
          "type": "bytes32"
        }
      ],
      "name": "liquidatedTicks",
      "outputs": [
        {
          "internalType": "euint128",
          "name": "leftOverCollateral",
          "type": "uint256"
        },
        {
          "internalType": "euint128",
          "name": "scaledDebt",
          "type": "uint256"
        }
      ],
      "stateMutability": "view",
      "type": "function"
    },
    {
      "inputs": [],
      "name": "liquidationThresholdBasisPoint",
      "outputs": [
        {
          "internalType": "uint16",
          "name": "",
          "type": "uint16"
        }
      ],
      "stateMutability": "view",
      "type": "function"
    },
    {
      "inputs": [],
      "name": "maxDebtIndexGrow",
      "outputs": [
        {
          "internalType": "uint128",
          "name": "",
          "type": "uint128"
        }
      ],
      "stateMutability": "view",
      "type": "function"
    },
    {
      "inputs": [],
      "name": "maxLtvBasisPoint",
      "outputs": [
        {
          "internalType": "uint16",
          "name": "",
          "type": "uint16"
        }
      ],
      "stateMutability": "view",
      "type": "function"
    },
    {
      "inputs": [],
      "name": "minDebtIndexGrow",
      "outputs": [
        {
          "internalType": "uint128",
          "name": "",
          "type": "uint128"
        }
      ],
      "stateMutability": "view",
      "type": "function"
    },
    {
      "inputs": [],
      "name": "name",
      "outputs": [
        {
          "internalType": "string",
          "name": "",
          "type": "string"
        }
      ],
      "stateMutability": "view",
      "type": "function"
    },
    {
      "inputs": [
        {
          "internalType": "address",
          "name": "owner",
          "type": "address"
        }
      ],
      "name": "nonces",
      "outputs": [
        {
          "internalType": "uint256",
          "name": "",
          "type": "uint256"
        }
      ],
      "stateMutability": "view",
      "type": "function"
    },
    {
      "inputs": [],
      "name": "oracle",
      "outputs": [
        {
          "internalType": "contract IOracle",
          "name": "",
          "type": "address"
        }
      ],
      "stateMutability": "view",
      "type": "function"
    },
    {
      "inputs": [],
      "name": "pDebtIndex",
      "outputs": [
        {
          "internalType": "uint128",
          "name": "",
          "type": "uint128"
        }
      ],
      "stateMutability": "view",
      "type": "function"
    },
    {
      "inputs": [],
      "name": "pDebtIndexGrow",
      "outputs": [
        {
          "internalType": "uint128",
          "name": "",
          "type": "uint128"
        }
      ],
      "stateMutability": "view",
      "type": "function"
    },
    {
      "inputs": [],
      "name": "penaltyBasisPoint",
      "outputs": [
        {
          "internalType": "uint16",
          "name": "",
          "type": "uint16"
        }
      ],
      "stateMutability": "view",
      "type": "function"
    },
    {
      "inputs": [
        {
          "internalType": "bytes32",
          "name": "",
          "type": "bytes32"
        }
      ],
      "name": "positions",
      "outputs": [
        {
          "internalType": "euint128",
          "name": "collateral",
          "type": "uint256"
        },
        {
          "internalType": "euint128",
          "name": "scaledDebt",
          "type": "uint256"
        },
        {
          "internalType": "uint256",
          "name": "debtIndex0",
          "type": "uint256"
        },
        {
          "internalType": "euint128",
          "name": "liquidationCount",
          "type": "uint256"
        }
      ],
      "stateMutability": "view",
      "type": "function"
    },
    {
      "inputs": [
        {
          "components": [
            {
              "internalType": "uint256",
              "name": "ctHash",
              "type": "uint256"
            },
            {
              "internalType": "uint8",
              "name": "securityZone",
              "type": "uint8"
            },
            {
              "internalType": "uint8",
              "name": "utype",
              "type": "uint8"
            },
            {
              "internalType": "bytes",
              "name": "signature",
              "type": "bytes"
            }
          ],
          "internalType": "struct InEuint128",
          "name": "inRepayAmount",
          "type": "tuple"
        },
        {
          "internalType": "int24",
          "name": "tick",
          "type": "int24"
        },
        {
          "components": [
            {
              "internalType": "uint256",
              "name": "ctHash",
              "type": "uint256"
            },
            {
              "internalType": "uint8",
              "name": "securityZone",
              "type": "uint8"
            },
            {
              "internalType": "uint8",
              "name": "utype",
              "type": "uint8"
            },
            {
              "internalType": "bytes",
              "name": "signature",
              "type": "bytes"
            }
          ],
          "internalType": "struct InEuint128",
          "name": "inMinCollateralAmount",
          "type": "tuple"
        },
        {
          "components": [
            {
              "internalType": "address",
              "name": "owner",
              "type": "address"
            },
            {
              "internalType": "address",
              "name": "spender",
              "type": "address"
            },
            {
              "internalType": "uint256",
              "name": "value_hash",
              "type": "uint256"
            },
            {
              "internalType": "uint256",
              "name": "deadline",
              "type": "uint256"
            },
            {
              "internalType": "uint8",
              "name": "v",
              "type": "uint8"
            },
            {
              "internalType": "bytes32",
              "name": "r",
              "type": "bytes32"
            },
            {
              "internalType": "bytes32",
              "name": "s",
              "type": "bytes32"
            }
          ],
          "internalType": "struct IFHERC20.FHERC20_EIP712_Permit",
          "name": "permit",
          "type": "tuple"
        }
      ],
      "name": "repay",
      "outputs": [],
      "stateMutability": "nonpayable",
      "type": "function"
    },
    {
      "inputs": [],
      "name": "resetIndicatedBalance",
      "outputs": [],
      "stateMutability": "nonpayable",
      "type": "function"
    },
    {
      "inputs": [],
      "name": "symbol",
      "outputs": [
        {
          "internalType": "string",
          "name": "",
          "type": "string"
        }
      ],
      "stateMutability": "view",
      "type": "function"
    },
    {
      "inputs": [
        {
          "internalType": "int16",
          "name": "",
          "type": "int16"
        }
      ],
      "name": "tickBitmap",
      "outputs": [
        {
          "internalType": "uint256",
          "name": "",
          "type": "uint256"
        }
      ],
      "stateMutability": "view",
      "type": "function"
    },
    {
      "inputs": [],
      "name": "tickSpacing",
      "outputs": [
        {
          "internalType": "int24",
          "name": "",
          "type": "int24"
        }
      ],
      "stateMutability": "view",
      "type": "function"
    },
    {
      "inputs": [
        {
          "internalType": "int24",
          "name": "",
          "type": "int24"
        }
      ],
      "name": "ticks",
      "outputs": [
        {
          "internalType": "euint128",
          "name": "collateral",
          "type": "uint256"
        },
        {
          "internalType": "euint128",
          "name": "scaledDebt",
          "type": "uint256"
        },
        {
          "internalType": "euint128",
          "name": "liquidationCount",
          "type": "uint256"
        }
      ],
      "stateMutability": "view",
      "type": "function"
    },
    {
      "inputs": [],
      "name": "totalScaledBorrow",
      "outputs": [
        {
          "internalType": "euint128",
          "name": "",
          "type": "uint256"
        }
      ],
      "stateMutability": "view",
      "type": "function"
    },
    {
      "inputs": [],
      "name": "totalSupply",
      "outputs": [
        {
          "internalType": "uint256",
          "name": "",
          "type": "uint256"
        }
      ],
      "stateMutability": "view",
      "type": "function"
    },
    {
      "inputs": [
        {
          "internalType": "address",
          "name": "",
          "type": "address"
        },
        {
          "internalType": "uint256",
          "name": "",
          "type": "uint256"
        }
      ],
      "name": "transfer",
      "outputs": [
        {
          "internalType": "bool",
          "name": "",
          "type": "bool"
        }
      ],
      "stateMutability": "pure",
      "type": "function"
    },
    {
      "inputs": [
        {
          "internalType": "address",
          "name": "",
          "type": "address"
        },
        {
          "internalType": "address",
          "name": "",
          "type": "address"
        },
        {
          "internalType": "uint256",
          "name": "",
          "type": "uint256"
        }
      ],
      "name": "transferFrom",
      "outputs": [
        {
          "internalType": "bool",
          "name": "",
          "type": "bool"
        }
      ],
      "stateMutability": "pure",
      "type": "function"
    }
  ],
  "bytecode": "0x6101e080604052346106b857616e01803803809161001d828561097b565b8339810160e0828203126106b85781516001600160401b0381116106b857816100479184016109b9565b602083015190916001600160401b0382116106b8576100679184016109b9565b610073604084016109ff565b92610080606082016109ff565b60808201519261ffff841684036106b85760a0830151928360020b84036106b85760c00151946001600160a01b03861686036106b8576040516100c28161092a565b60018152603160f81b60208201526100d982610b0f565b610120526100e681610c92565b6101405281516020830120908160e0526020815191012080610100524660a0526040519060208201927f8b73c3c69bb8fe3d512ecc4cf759cc79239f7b179b0ffacaa9a75d522b39400f8452604083015260608201524660808201523060a082015260a0815260c0810181811060018060401b03821117610834576040525190206080523060c0528051906001600160401b0382116108345760075490600182811c92168015610920575b60208310146108165781601f8493116108c8575b50602090601f8311600114610853575f92610848575b50508160011b915f199060031b1c1916176007555b8051906001600160401b0382116108345760085490600182811c9216801561082a575b60208310146108165781601f8493116107bb575b50602090601f8311600114610746575f9261073b575b50508160011b915f199060031b1c1916176008555b601260ff196009541617600955655af3107a4000600a5560405161025581610945565b5f815260206102d26040519261026a84610960565b60038452606036848601376001600160801b0361028685610f0a565b52600861029285610f2b565b525f61029d85610f3b565b526102e46040519485938493631888debd60e01b855260086004860152601a6024860152608060448601526084850190610dc8565b83810360031901606485015290610dc8565b03815f5f80516020616da18339815191525af19081156106c4575f91610709575b50600b5561031b6001600160a01b038216610a6e565b9015610701575b610180526001600160a01b0381166101605261034861033f610dfb565b80600655610a13565b610353600b54610a13565b600c805462010000600160501b0319164260301b69ffffffff00000000000016176501f41f400000179055635e80a6c06101a05264017a029b006101c052610399610dfb565b6010556040516103a881610945565b5f815260206102d2604051926103bd84610960565b60038452606036848601376001600160801b036103d985610f0a565b5260066103e585610f2b565b525f6103f085610f3b565b526104256040519485938493631888debd60e01b855260066004860152601a6024860152608060448601526084850190610dc8565b03815f5f80516020616da18339815191525af19081156106c4575f916106cf575b50601155601054601255610458610ed0565b60135560018060801b036101a0511660206102d260405161047881610945565b5f81526040519361048885610960565b600385526060368587013761049c85610f0a565b5260066104a885610f2b565b525f6104b385610f3b565b526104e86040519485938493631888debd60e01b855260066004860152601a6024860152608060448601526084850190610dc8565b03815f5f80516020616da18339815191525af19081156106c4575f9161068e575b506014556101a051670de0b6b3a764000060809190911b6001600160801b03191617601555610536610ed0565b60165560105460175560018060a01b03199460018060a01b031685600d541617600d5560018060a01b031684600e541617600e5561ffff600c549160501b6cffffff00000000000000000000169216906cffffff0000000000000000ffff19161717600c5560018060a01b031690600f541617600f556105b761033f610dfb565b6105c2601054610a13565b6105cd601154610a13565b6105d8601354610a13565b6105e3601454610a13565b6105ee601654610a13565b6105f9601754610a13565b604051615e559081610f4c82396080518161390a015260a051816139d5015260c051816138d4015260e051816139590152610100518161397f015261012051816119bc015261014051816119e80152610160518181816113c601528181611ddf0152612cc901526101805181611e3c01526101a051818181611c0401526152b301526101c05181818161093901526152d80152f35b90506020813d6020116106bc575b816106a96020938361097b565b810103126106b857515f610509565b5f80fd5b3d915061069c565b6040513d5f823e3d90fd5b90506020813d6020116106f9575b816106ea6020938361097b565b810103126106b857515f610446565b3d91506106dd565b506012610322565b90506020813d602011610733575b816107246020938361097b565b810103126106b857515f610305565b3d9150610717565b015190505f8061021d565b60085f90815293505f80516020616de183398151915291905b601f19841685106107a0576001945083601f19811610610788575b505050811b01600855610232565b01515f1960f88460031b161c191690555f808061077a565b8181015183556020948501946001909301929091019061075f565b60085f529091505f80516020616de1833981519152601f840160051c8101916020851061080c575b90601f859493920160051c01905b8181106107fe5750610207565b5f81558493506001016107f1565b90915081906107e3565b634e487b7160e01b5f52602260045260245ffd5b91607f16916101f3565b634e487b7160e01b5f52604160045260245ffd5b015190505f806101bb565b60075f90815293505f80516020616dc183398151915291905b601f19841685106108ad576001945083601f19811610610895575b505050811b016007556101d0565b01515f1960f88460031b161c191690555f8080610887565b8181015183556020948501946001909301929091019061086c565b60075f529091505f80516020616dc1833981519152601f840160051c810160208510610919575b90849392915b601f830160051c8201811061090b5750506101a5565b5f81558594506001016108f5565b50806108ef565b91607f1691610191565b604081019081106001600160401b0382111761083457604052565b602081019081106001600160401b0382111761083457604052565b608081019081106001600160401b0382111761083457604052565b601f909101601f19168101906001600160401b0382119082101761083457604052565b6001600160401b03811161083457601f01601f191660200190565b81601f820112156106b8578051906109d08261099e565b926109de604051948561097b565b828452602083830101116106b857815f9260208093018386015e8301015290565b51906001600160a01b03821682036106b857565b5f80516020616da183398151915290813b156106b8575f91604483926040519485938492631974142760e21b845260048401523060248401525af180156106c457610a5b5750565b6001600160401b03811161083457604052565b5f8091604051602081019063313ce56760e01b825260048152610a908161092a565b51916001600160a01b03165afa3d15610b07573d90610aae8261099e565b91610abc604051938461097b565b82523d5f602084013e5b80610afb575b610ad8575b505f905f90565b6020818051810103126106b8576020015160ff8111610ad1579060ff6001921690565b50602081511015610acc565b606090610ac6565b805160209081811015610b855750601f825111610b475780825192015190808310610b3957501790565b825f19910360031b1b161790565b60448260405192839163305a27a960e01b83528160048401528051918291826024860152018484015e5f828201840152601f01601f19168101030190fd5b906001600160401b038211610834575f54926001938481811c91168015610c88575b8382101461081657601f8111610c55575b5081601f8411600114610bf357509282939183925f94610be8575b50501b915f199060031b1c1916175f5560ff90565b015192505f80610bd3565b919083601f1981165f8052845f20945f905b88838310610c3b5750505010610c23575b505050811b015f5560ff90565b01515f1960f88460031b161c191690555f8080610c16565b858701518855909601959485019487935090810190610c05565b5f805284601f845f20920160051c820191601f860160051c015b828110610c7d575050610bb8565b5f8155018590610c6f565b90607f1690610ba7565b805160209081811015610cbc5750601f825111610b475780825192015190808310610b3957501790565b9192916001600160401b0381116108345760019182548381811c91168015610dbe575b8282101461081657601f8111610d8b575b5080601f8311600114610d2b5750819293945f92610d20575b50505f19600383901b1c191690821b17905560ff90565b015190505f80610d09565b90601f19831695845f52825f20925f905b888210610d745750508385969710610d5c575b505050811b01905560ff90565b01515f1960f88460031b161c191690555f8080610d4f565b808785968294968601518155019501930190610d3c565b835f5283601f835f20920160051c820191601f850160051c015b828110610db3575050610cf0565b5f8155018490610da5565b90607f1690610cdf565b9081518082526020808093019301915f5b828110610de7575050505090565b835185529381019392810192600101610dd9565b604051610e0781610945565b5f815260206102d260405192610e1c84610960565b60038452606036848601375f610e3185610f0a565b526006610e3d85610f2b565b525f610e4885610f3b565b52610e7d6040519485938493631888debd60e01b855260066004860152601a6024860152608060448601526084850190610dc8565b03815f5f80516020616da18339815191525af19081156106c4575f91610ea1575090565b90506020813d602011610ec8575b81610ebc6020938361097b565b810103126106b8575190565b3d9150610eaf565b604051610edc81610945565b5f815260206102d260405192610ef184610960565b6003845260603684860137670de0b6b3a7640000610e31855b805115610f175760200190565b634e487b7160e01b5f52603260045260245ffd5b805160011015610f175760400190565b805160021015610f17576060019056fe6080806040526004361015610012575f80fd5b5f3560e01c90816306fdde0314612f775750806307a2d13a14612f59578063095ea7b3146117625780630b39f29814612c0b57806318160ddd14612be65780631830913c14612bc95780631bc230de14611fed5780631d47694014611fd057806323b872dd14611fb75780632a6bc2dd14611e6f578063313ce56714611e285780633644e51514611e0e578063365ac002146117b457806338d52e0f14611dca5780633c05c58914611da95780633fd94f1714611d13578063456dc17a14611ceb578063465c1c1a14611cd1578063490690f314611cb4578063514ea4bf14611c685780635339c29614611c3357806359ca681c14611bef57806361a092cc14611ba75780636347f70b14611b435780636ca6691614611b0b57806370a0823114611acb5780637dc0d1d014611aa35780637ecebe0014611a6b57806384b0196e146119a457806387be66a5146119875780638f48b5941461195f57806393066e351461193b5780639417c9fb1461189a57806395d89b41146117d65780639a04a312146117b9578063a415f269146117b4578063a645a5a514611767578063a9059cbb14611762578063aa3502921461171a578063b2016bd4146116f2578063b4b20190146116c9578063bab20208146116a1578063baeaaa1014611360578063bb8c631f14611343578063c0d3f71414611326578063c1deeca1146112a3578063c44bd065146109e4578063c6e6f592146109be578063c80184901461098b578063d0c93a7c14610968578063d6ba77a414610924578063d749109314610908578063da39e301146108e5578063dd62ed3e146108b0578063dfc4d7c714610878578063f30dba931461082f578063fbaf894c14610809578063feed336f146107e95763ff718e52146102a5575f80fd5b346107695760031961014036820112610769576001600160401b0360043511610769576080816004353603011261076957602435908160020b90818303610769576001600160401b036044351161076957608090604435360301126107695760e03660631901126107695761032e610325600c5460501c60020b8461345f565b60020b15613485565b610336613530565b61033f826146f5565b905f52601860205261035560405f20923361563b565b5f52601a60205260405f20916103746003840154600283015490614bbd565b916103b16103ac61039e6001870154610398610392601354926154ee565b916154ee565b90615043565b6103a6615b2c565b906150e6565b615461565b9061044b6104296103e36103d26103cd36600435600401613145565b613641565b6103dc8682613745565b9586613f97565b93610413600189015461040c6103ac6013546103a66103926104048c6154ee565b610398615b2c565b9083613f97565b936104236103ac8a549287614c60565b91613f97565b9461044561043f6103cd36604435600401613145565b87614576565b9061382f565b600d5460405163dfc4d7c760e01b815230600482015290602090829060249082906001600160a01b03165afa908115610774575f916107b5575b506104a2916104456104979288613ef4565b926010549084613f97565b600e549092906104bb906001600160a01b031684614e5b565b60018060a01b03600e54166040519363c1deeca160e01b8552336004860152306024860152604485015261016060648501526004356004013561016485015260ff61050a602460043501613137565b1661018485015260ff610521604460043501613137565b166101a4850152600435606481013590360360221901811215610769576004350190602460048301359201906001600160401b0383116107695782360382136107695760806101c4870152826101e48701528261020492838801375f8387018301526064356001600160a01b0381169081900361076957608487015260843560018060a01b0381168091036107695760a487015260a43560c487015260c43560e487015260e43560ff8116809103610769575f8793846020968194610104908184015261012490358184015235610144830152601f801991011681010301925af1928315610774575f9361077f575b506106286106339161044561063d9560105490613745565b916010549083613f97565b9360105491613f97565b600d54610653906001600160a01b031682614e5b565b600d54604051631756404160e31b81523360048201526024810183905290602090829060449082905f906001600160a01b03165af1801561077457610741575b50926106fd82856106ab6107169761070e9654614619565b8255600182016106bc878254614619565b905560018060801b03601554166106d96002840154928654614619565b85556106e9876001870154614619565b600186015560028501556003840155614eb2565b6107073082614ed6565b3390614ed6565b601254614619565b6012556107216135f5565b600c805463ffffffff60301b19164260301b63ffffffff60301b16179055005b602090819592953d831161076d575b61075a8183613116565b8101031261076957925f610693565b5f80fd5b503d610750565b6040513d5f823e3d90fd5b92506020833d6020116107ad575b8161079a60209383613116565b8101031261076957915191610628610610565b3d915061078d565b90506020813d6020116107e1575b816107d060209383613116565b8101031261076957516104a2610485565b3d91506107c3565b34610769575f36600319011261076957602060155460801c604051908152f35b34610769575f36600319011261076957602063ffffffff600c5460301c16604051908152f35b3461076957602036600319011261076957610848613266565b60020b5f526018602052606060405f20805490600260018201549101549060405192835260208301526040820152f35b34610769576020366003190112610769576001600160a01b03610899613039565b165f526004602052602060405f2054604051908152f35b34610769576040366003190112610769576108c9613039565b506108d2613023565b5060405163d411f9a960e01b8152600490fd5b34610769575f366003190112610769576020600c5461ffff60405191831c168152f35b34610769575f3660031901126107695760206040516127108152f35b34610769575f366003190112610769576040517f00000000000000000000000000000000000000000000000000000000000000006001600160801b03168152602090f35b34610769575f366003190112610769576020600c5460501c60020b604051908152f35b34610769576020366003190112610769576004355f52601b6020526040805f206001815491015482519182526020820152f35b346107695760203660031901126107695760206109dc6004356146bc565b604051908152f35b3461076957610140366003190112610769576109fe613266565b6024356001600160401b03811161076957610a1d903690600401613145565b6044356001600160401b03811161076957610a3c903690600401613145565b9060e036606319011261076957610a51613530565b600f54600d54604051630681320d60e51b8082526001600160a01b039283166004830152929091169291602082602481875afa918215610774575f9261126e575b50600e546040519182526001600160a01b0316600482015292602090849060249082905afa928315610774575f9361123a575b50601554610add906001600160801b03168483614128565b600c54906001600160801b03808216601084901c61ffff16029081160361122657610b27916127106001600160801b0392831660109290921c61ffff16919091029091160461418c565b610b398660020b9160020b82136133ee565b5f52601860205260405f2092610bf4610bdd610b6561039e6001880154610398610392601354926154ee565b93610bd8610bbd610bae610b9f610b8d610b7e8a615461565b99610b888b6154ee565b6144d3565b610445610b998c613641565b8b613ef4565b966001600160801b0316615a16565b926001600160801b0316615a16565b610bd2610392610bcc896154ee565b946154ee565b92615043565b6150e6565b91610445610bea84615461565b93610b88856154ee565b9061ffff600c5460201c166127100161ffff81116112265761ffff610c199116615a16565b60405191610c26836130e0565b5f835260405192610c368461307c565b600384526060366020860137612710610c4e8561331e565b526006610c5a8561332b565b528351600210156110df575f6060850152604051631888debd60e01b81529360209185918291610c8e9190600484016153f3565b03815f5f80516020615dc08339815191525af1928315610774575f936111ee575b5090610bd8610cca93610bd2610392610bcc610bdd966154ee565b8454829083156111de575b80156111d0575b60405191610ce9836130c5565b600283526040366020850137610cfe8361331e565b52610d088261332b565b526020610d5260405192610d1b846130e0565b5f8452610d646040519485938493631888debd60e01b85526006600486015260146024860152608060448601526084850190613233565b83810360031901606485015290613233565b03815f5f80516020615dc08339815191525af1908115610774575f9161119c575b5061043f610d9c61044592610da295895491613f97565b97613641565b600d5460405163dfc4d7c760e01b815230600482015290602090829060249082906001600160a01b03165afa908115610774575f91611168575b50610dee916104456106289288613ef4565b91610e3060018060a01b03600e5416916040519463c1deeca160e01b865233600487015230602487015260448601526101606064860152610164850190613428565b6064356001600160a01b0381169081900361076957608485015260843560018060a01b0381168091036107695760a485015260a43560c485015260c43560e485015260e4359160ff831680930361076957845f81809460209661010490818401526101249035818401523561014483015203925af1918215610774575f92611132575b50610445610ec49260105490613745565b91610ee5610eda60018401546010549086613f97565b916010549085613f97565b600d54604051631756404160e31b81523360048201526024810183905290602090829060449082905f906001600160a01b03165af1801561077457611107575b50610f34610f3e918454614619565b6010549085613f97565b9060028301948554906040519160408301918383106001600160401b038411176110f357610fb4956001936040528452602084019185835260405190602082019260e81b8352602382015260238152610f96816130c5565b5190205f52601b60205260405f209251835551910155601254614619565b601255610fbf6135f5565b600c805463ffffffff60301b19164260301b63ffffffff60301b16179055610fe5615932565b60405192610ff2846130e0565b5f8452604051936110028561307c565b60038552606036602087013760016110198661331e565b5260066110258661332b565b528451600210156110df575f6060860152604051631888debd60e01b815294602091869182916110599190600484016153f3565b03815f5f80516020615dc08339815191525af1928315610774575f936110a9575b6110a5945061108b81548484613f97565b8155600161109d818301548585613f97565b910155613f97565b9055005b92506020843d6020116110d7575b816110c460209383613116565b81010312610769576110a593519261107a565b3d91506110b7565b634e487b7160e01b5f52603260045260245ffd5b634e487b7160e01b5f52604160045260245ffd5b602090813d831161112b575b61111d8183613116565b810103126107695785610f25565b503d611113565b91506020823d602011611160575b8161114d60209383613116565b8101031261076957905190610445610eb3565b3d9150611140565b90506020813d602011611194575b8161118360209383613116565b810103126107695751610dee610ddc565b3d9150611176565b90506020813d6020116111c8575b816111b760209383613116565b81010312610769575161043f610d85565b3d91506111aa565b506111d9615932565b610cdc565b90506111e8615932565b90610cd5565b9250906020833d60201161121e575b8161120a60209383613116565b810103126107695791519190610bd8610caf565b3d91506111fd565b634e487b7160e01b5f52601160045260245ffd5b9092506020813d602011611266575b8161125660209383613116565b8101031261076957519185610ac5565b3d9150611249565b9091506020813d60201161129b575b8161128a60209383613116565b810103126107695751906020610a92565b3d915061127d565b3461076957610160366003190112610769576112bd613039565b6112c5613023565b90604435906064356001600160401b038111610769576112e9903690600401613145565b9260e0366083190112610769576113206109dc93611317611311876103cd6020995188613bc8565b82613ef4565b90610423615932565b91613cd4565b34610769575f366003190112610769576020601454604051908152f35b34610769575f366003190112610769576020601354604051908152f35b3461076957610120366003190112610769576004356001600160401b03811161076957611391903690600401613145565b611399613023565b9060e0366043190112610769576113b2906103cd613530565b906113bc826146bc565b6001600160a01b037f0000000000000000000000000000000000000000000000000000000000000000811693909290916113f685846151cb565b6040519063186824b360e21b825233600483015230602483015283604483015260443585811680910361076957606483015260643585811680910361076957608483015260843560a483015260a43560c483015260c4359560ff8716809703610769575f9660e484015261010460e435818501523561012484015282610144816020998a945af18015610774575f90611672575b6114a692506114a161149a615932565b8092614bbd565b613f97565b928116801561165a577f40a03cb7753ac431404d7dabd793114244b9504f18ba3f66c2d1244bc117ca0e9260809260055461ffff90816114e7818316615d4c565b1661ffff19809216176005556114ff88600654615556565b600655845f52600489526115178860405f2054615556565b855f5260048a5260405f2055600389526115368260405f205416615d4c565b91855f5260038a5260405f209216908254161790555f80526004875260405f20548061162e575b50825f526004875260405f20549081611600575b505061157d3386614e5b565b611588600654615d7f565b815f5f80516020615de083398151915288600a54604051908152a3815f5f80516020615e0083398151915288604051898152a360405191338352868301526040820152836060820152a16115da6135f5565b600c805463ffffffff60301b19164260301b63ffffffff60301b16179055604051908152f35b61160c61162792615d7f565b835f52600488526116218160405f2054614e5b565b86614e5b565b8680611571565b61163790615d7f565b5f80526004875261164b60405f2054614e0a565b61165486614e0a565b8761155d565b60405163ec442f0560e01b81525f6004820152602490fd5b508582813d831161169a575b6116888183613116565b81010312610769576114a6915161148a565b503d61167e565b346107695760403660031901126107695760206109dc6116bf613039565b6024359033613cd4565b34610769575f36600319011261076957335f908152600360205260409020805461ffff19169055005b34610769575f36600319011261076957600d546040516001600160a01b039091168152602090f35b3461076957604036600319011261076957611733613039565b6024356001600160401b0381116107695760209161175b6103cd6109dc933690600401613145565b9033613cd4565b613063565b346107695761016036600319011261076957611781613039565b611789613023565b606435916044359160e0366083190112610769576113206109dc936113178661131160209887613bc8565b613218565b34610769575f366003190112610769576020600654604051908152f35b34610769575f366003190112610769576040516008545f826117f783613276565b91828252602093600190856001821691825f1461187a57505060011461183d575b5061182592500383613116565b611839604051928284938452830190612fff565b0390f35b84915060085f52815f20905f915b858310611862575050611825935082010185611818565b8054838901850152879450869390920191810161184b565b60ff19168582015261182595151560051b85010192508791506118189050565b34610769575f36600319011261076957600e5460405163dfc4d7c760e01b815230600482015290602090829060249082906001600160a01b03165afa908115610774575f91611907575b60406118ef83613e62565b82516001600160801b03909216825215156020820152f35b90506020813d602011611933575b8161192260209383613116565b8101031261076957516118ef6118e4565b3d9150611915565b34610769575f36600319011261076957602061ffff600c5460101c16604051908152f35b34610769575f366003190112610769576015546040516001600160801b039091168152602090f35b34610769575f366003190112610769576020601654604051908152f35b34610769575f36600319011261076957611a3d6119e07f0000000000000000000000000000000000000000000000000000000000000000615675565b611839611a0c7f000000000000000000000000000000000000000000000000000000000000000061574c565b611a4b60405191611a1c836130e0565b5f8352604051958695600f60f81b875260e0602088015260e0870190612fff565b908582036040870152612fff565b904660608501523060808501525f60a085015283820360c0850152613233565b34610769576020366003190112610769576001600160a01b03611a8c613039565b165f526002602052602060405f2054604051908152f35b34610769575f36600319011261076957600f546040516001600160a01b039091168152602090f35b34610769576020366003190112610769576001600160a01b03611aec613039565b165f52600360205260206109dc61ffff60405f205416600a54906132ae565b34610769576020366003190112610769576001600160a01b03611b2c613039565b165f52601c602052602060405f2054604051908152f35b346107695761014036600319011261076957611b5d613039565b611b65613023565b906044356001600160401b03811161076957611b85903690600401613145565b9060e036606319011261076957602092611320836103cd6109dc955185613a15565b346107695761014036600319011261076957611bc1613039565b611bc9613023565b9060443560e03660631901126107695760209282611bea836109dc95613a15565b613cd4565b34610769575f366003190112610769576040517f00000000000000000000000000000000000000000000000000000000000000006001600160801b03168152602090f35b34610769576020366003190112610769576004358060010b809103610769575f526019602052602060405f2054604051908152f35b34610769576020366003190112610769576004355f52601a602052608060405f208054906001810154906003600282015491015491604051938452602084015260408301526060820152f35b34610769575f366003190112610769576020600a54604051908152f35b34610769575f3660031901126107695760206109dc613381565b34610769575f36600319011261076957600e546040516001600160a01b039091168152602090f35b3461076957604036600319011261076957611d67611d2f613039565b611d376132fa565b5060018060a01b0381165f52601c602052611d5760243560405f20615626565b90549060031b1c60020b9061563b565b5f52601a6020526080611d7c60405f2061334f565b611da76040518092606080918051845260208101516020850152604081015160408501520151910152565bf35b34610769575f36600319011261076957602061ffff600c5416604051908152f35b34610769575f366003190112610769576040517f00000000000000000000000000000000000000000000000000000000000000006001600160a01b03168152602090f35b34610769575f3660031901126107695760206109dc6138d1565b34610769575f3660031901126107695760ff7f00000000000000000000000000000000000000000000000000000000000000001660ff811161122657602090604051908152f35b346107695760208060031936011261076957611e89613039565b6001600160a01b0381165f818152601c80855260409091205491939290611eaf836132e3565b94611ebd6040519687613116565b838652611ec9846132e3565b601f1901855f5b828110611fa1575050505f5b848110611f4a5760408051878152885181890181905289890192820190895f5b828110611f095784840385f35b90919282608082611f3b6001948a51606080918051845260208101516020850152604081015160408501520151910152565b01960191019492919094611efc565b600190825f52838752611f73611f638260405f20615626565b90549060031b1c60020b8661563b565b5f52601a8752611f8560405f2061334f565b611f8f828a61333b565b52611f9a818961333b565b5001611edc565b611fa96132fa565b82828b010152018690611ed0565b34610769576060366003190112610769576108c9613039565b34610769575f366003190112610769576020601754604051908152f35b34610769576080366003190112610769576004356001600160401b0381116107695761201d9036906004016131e8565b906024356001600160401b0381116107695761203d9036906004016131e8565b90926044356001600160401b0381116107695761205e9036906004016131e8565b906001600160401b036064351161076957366023606435011215610769576001600160401b0360643560040135116107695736602460e060643560040135026064350101116107695783831480612bc0575b80612bb1575b15612b7c576120c36159a4565b925f5b81811061297e57506040516120da816130e0565b5f8152604051906120ea8261307c565b60038252606036602084013760016121018361331e565b52600261210d8361332b565b528151600210156110df575f6060830152604051631888debd60e01b815291602091839182916121419190600484016153c0565b03815f5f80516020615dc08339815191525af1908115610774575f9161294c575b5080851561293c575b1561292e575b6040519461217e866130c5565b6002865260403660208801376121938661331e565b5261219d8561332b565b526020610d52604051956121b0876130e0565b5f87526121e76040519788938493631888debd60e01b85526002600486015260186024860152608060448601526084850190613233565b03815f5f80516020615dc08339815191525af1938415610774575f946128fa575b505f5b81811061221457005b61221f8183896132c1565b90868110156110df57600581901b890135600281900b9003610769576122468186866132c1565b606435600401358210156110df5761226f610325600c5460501c60020b8460051b8d013561345f565b612277613530565b600f54600d54604051630681320d60e51b81526001600160a01b0391821660048201529116602082602481845afa918215610774575f926128c6575b50602060018060a01b03600e5416602460405180948193630681320d60e51b835260048301525afa908115610774575f91612892575b5060155461234592612332926001600160801b039261230c929084169190614128565b600c546001600160801b03926127109261232b9261ffff1691166132ae565b041661418c565b60020b8360051b8c013560020b126133ee565b896123558360051b8201356146f5565b916123716103cd6123696103cd3685613145565b963690613145565b906123976103ac6123906103ac6013546103a6610392610404896154ee565b9586614c60565b8560051b84013560020b5f5260186020526123bc60405f20948760051b01353361563b565b5f52601a60205260405f2096875461285b576123f46123e18d61044560249486613ef4565b61044560038b0154600289015490614bbd565b600e5460405163dfc4d7c760e01b81523060048201529260209184919082906001600160a01b03165afa918215610774575f92612825575b5061044561243a9286613ef4565b61244686601254615556565b604051908160608101106001600160401b036060840111176110f3576104456124b28b6104458b886124ad6124a76124bc9a8f85858d60026106289f94606061044596016040528054835260018101546020840152015460408201526155f9565b9461334f565b6155f9565b9160125490614576565b600d549092906124d5906001600160a01b031684614e5b565b600d5460405163c1deeca160e01b81523360048201523060248201526044810194909452610160606485015281356101648501526001600160a01b03169061251f60208201613137565b9060ff8092166101848601528161253860408301613137565b166101a48601526060810135601e1982360301811215610769570191602083359301916001600160401b038411610769578336038313610769575f869384602096819460e08f60806101c4860152836101e486015283610204968787013784840186018790526001600160a01b036125b86064358385020160240161304f565b1660848601526125d06044838302606435010161304f565b6001600160a01b031660a48681019190915260648035838502019081013560c480890191909152608482013560e4808a019190915295909290916126149101613137565b16610104870152910260643501908101356101248501520135610144830152601f01601f191681010301925af1918215610774575f926127ef575b506126ca6126775f9461266d61062860209561044560105489613745565b9760105491613f97565b600e54909690612690906001600160a01b031682614e5b565b600e54604051631756404160e31b81523360048201526024810192909252909485926001600160a01b039092169183919082906044820190565b03925af1918215610774578d926127bc575b50946106fd8361276d61277394896126fb60019b61277b9a9954615556565b845561270a888c860154615556565b8b8501556002840154156127aa575b8a8060801b03601554166127336002860154928854615556565b87558b87016127438a8254615556565b905560028701556003860155335f52601c60205262ffffff60405f20918a60051b01351690615bbd565b50614eb2565b601254615556565b6012556127866135f5565b63ffffffff60301b4260301b1663ffffffff60301b19600c541617600c550161220b565b6127b2615932565b6002850155612719565b60208092959493503d83116127e8575b6127d68183613116565b810103126107695790918b908d6126dc565b503d6127cc565b9091506020813d60201161281d575b8161280b60209383613116565b810103126107695751906126ca61264f565b3d91506127fe565b91506020823d602011612853575b8161284060209383613116565b810103126107695790519061044561242c565b3d9150612833565b60405162461bcd60e51b815260206004820152600f60248201526e24b73b30b634b22837b9b4ba34b7b760891b6044820152606490fd5b90506020813d6020116128be575b816128ad60209383613116565b8101031261076957516123456122e9565b3d91506128a0565b9091506020813d6020116128f2575b816128e260209383613116565b810103126107695751908c6122b3565b3d91506128d5565b9093506020813d602011612926575b8161291660209383613116565b8101031261076957519287612208565b3d9150612909565b506129376159a4565b612171565b94506129466159a4565b9461216b565b90506020813d602011612976575b8161296760209383613116565b81010312610769575188612162565b3d915061295a565b936129cc6129c761299c6103cd366129978a888e6132c1565b613145565b6104456129b16103cd366129978c8c8c6132c1565b6129bf601093845490613745565b925490613745565b615b98565b6020610d52604051926129de846130aa565b6001845282368186013760026129f38561331e565b52612a286040519485938493631888debd60e01b85526002600486015260026024860152608060448601526084850190613233565b03815f5f80516020615dc08339815191525af1908115610774575f91612b4a575b50808215612b3a575b15612b2c575b60405191612a65836130c5565b600283526040366020850137612a7a8361331e565b52612a848261332b565b526020610d5260405192612a97846130e0565b5f8452612ace6040519485938493631888debd60e01b85526002600486015260086024860152608060448601526084850190613233565b03815f5f80516020615dc08339815191525af18015610774575f90612af9575b6001915094016120c6565b506020813d602011612b24575b81612b1360209383613116565b810103126107695760019051612aee565b3d9150612b06565b50612b356159a4565b612a58565b9150612b446159a4565b91612a52565b90506020813d602011612b74575b81612b6560209383613116565b81010312610769575189612a49565b3d9150612b58565b60405162461bcd60e51b815260206004820152600d60248201526c092dcecc2d8d2c898cadccee8d609b1b6044820152606490fd5b506064356004013582146120b6565b508184146120b0565b34610769575f366003190112610769576020601254604051908152f35b34610769575f3660031901126107695760206109dc61ffff60055416600a54906132ae565b3461076957610140366003190112610769576004356001600160401b03811161076957612c3c903690600401613145565b612c44613023565b6001600160a01b0360443581811693928482036107695760e036606319011261076957612c6f613530565b612c7884613641565b945f612c83876134c1565b95823303612f49575b612c94615932565b838352612cc18160209a60048c52612cbb82612cb4604089205484613ef4565b9c8d613f97565b9a613f97565b5088612d25887f000000000000000000000000000000000000000000000000000000000000000016612cf3818c6151cb565b604051631756404160e31b81526001600160a01b0389166004820152602481018c905295869283919082906044820190565b03925af1928315610774575f93612f18575b50610423612d4882612d4e95614bbd565b92613641565b908015612f00577fd54f94fb7ed9e89d9722d16ca9701850b67cd94dc8ab3f699edb8317015bec8b945f825f80516020615e008339815191528a60a09883855260048252612dac612da360408720548a613ef4565b89610423615932565b9084865260048352612dc2826040882054614619565b8587526004845260408720556003835261ffff612de481604089205416615d1a565b86885260038552604088208261ffff1992168282541617905560055491612e0c818416615d1a565b16911617600555612e1f82600654614619565b6006558486526004835260408620549081612ed2575b505084805260048252604085205480612ea6575b50612e543382614e5b565b612e5f600654615d7f565b84845f80516020615de083398151915284600a54604051908152a3604051908152a360405193338552168784015260408301528460608301526080820152a16115da6135f5565b612eaf90615d7f565b84805260048252612ec36040862054614e0a565b612ecc81614e0a565b8d612e49565b612ede612ef992615d7f565b85875260048452612ef3816040892054614e5b565b82614e5b565b8d80612e35565b604051634b637e8f60e11b81525f6004820152602490fd5b92508883813d8311612f42575b612f2f8183613116565b8101031261076957915191610423612d37565b503d612f25565b612f54815186613a15565b612c8c565b346107695760203660031901126107695760206109dc6004356134c1565b34610769575f366003190112610769576007545f82612f9583613276565b91828252602093600190856001821691825f1461187a575050600114612fc2575061182592500383613116565b84915060075f52815f20905f915b858310612fe7575050611825935082010185611818565b80548389018501528794508693909201918101612fd0565b805180835260209291819084018484015e5f828201840152601f01601f1916010190565b602435906001600160a01b038216820361076957565b600435906001600160a01b038216820361076957565b35906001600160a01b038216820361076957565b34610769576040366003190112610769576108d2613039565b608081019081106001600160401b038211176110f357604052565b6001600160401b0381116110f357604052565b604081019081106001600160401b038211176110f357604052565b606081019081106001600160401b038211176110f357604052565b602081019081106001600160401b038211176110f357604052565b60e081019081106001600160401b038211176110f357604052565b90601f801991011681019081106001600160401b038211176110f357604052565b359060ff8216820361076957565b9190608083820312610769576040519261315e8461307c565b83813581526020613170818401613137565b8183015261318060408401613137565b604083015260608301356001600160401b039384821161076957019084601f830112156107695781359384116110f357604051946131c7601f8601601f1916830187613116565b8486528185840101116107695783606094825f940183880137850101520152565b9181601f84011215610769578235916001600160401b038311610769576020808501948460051b01011161076957565b34610769575f36600319011261076957602060405160018152f35b9081518082526020808093019301915f5b828110613252575050505090565b835185529381019392810192600101613244565b600435908160020b820361076957565b90600182811c921680156132a4575b602083101461329057565b634e487b7160e01b5f52602260045260245ffd5b91607f1691613285565b8181029291811591840414171561122657565b91908110156110df5760051b81013590607e1981360301821215610769570190565b6001600160401b0381116110f35760051b60200190565b604051906133078261307c565b5f6060838281528260208201528260408201520152565b8051156110df5760200190565b8051600110156110df5760400190565b80518210156110df5760209160051b010190565b9060405161335c8161307c565b6060600382948054845260018101546020850152600281015460408501520154910152565b63ffffffff600c5460301c168042115f146133dc576103ac61039e6133cb6133d9936133c5601654916133bf6133ba601754924261417f565b615a16565b906157ec565b90615556565b6103986103926006546154ee565b90565b506133d96103ac61039e6016546133cb565b156133f557565b60405162461bcd60e51b815260206004820152600b60248201526a496e76616c69645469636b60a81b6044820152606490fd5b90608060606133d9938051845260ff602082015116602085015260ff60408201511660408501520151918160608201520190612fff565b9060020b9081156134715760020b0790565b634e487b7160e01b5f52601260045260245ffd5b1561348c57565b60405162461bcd60e51b815260206004820152600d60248201526c151a58dad39bdd14dc1858d959609a1b6044820152606490fd5b6133d9906135286135226135156135076134f26134e46134df613381565b6154ee565b6134ec615a47565b90614efd565b610398613501600b5483614fa0565b966154ee565b6103a66134e46006546154ee565b92610445600b5485614fa0565b91615461565b610423615932565b63ffffffff80600c5460301c1642036135465750565b6135716013546133c561355d60155460801c615a16565b6133bf6133ba86600c5460301c164261417f565b6013556135946016546133c56017546133bf6133ba86600c5460301c164261417f565b601655601554906135ca6135c26135b960018060801b0393600c5460301c164261417f565b8460801c6132ae565b8284166146e8565b6001600160801b03199092169116176015556013546135e890615189565b6135f3601654615189565b565b6135fd615215565b6135f361363860065461362f61361560105483613745565b9161362a6012546133bf60155460801c615a16565b61588f565b60175491613f97565b80601755615189565b60409060ff828201511660068103613727575060606136c8918351906136668261307c565b5f825282602093835f86809601525f888201520152805190606060ff8483015116910151908651926136978461307c565b83528383015260068683015260608201528451809481926313fce3b160e11b83528760048401526044830190613428565b33602483015203815f5f80516020615dc08339815191525af192831561371e57505f926136f457505090565b90809250813d8311613717575b61370b8183613116565b81010312610769575190565b503d613701565b513d5f823e3d90fd5b6044908351906367cf307160e01b8252600482015260066024820152fd5b90811561381f575b8015613811575b60405191613761836130c5565b6002835260403660208501376137768361331e565b526137808261332b565b526020610d5260405192613793846130e0565b5f84526137ca6040519485938493631888debd60e01b85526006600486015260156024860152608060448601526084850190613233565b03815f5f80516020615dc08339815191525af1908115610774575f916137ee575090565b90506020813d602011613809575b8161370b60209383613116565b3d91506137fc565b5061381a615932565b613754565b9050613829615932565b9061374d565b9081156138c1575b80156138b3575b6040519161384b836130c5565b6002835260403660208501376138608361331e565b5261386a8261332b565b526020610d526040519261387d846130e0565b5f84526137ca6040519485938493631888debd60e01b85525f6004860152600a6024860152608060448601526084850190613233565b506138bc615aba565b61383e565b90506138cb615aba565b90613837565b307f00000000000000000000000000000000000000000000000000000000000000006001600160a01b031614806139d2575b1561392c577f000000000000000000000000000000000000000000000000000000000000000090565b60405160208101907f8b73c3c69bb8fe3d512ecc4cf759cc79239f7b179b0ffacaa9a75d522b39400f82527f000000000000000000000000000000000000000000000000000000000000000060408201527f000000000000000000000000000000000000000000000000000000000000000060608201524660808201523060a082015260a0815260c081018181106001600160401b038211176110f35760405251902090565b507f00000000000000000000000000000000000000000000000000000000000000004614613903565b6001600160a01b0391821681529116602082015260400190565b9060c43591824211613baf57606435926001600160a01b039283851692838603610769578385821603613b905750608435918483169283810361076957833303613b72575060a4359161ffff83821811613b5457509060429291845f52600260205260405f208054906001820190556040519260208401947f93d8009bee40988d1c028b4098d01ce80031d9f6d397b9d85bbf53f8390279df86528760408601526060850152608084015260a083015260c082015260c08152613ad7816130fb565b519020613ae26138d1565b906040519161190160f01b835260028301526022820152209160e4359260ff8416840361076957613b2993613b209161012435916101043591615c1f565b90949194615c97565b821603613b34575050565b613b506040519283926325c0072360e11b8452600484016139fb565b0390fd5b604490836040519163112139c560e01b835260048301526024820152fd5b60405163ae8c825f60e01b8152908190613b509033600484016139fb565b6040516312441e3960e21b8152908190613b50908890600484016139fb565b60405163313c898160e11b815260048101849052602490fd5b9060e43591824211613baf57608435926001600160a01b039283851692838603610769578385821603613b90575060a435918483169283810361076957833303613b72575060c4359161ffff83821811613b5457509060429291845f52600260205260405f208054906001820190556040519260208401947f93d8009bee40988d1c028b4098d01ce80031d9f6d397b9d85bbf53f8390279df86528760408601526060850152608084015260a083015260c082015260c08152613c8a816130fb565b519020613c956138d1565b906040519161190160f01b8352600283015260228201522091610104359260ff8416840361076957613b2993613b209161014435916101243591615c1f565b916001600160a01b0380841691908215612f0057831692831561165a575f80516020615e0083398151915291835f526004602092818452613d1e604093611317855f205482613ef4565b97865f52828552613d3289855f2054614619565b875f52838652845f20556003855261ffff613d5181865f205416615d1a565b885f5260038752855f208261ffff19921682825416179055895f52848752613d7c8b875f2054615556565b8a5f52858852865f205560038752613d9882875f205416615d4c565b918a5f5260038852865f20921690825416179055865f52828552835f20549081613e36575b5050865f52818452825f20549182613e0a575b505050613ddd3387614e5b565b613de8600654615d7f565b84845f80516020615de083398151915284600a548551908152a351858152a390565b613e16613e2e93615d7f565b875f528452613e2881845f2054614e5b565b87614e5b565b5f8080613dd0565b613e42613e5b92615d7f565b875f52838652613e5581865f2054614e5b565b89614e5b565b5f80613dbd565b90604080519263458693c960e01b8452600484015280836024815f80516020615dc08339815191525afa928315613eea575f915f94613eab575b50506001600160801b03169190565b8194508092503d8311613ee3575b613ec38183613116565b810103126107695760208251920151918215158303610769575f80613e9c565b503d613eb9565b50513d5f823e3d90fd5b908115613f87575b8015613f79575b60405191613f10836130c5565b600283526040366020850137613f258361331e565b52613f2f8261332b565b526020610d5260405192613f42846130e0565b5f84526137ca6040519485938493631888debd60e01b85526006600486015260136024860152608060448601526084850190613233565b50613f82615932565b613f03565b9050613f91615932565b90613efc565b91908215614051575b8015614043575b8115614033575b60405192613fbb8461307c565b600384526060366020860137613fd08461331e565b52613fda8361332b565b528151600210156110df5760608201526020610d5260405192613ffc846130e0565b5f84526137ca6040519485938493631888debd60e01b85526006600486015260046024860152608060448601526084850190613233565b905061403d615932565b90613fae565b5061404c615932565b613fa7565b915060405161405f816130e0565b5f81526040519061406f8261307c565b6003825260603660208401375f6140858361331e565b525f6140908361332b565b528151600210156110df575f6060830152604051631888debd60e01b815291602091839182916140c491906004840161543d565b03815f5f80516020615dc08339815191525af1908115610774575f916140ec575b5091613fa0565b90506020813d602011614116575b8161410760209383613116565b8101031261076957515f6140e5565b3d91506140fa565b8115613471570490565b9190918060501b90808204600160501b1490151715611226576001600160801b03928391614156919061411e565b1690670de0b6b3a7640000918281029281840414901517156112265761417b9161411e565b1690565b9190820391821161122657565b6001600160801b03908082169064010001d8f9821015806144c0575b15614497576601000000000000600160b01b039060301b16908183831160071b9280841c916001600160401b03831160061b92831c9463ffffffff861160051b95861c9360049661ffff8611881b95861c60ff9687821160031b91821c92600f841160021b93841c94600160038711811b96871c1196171717171717179160808310155f146144835750607e198201828111614470571c5b607f19820191821360011661445d578002607f928392828493841c81841c1c800280851c81851c1c800280861c81861c1c800280871c81871c1c80029081881c82881c1c80029283891c84891c1c800294858a1c868a1c1c800296878b1c888b1c1c800298898c1c8a8c1c1c80029a8b8d1c8c821c1c8002809d1c8d821c1c8002809e81901c90821c1c80029e8f80911c911c1c800260cd1c6604000000000000169d60cc1c6608000000000000169c60cb1c6610000000000000169b60ca1c6620000000000000169a60c91c6640000000000000169960c81c66800000000000001698600160381b9060c71c1697600160391b9060c61c16966001603a1b9060c51c16956001603b1b9060c41c16946001603c1b9060c31c16936001603d1b9060c21c16926001603e1b9060c11c16916001603f1b9060c01c169060401b1717171717171717171717171717691b13d180eb8b720000009081810291818305149015171561444a576f028f6481ab7f045a5af012a19d003aa91981016001828213166144375760801d60020b926fdb2df09e81959a81455e260799a0632f915f8382019384129112908015821691151617614424575060801d60020b9282840361440c575050905090565b614415846146f5565b161161441f575090565b905090565b601190634e487b7160e01b5f525260245ffd5b601184634e487b7160e01b5f525260245ffd5b601183634e487b7160e01b5f525260245ffd5b601185634e487b7160e01b5f525260245ffd5b601186634e487b7160e01b5f525260245ffd5b905081607f03607f8111614470571b614240565b60405162461bcd60e51b81526020600482015260016024820152602960f91b6044820152606490fd5b50661fffc4e14bc685604b1b82106141a8565b908115614566575b8015614558575b604051916144ef836130c5565b6002835260403660208501376145048361331e565b5261450e8261332b565b526020610d5260405192614521846130e0565b5f84526137ca6040519485938493631888debd60e01b85526008600486015260186024860152608060448601526084850190613233565b50614561615b66565b6144e2565b9050614570615b66565b906144db565b908115614609575b80156145fb575b60405191614592836130c5565b6002835260403660208501376145a78361331e565b526145b18261332b565b526020610d52604051926145c4846130e0565b5f84526137ca6040519485938493631888debd60e01b85526006600486015260126024860152608060448601526084850190613233565b50614604615932565b614585565b9050614613615932565b9061457e565b9081156146ac575b801561469e575b60405191614635836130c5565b60028352604036602085013761464a8361331e565b526146548261332b565b526020610d5260405192614667846130e0565b5f84526137ca6040519485938493631888debd60e01b85526006600486015260076024860152608060448601526084850190613233565b506146a7615932565b614628565b90506146b6615932565b90614621565b6133d9906135286135226135156146da6134f26134e46006546154ee565b6103a66134e46134df613381565b9190820180921161122657565b60020b5f811215614bb757600160ff1b811461122657805f035b620513b78111614b8e576001811615614b84576ffff97272373d413259a46990580e213a5b6001600160881b03169160028216614b58575b600491828116614b2c575b60088116614b00575b60108116614ad4575b60208116614aa8575b60408116614a7c575b608090818116614a51575b6101008116614a26575b61020081166149fb575b61040081166149d0575b61080081166149a5575b611000811661497a575b612000811661494f575b6140008116614924575b61800081166148f9575b6201000081166148cf575b6202000081166148a6575b62040000811661487f575b620800001661485b575b505f12614838575b5065ffffffffffff811661482d5761417b5f915b6001600160801b039260ff169060301c6146e8565b61417b600191614818565b811561484857505f19045f614804565b601290634e487b7160e01b5f525260245ffd5b66149b34ee7ac2639391939182810292818404149015171561444a571c915f6147fc565b936b048a170391f7dc42444e8fa29081810291818304149015171561443757811c936147f2565b936d2216e584f5fa1ea926041bedfe989081810291818304149015171561443757811c936147e7565b936e5d6af8dedb81196699c329225ee6049081810291818304149015171561443757811c936147dc565b936f09aa508b5b7a84e1c677de54f3e99bc99081810291818304149015171561443757811c936147d1565b936f31be135f97d08fd981231505542fcfa69081810291818304149015171561443757811c936147c7565b936f70d869a156d2a1b890bb3df62baf32f79081810291818304149015171561443757811c936147bd565b936fa9f746462d870fdf8a65dc1f90e061e59081810291818304149015171561443757811c936147b3565b936fd097f3bdfd2022b8845ad8f792aa58259081810291818304149015171561443757811c936147a9565b936fe7159475a2c29b7443b29c7fa6e889d99081810291818304149015171561443757811c9361479f565b936ff3392b0822b70005940c7a398e4b70f39081810291818304149015171561443757811c93614795565b936ff987a7253ac413176f2b074cf7815e549081810291818304149015171561443757811c9361478b565b936ffcbe86c7900a88aedcffc83b479aa3a49081810291818304149015171561443757811c93614781565b926ffe5dee046a99a2a811c461f1969c30539081810291818304149015171561444a5760801c92614776565b926fff2ea16466c96a3843ec78b326b528619081810291818304149015171561444a5760801c9261476d565b926fff973b41fa98c081472e6896dfb254c09081810291818304149015171561444a5760801c92614764565b926fffcb9843d60f6159c9db58835c9266449081810291818304149015171561444a5760801c9261475b565b926fffe5caca7e10e4e61c3624eaa0941cd09081810291818304149015171561444a5760801c92614752565b916ffff2e50f5f656932ef12357cf3c7fdcc908181029181830414901517156112265760801c91614747565b600160801b614734565b60405162461bcd60e51b81526020600482015260016024820152601560fa1b6044820152606490fd5b8061470f565b908115614c50575b8015614c42575b60405191614bd9836130c5565b600283526040366020850137614bee8361331e565b52614bf88261332b565b526020610d5260405192614c0b846130e0565b5f84526137ca6040519485938493631888debd60e01b85526006600486015260186024860152608060448601526084850190613233565b50614c4b615932565b614bcc565b9050614c5a615932565b90614bc5565b614c69906154ee565b906040908151614c78816130e0565b5f8152825190614c878261307c565b6003825260209160603684830137600160501b614ca38261331e565b526008614caf8261332b565b528051600210156110df57805f6060614cde9301528551918291631888debd60e01b9485845260048401615418565b039583825f80516020615dc083398151915298815f8b5af1908115614e00575f91614dcf575b614d0e9250615043565b92845195614d1b876130e0565b5f8752855191614d2a8361307c565b60038352606036868501376001600160801b0316614d478361331e565b526008614d538361332b565b528151600210156110df57614d7f965f85948160608601528851998a9586948593845260048401615418565b03925af192831561371e57505f92614d9d575b506133d992506150e6565b90915082813d8311614dc8575b614db48183613116565b81010312610769576133d99151905f614d92565b503d614daa565b90508382813d8311614df9575b614de68183613116565b8101031261076957614d0e915190614d04565b503d614ddc565b86513d5f823e3d90fd5b5f80516020615dc083398151915290813b15610769575f91604483926040519485938492631974142760e21b845260048401528160248401525af1801561077457614e525750565b6135f390613097565b5f80516020615dc083398151915291823b1561076957604051631974142760e21b815260048101929092526001600160a01b03166024820152905f908290818381604481015b03925af1801561077457614e525750565b60026135f391614ec28154615189565b614ecf6001820154615189565b0154615189565b9060036135f392614ee8838254614e5b565b614ef6836001830154614e5b565b0154614e5b565b908115614f90575b8015614f82575b60405191614f19836130c5565b600283526040366020850137614f2e8361331e565b52614f388261332b565b526020610d5260405192614f4b846130e0565b5f84526137ca6040519485938493631888debd60e01b85526008600486015260086024860152608060448601526084850190613233565b50614f8b615b66565b614f0c565b9050614f9a615b66565b90614f05565b908115615033575b8015615025575b60405191614fbc836130c5565b600283526040366020850137614fd18361331e565b52614fdb8261332b565b526020610d5260405192614fee846130e0565b5f84526137ca6040519485938493631888debd60e01b85526008600486015260146024860152608060448601526084850190613233565b5061502e615b66565b614faf565b905061503d615b66565b90614fa8565b9081156150d6575b80156150c8575b6040519161505f836130c5565b6002835260403660208501376150748361331e565b5261507e8261332b565b526020610d5260405192615091846130e0565b5f84526137ca6040519485938493631888debd60e01b855260086004860152600f6024860152608060448601526084850190613233565b506150d1615b66565b615052565b90506150e0615b66565b9061504b565b908115615179575b801561516b575b60405191615102836130c5565b6002835260403660208501376151178361331e565b526151218261332b565b526020610d5260405192615134846130e0565b5f84526137ca6040519485938493631888debd60e01b855260086004860152600d6024860152608060448601526084850190613233565b50615174615b66565b6150f5565b9050615183615b66565b906150ee565b5f80516020615dc083398151915290813b15610769575f91602483926040519485938492631a778f2d60e11b845260048401525af1801561077457614e525750565b5f80516020615dc083398151915291823b15610769576040516346ce4e4960e11b815260048101929092526001600160a01b03166024820152905f90829081838160448101614ea1565b615220601454613e62565b156153bd57601580546001600160801b0390811660809390931b6001600160801b031916929092179055615252613381565b600e5460405163dfc4d7c760e01b815230600482015291929190602090829060249082906001600160a01b03165afa8015610774575f90615389575b6152b091506152a76152a08286613745565b9185614619565b60105491613f97565b817f0000000000000000000000000000000000000000000000000000000000000000169182817f00000000000000000000000000000000000000000000000000000000000000001603938185116112265761362a6153289461532261531c6133c5956153319916615a16565b91615a16565b946157ec565b80601455615189565b601454801561537b575b5f80516020615dc0833981519152803b1561076957604051630828982760e01b815260048101929092523360248301525f90829081838160448101614ea1565b50615384615932565b61533b565b506020813d6020116153b5575b816153a360209383613116565b81010312610769576152b0905161528e565b3d9150615396565b50565b90916153e56133d99360028452601a6020850152608060408501526080840190613233565b916060818403910152613233565b90916153e56133d99360068452601a6020850152608060408501526080840190613233565b90916153e56133d99360088452601a6020850152608060408501526080840190613233565b90916153e56133d9935f8452601a6020850152608060408501526080840190613233565b61546d610d5291615b98565b6040519061547a826130aa565b60018252602092839182368186013760066154948561331e565b526154c96040519485938493631888debd60e01b85526006600486015260026024860152608060448601526084850190613233565b03815f5f80516020615dc08339815191525af1918215610774575f926136f457505090565b6154fa610d5291615b98565b60405190615507826130aa565b60018252602092839182368186013760086155218561331e565b526154c96040519485938493631888debd60e01b85526008600486015260026024860152608060448601526084850190613233565b9081156155e9575b80156155db575b60405191615572836130c5565b6002835260403660208501376155878361331e565b526155918261332b565b526020610d52604051926155a4846130e0565b5f84526137ca6040519485938493631888debd60e01b85526006600486015260086024860152608060448601526084850190613233565b506155e4615932565b615565565b90506155f3615932565b9061555e565b6104459061561e61560f6133d995948351615556565b61561e60208401958651615556565b925190614576565b80548210156110df575f5260205f2001905f90565b906040519060208201926bffffffffffffffffffffffff199060601b16835260e81b60348201526017815261566f816130aa565b51902090565b60ff81146156b35760ff811690601f82116156a15760405191615697836130aa565b8252602082015290565b604051632cd44ac360e21b8152600490fd5b506040515f815f54916156c583613276565b80835260209360019081811690811561572c57506001146156ef575b50506133d992500382613116565b5f80805285812095935091905b8183106157145750506133d993508201015f806156e1565b855487840185015294850194869450918301916156fc565b9150506133d994925060ff191682840152151560051b8201015f806156e1565b60ff811461576e5760ff811690601f82116156a15760405191615697836130aa565b506040515f816001916001549261578484613276565b908184526020946001811690815f1461572c57506001146157ad5750506133d992500382613116565b9093915060015f52815f20935f915b8183106157d45750506133d993508201015f806156e1565b855487840185015294850194869450918301916157bc565b90811561587f575b8015615871575b60405191615808836130c5565b60028352604036602085013761581d8361331e565b526158278261332b565b526020610d526040519261583a846130e0565b5f84526137ca6040519485938493631888debd60e01b855260066004860152600f6024860152608060448601526084850190613233565b5061587a615932565b6157fb565b9050615889615932565b906157f4565b908115615922575b8015615914575b604051916158ab836130c5565b6002835260403660208501376158c08361331e565b526158ca8261332b565b526020610d52604051926158dd846130e0565b5f84526137ca6040519485938493631888debd60e01b855260066004860152600d6024860152608060448601526084850190613233565b5061591d615932565b61589e565b905061592c615932565b90615897565b60405161593e816130e0565b5f81526040519061594e8261307c565b6003825260603660208401375f6159648361331e565b5260066159708361332b565b528151600210156110df575f6060830152604051631888debd60e01b815291602091839182916137ca9190600484016153f3565b6040516159b0816130e0565b5f8152604051906159c08261307c565b6003825260603660208401375f6159d68361331e565b5260026159e28361332b565b528151600210156110df575f6060830152604051631888debd60e01b815291602091839182916137ca9190600484016153c0565b604051615a22816130e0565b5f815260405191615a328361307c565b6003835260603660208501376159648361331e565b604051615a53816130e0565b5f815260405190615a638261307c565b6003825260603660208401376001615a7a8361331e565b526008615a868361332b565b528151600210156110df575f6060830152604051631888debd60e01b815291602091839182916137ca919060048401615418565b604051615ac6816130e0565b5f815260405190615ad68261307c565b6003825260603660208401376001615aed8361331e565b525f615af88361332b565b528151600210156110df575f6060830152604051631888debd60e01b815291602091839182916137ca91906004840161543d565b604051615b38816130e0565b5f815260405190615b488261307c565b600382526060366020840137670de0b6b3a7640000615a7a8361331e565b604051615b72816130e0565b5f815260405190615b828261307c565b6003825260603660208401375f615a7a8361331e565b60405190615ba5826130aa565b6001825260203681840137615bb98261331e565b5290565b6001810190825f528160205260405f2054155f14615c18578054600160401b8110156110f357806001615bf39201835582615626565b81549060031b9085821b915f19901b191617905554915f5260205260405f2055600190565b5050505f90565b91906fa2a8918ca85bafe22016d0b997e4df60600160ff1b038411615c8c579160209360809260ff5f9560405194855216868401526040830152606082015282805260015afa15610774575f516001600160a01b03811615615c8257905f905f90565b505f906001905f90565b5050505f9160039190565b6004811015615d065780615ca9575050565b60018103615cc35760405163f645eedf60e01b8152600490fd5b60028103615ce45760405163fce698f760e01b815260048101839052602490fd5b600314615cee5750565b602490604051906335e2f38360e21b82526004820152fd5b634e487b7160e01b5f52602160045260245ffd5b61ffff80911680158015615d42575b615d3a575f19019081116112265790565b505061138790565b5060018114615d29565b61ffff80911680158015615d74575b615d6c576001019081116112265790565b505061138990565b5061270f8114615d5b565b5f80516020615dc0833981519152803b1561076957604051631974142760e21b815260048101929092523060248301525f90829081838160448101614ea156fe000000000000000000000000ea30c4b8b44078bbf8a6ef5b9f1ec1626c7848d9ddf252ad1be2c89b69c2b068fc378daa952ba7f163c4a11628f55a4df523b3ef27717e7ab7bb4c260a567a3e9e1800d1d1d9f9dda250385529cb585b7f549e94a26469706673582212202e6d003054daea2c0afb61581a0f1fc7e004d3c050d610e75337a2607e2f5a2264736f6c63430008190033000000000000000000000000ea30c4b8b44078bbf8a6ef5b9f1ec1626c7848d9a66cc928b5edb82af9bd49922954155ab7b0942694bea4ce44661d9a8736c688f3f7a9fe364faab93b216da50a3214154f22a0a2b415b23a84c8169e8b636ee3",
  "linkReferences": {},
  "deployedLinkReferences": {}
}