{
  "_format": "hh-sol-artifact-1",
  "contractName": "MarketFHE",
  "sourceName": "contracts/MarketFHE.sol",
  "abi": [
    {
      "inputs": [
        {
          "internalType": "string",
          "name": "name",
          "type": "string"
        },
        {
          "internalType": "string",
          "name": "symbol",
          "type": "string"
        },
        {
          "internalType": "address",
          "name": "_collateralToken",
          "type": "address"
        },
        {
          "internalType": "address",
          "name": "_borrowToken",
          "type": "address"
        },
        {
          "internalType": "uint16",
          "name": "_maxLtvBasisPoint",
          "type": "uint16"
        },
        {
          "internalType": "int24",
          "name": "_tickSpacing",
          "type": "int24"
        },
        {
          "internalType": "contract IOracle",
          "name": "_oracle",
          "type": "address"
        }
      ],
      "stateMutability": "nonpayable",
      "type": "constructor"
    },
    {
      "inputs": [],
      "name": "ECDSAInvalidSignature",
      "type": "error"
    },
    {
      "inputs": [
        {
          "internalType": "uint256",
          "name": "length",
          "type": "uint256"
        }
      ],
      "name": "ECDSAInvalidSignatureLength",
      "type": "error"
    },
    {
      "inputs": [
        {
          "internalType": "bytes32",
          "name": "s",
          "type": "bytes32"
        }
      ],
      "name": "ECDSAInvalidSignatureS",
      "type": "error"
    },
    {
      "inputs": [
        {
          "internalType": "address",
          "name": "spender",
          "type": "address"
        },
        {
          "internalType": "uint256",
          "name": "allowance",
          "type": "uint256"
        },
        {
          "internalType": "uint256",
          "name": "needed",
          "type": "uint256"
        }
      ],
      "name": "ERC20InsufficientAllowance",
      "type": "error"
    },
    {
      "inputs": [
        {
          "internalType": "address",
          "name": "sender",
          "type": "address"
        },
        {
          "internalType": "uint256",
          "name": "balance",
          "type": "uint256"
        },
        {
          "internalType": "uint256",
          "name": "needed",
          "type": "uint256"
        }
      ],
      "name": "ERC20InsufficientBalance",
      "type": "error"
    },
    {
      "inputs": [
        {
          "internalType": "address",
          "name": "approver",
          "type": "address"
        }
      ],
      "name": "ERC20InvalidApprover",
      "type": "error"
    },
    {
      "inputs": [
        {
          "internalType": "address",
          "name": "receiver",
          "type": "address"
        }
      ],
      "name": "ERC20InvalidReceiver",
      "type": "error"
    },
    {
      "inputs": [
        {
          "internalType": "address",
          "name": "sender",
          "type": "address"
        }
      ],
      "name": "ERC20InvalidSender",
      "type": "error"
    },
    {
      "inputs": [
        {
          "internalType": "address",
          "name": "spender",
          "type": "address"
        }
      ],
      "name": "ERC20InvalidSpender",
      "type": "error"
    },
    {
      "inputs": [
        {
          "internalType": "uint256",
          "name": "deadline",
          "type": "uint256"
        }
      ],
      "name": "ERC2612ExpiredSignature",
      "type": "error"
    },
    {
      "inputs": [
        {
          "internalType": "address",
          "name": "signer",
          "type": "address"
        },
        {
          "internalType": "address",
          "name": "owner",
          "type": "address"
        }
      ],
      "name": "ERC2612InvalidSigner",
      "type": "error"
    },
    {
      "inputs": [
        {
          "internalType": "address",
          "name": "from",
          "type": "address"
        },
        {
          "internalType": "address",
          "name": "permitOwner",
          "type": "address"
        }
      ],
      "name": "FHERC20EncTransferFromOwnerMismatch",
      "type": "error"
    },
    {
      "inputs": [
        {
          "internalType": "address",
          "name": "to",
          "type": "address"
        },
        {
          "internalType": "address",
          "name": "permitSpender",
          "type": "address"
        }
      ],
      "name": "FHERC20EncTransferFromSpenderMismatch",
      "type": "error"
    },
    {
      "inputs": [
        {
          "internalType": "uint256",
          "name": "inValueHash",
          "type": "uint256"
        },
        {
          "internalType": "uint256",
          "name": "permitValueHash",
          "type": "uint256"
        }
      ],
      "name": "FHERC20EncTransferFromValueHashMismatch",
      "type": "error"
    },
    {
      "inputs": [],
      "name": "FHERC20IncompatibleFunction",
      "type": "error"
    },
    {
      "inputs": [
        {
          "internalType": "address",
          "name": "account",
          "type": "address"
        },
        {
          "internalType": "uint256",
          "name": "currentNonce",
          "type": "uint256"
        }
      ],
      "name": "InvalidAccountNonce",
      "type": "error"
    },
    {
      "inputs": [
        {
          "internalType": "uint8",
          "name": "got",
          "type": "uint8"
        },
        {
          "internalType": "uint8",
          "name": "expected",
          "type": "uint8"
        }
      ],
      "name": "InvalidEncryptedInput",
      "type": "error"
    },
    {
      "inputs": [],
      "name": "InvalidShortString",
      "type": "error"
    },
    {
      "inputs": [
        {
          "internalType": "int32",
          "name": "value",
          "type": "int32"
        }
      ],
      "name": "SecurityZoneOutOfBounds",
      "type": "error"
    },
    {
      "inputs": [
        {
          "internalType": "string",
          "name": "str",
          "type": "string"
        }
      ],
      "name": "StringTooLong",
      "type": "error"
    },
    {
      "anonymous": false,
      "inputs": [
        {
          "indexed": true,
          "internalType": "address",
          "name": "owner",
          "type": "address"
        },
        {
          "indexed": true,
          "internalType": "address",
          "name": "spender",
          "type": "address"
        },
        {
          "indexed": false,
          "internalType": "uint256",
          "name": "value",
          "type": "uint256"
        }
      ],
      "name": "Approval",
      "type": "event"
    },
    {
      "anonymous": false,
      "inputs": [],
      "name": "EIP712DomainChanged",
      "type": "event"
    },
    {
      "anonymous": false,
      "inputs": [
        {
          "indexed": false,
          "internalType": "address",
          "name": "caller",
          "type": "address"
        },
        {
          "indexed": false,
          "internalType": "address",
          "name": "receiver",
          "type": "address"
        },
        {
          "indexed": false,
          "internalType": "uint256",
          "name": "assetsValueHash",
          "type": "uint256"
        },
        {
          "indexed": false,
          "internalType": "uint256",
          "name": "sharesValueHash",
          "type": "uint256"
        }
      ],
      "name": "EncDeposit",
      "type": "event"
    },
    {
      "anonymous": false,
      "inputs": [
        {
          "indexed": true,
          "internalType": "address",
          "name": "from",
          "type": "address"
        },
        {
          "indexed": true,
          "internalType": "address",
          "name": "to",
          "type": "address"
        },
        {
          "indexed": false,
          "internalType": "uint256",
          "name": "value_hash",
          "type": "uint256"
        }
      ],
      "name": "EncTransfer",
      "type": "event"
    },
    {
      "anonymous": false,
      "inputs": [
        {
          "indexed": false,
          "internalType": "address",
          "name": "caller",
          "type": "address"
        },
        {
          "indexed": false,
          "internalType": "address",
          "name": "receiver",
          "type": "address"
        },
        {
          "indexed": false,
          "internalType": "address",
          "name": "owner",
          "type": "address"
        },
        {
          "indexed": false,
          "internalType": "uint256",
          "name": "assetsValueHash",
          "type": "uint256"
        },
        {
          "indexed": false,
          "internalType": "uint256",
          "name": "sharesValueHash",
          "type": "uint256"
        }
      ],
      "name": "EncWithdraw",
      "type": "event"
    },
    {
      "anonymous": false,
      "inputs": [
        {
          "indexed": true,
          "internalType": "address",
          "name": "from",
          "type": "address"
        },
        {
          "indexed": true,
          "internalType": "address",
          "name": "to",
          "type": "address"
        },
        {
          "indexed": false,
          "internalType": "uint256",
          "name": "value",
          "type": "uint256"
        }
      ],
      "name": "Transfer",
      "type": "event"
    },
    {
      "inputs": [],
      "name": "DOMAIN_SEPARATOR",
      "outputs": [
        {
          "internalType": "bytes32",
          "name": "",
          "type": "bytes32"
        }
      ],
      "stateMutability": "view",
      "type": "function"
    },
    {
      "inputs": [],
      "name": "MAX_BASIS_POINT",
      "outputs": [
        {
          "internalType": "uint16",
          "name": "",
          "type": "uint16"
        }
      ],
      "stateMutability": "view",
      "type": "function"
    },
    {
      "inputs": [
        {
          "internalType": "address",
          "name": "",
          "type": "address"
        },
        {
          "internalType": "address",
          "name": "",
          "type": "address"
        }
      ],
      "name": "allowance",
      "outputs": [
        {
          "internalType": "uint256",
          "name": "",
          "type": "uint256"
        }
      ],
      "stateMutability": "pure",
      "type": "function"
    },
    {
      "inputs": [
        {
          "internalType": "address",
          "name": "",
          "type": "address"
        },
        {
          "internalType": "uint256",
          "name": "",
          "type": "uint256"
        }
      ],
      "name": "approve",
      "outputs": [
        {
          "internalType": "bool",
          "name": "",
          "type": "bool"
        }
      ],
      "stateMutability": "pure",
      "type": "function"
    },
    {
      "inputs": [],
      "name": "asset",
      "outputs": [
        {
          "internalType": "address",
          "name": "",
          "type": "address"
        }
      ],
      "stateMutability": "view",
      "type": "function"
    },
    {
      "inputs": [
        {
          "internalType": "address",
          "name": "account",
          "type": "address"
        }
      ],
      "name": "balanceOf",
      "outputs": [
        {
          "internalType": "uint256",
          "name": "",
          "type": "uint256"
        }
      ],
      "stateMutability": "view",
      "type": "function"
    },
    {
      "inputs": [],
      "name": "balanceOfIsIndicator",
      "outputs": [
        {
          "internalType": "bool",
          "name": "",
          "type": "bool"
        }
      ],
      "stateMutability": "view",
      "type": "function"
    },
    {
      "inputs": [
        {
          "components": [
            {
              "internalType": "uint256",
              "name": "ctHash",
              "type": "uint256"
            },
            {
              "internalType": "uint8",
              "name": "securityZone",
              "type": "uint8"
            },
            {
              "internalType": "uint8",
              "name": "utype",
              "type": "uint8"
            },
            {
              "internalType": "bytes",
              "name": "signature",
              "type": "bytes"
            }
          ],
          "internalType": "struct InEuint128",
          "name": "inBorrowAmount",
          "type": "tuple"
        },
        {
          "internalType": "int24",
          "name": "tick",
          "type": "int24"
        },
        {
          "components": [
            {
              "internalType": "uint256",
              "name": "ctHash",
              "type": "uint256"
            },
            {
              "internalType": "uint8",
              "name": "securityZone",
              "type": "uint8"
            },
            {
              "internalType": "uint8",
              "name": "utype",
              "type": "uint8"
            },
            {
              "internalType": "bytes",
              "name": "signature",
              "type": "bytes"
            }
          ],
          "internalType": "struct InEuint128",
          "name": "inMaxCollateralAmount",
          "type": "tuple"
        },
        {
          "components": [
            {
              "internalType": "address",
              "name": "owner",
              "type": "address"
            },
            {
              "internalType": "address",
              "name": "spender",
              "type": "address"
            },
            {
              "internalType": "uint256",
              "name": "value_hash",
              "type": "uint256"
            },
            {
              "internalType": "uint256",
              "name": "deadline",
              "type": "uint256"
            },
            {
              "internalType": "uint8",
              "name": "v",
              "type": "uint8"
            },
            {
              "internalType": "bytes32",
              "name": "r",
              "type": "bytes32"
            },
            {
              "internalType": "bytes32",
              "name": "s",
              "type": "bytes32"
            }
          ],
          "internalType": "struct IFHERC20.FHERC20_EIP712_Permit",
          "name": "permit",
          "type": "tuple"
        }
      ],
      "name": "borrow",
      "outputs": [],
      "stateMutability": "nonpayable",
      "type": "function"
    },
    {
      "inputs": [],
      "name": "borrowToken",
      "outputs": [
        {
          "internalType": "address",
          "name": "",
          "type": "address"
        }
      ],
      "stateMutability": "view",
      "type": "function"
    },
    {
      "inputs": [],
      "name": "collateralToken",
      "outputs": [
        {
          "internalType": "address",
          "name": "",
          "type": "address"
        }
      ],
      "stateMutability": "view",
      "type": "function"
    },
    {
      "inputs": [
        {
          "internalType": "euint128",
          "name": "shares",
          "type": "uint256"
        }
      ],
      "name": "convertToAssets",
      "outputs": [
        {
          "internalType": "euint128",
          "name": "",
          "type": "uint256"
        }
      ],
      "stateMutability": "nonpayable",
      "type": "function"
    },
    {
      "inputs": [
        {
          "internalType": "euint128",
          "name": "assets",
          "type": "uint256"
        }
      ],
      "name": "convertToShares",
      "outputs": [
        {
          "internalType": "euint128",
          "name": "",
          "type": "uint256"
        }
      ],
      "stateMutability": "nonpayable",
      "type": "function"
    },
    {
      "inputs": [],
      "name": "debtIndex",
      "outputs": [
        {
          "internalType": "euint128",
          "name": "",
          "type": "uint256"
        }
      ],
      "stateMutability": "view",
      "type": "function"
    },
    {
      "inputs": [],
      "name": "debtIndexGrow",
      "outputs": [
        {
          "internalType": "euint128",
          "name": "",
          "type": "uint256"
        }
      ],
      "stateMutability": "view",
      "type": "function"
    },
    {
      "inputs": [],
      "name": "decimals",
      "outputs": [
        {
          "internalType": "uint8",
          "name": "",
          "type": "uint8"
        }
      ],
      "stateMutability": "view",
      "type": "function"
    },
    {
      "inputs": [
        {
          "components": [
            {
              "internalType": "uint256",
              "name": "ctHash",
              "type": "uint256"
            },
            {
              "internalType": "uint8",
              "name": "securityZone",
              "type": "uint8"
            },
            {
              "internalType": "uint8",
              "name": "utype",
              "type": "uint8"
            },
            {
              "internalType": "bytes",
              "name": "signature",
              "type": "bytes"
            }
          ],
          "internalType": "struct InEuint128",
          "name": "inMaxRepayAmount",
          "type": "tuple"
        },
        {
          "internalType": "int24",
          "name": "tickOld",
          "type": "int24"
        },
        {
          "internalType": "int24",
          "name": "tickNew",
          "type": "int24"
        },
        {
          "components": [
            {
              "internalType": "address",
              "name": "owner",
              "type": "address"
            },
            {
              "internalType": "address",
              "name": "spender",
              "type": "address"
            },
            {
              "internalType": "uint256",
              "name": "value_hash",
              "type": "uint256"
            },
            {
              "internalType": "uint256",
              "name": "deadline",
              "type": "uint256"
            },
            {
              "internalType": "uint8",
              "name": "v",
              "type": "uint8"
            },
            {
              "internalType": "bytes32",
              "name": "r",
              "type": "bytes32"
            },
            {
              "internalType": "bytes32",
              "name": "s",
              "type": "bytes32"
            }
          ],
          "internalType": "struct IFHERC20.FHERC20_EIP712_Permit",
          "name": "permit",
          "type": "tuple"
        }
      ],
      "name": "decreaseBorrowAmount",
      "outputs": [],
      "stateMutability": "nonpayable",
      "type": "function"
    },
    {
      "inputs": [],
      "name": "eip712Domain",
      "outputs": [
        {
          "internalType": "bytes1",
          "name": "fields",
          "type": "bytes1"
        },
        {
          "internalType": "string",
          "name": "name",
          "type": "string"
        },
        {
          "internalType": "string",
          "name": "version",
          "type": "string"
        },
        {
          "internalType": "uint256",
          "name": "chainId",
          "type": "uint256"
        },
        {
          "internalType": "address",
          "name": "verifyingContract",
          "type": "address"
        },
        {
          "internalType": "bytes32",
          "name": "salt",
          "type": "bytes32"
        },
        {
          "internalType": "uint256[]",
          "name": "extensions",
          "type": "uint256[]"
        }
      ],
      "stateMutability": "view",
      "type": "function"
    },
    {
      "inputs": [
        {
          "internalType": "address",
          "name": "account",
          "type": "address"
        }
      ],
      "name": "encBalanceOf",
      "outputs": [
        {
          "internalType": "euint128",
          "name": "",
          "type": "uint256"
        }
      ],
      "stateMutability": "view",
      "type": "function"
    },
    {
      "inputs": [
        {
          "components": [
            {
              "internalType": "uint256",
              "name": "ctHash",
              "type": "uint256"
            },
            {
              "internalType": "uint8",
              "name": "securityZone",
              "type": "uint8"
            },
            {
              "internalType": "uint8",
              "name": "utype",
              "type": "uint8"
            },
            {
              "internalType": "bytes",
              "name": "signature",
              "type": "bytes"
            }
          ],
          "internalType": "struct InEuint128",
          "name": "inAssets",
          "type": "tuple"
        },
        {
          "internalType": "address",
          "name": "receiver",
          "type": "address"
        },
        {
          "components": [
            {
              "internalType": "address",
              "name": "owner",
              "type": "address"
            },
            {
              "internalType": "address",
              "name": "spender",
              "type": "address"
            },
            {
              "internalType": "uint256",
              "name": "value_hash",
              "type": "uint256"
            },
            {
              "internalType": "uint256",
              "name": "deadline",
              "type": "uint256"
            },
            {
              "internalType": "uint8",
              "name": "v",
              "type": "uint8"
            },
            {
              "internalType": "bytes32",
              "name": "r",
              "type": "bytes32"
            },
            {
              "internalType": "bytes32",
              "name": "s",
              "type": "bytes32"
            }
          ],
          "internalType": "struct IFHERC20.FHERC20_EIP712_Permit",
          "name": "permit",
          "type": "tuple"
        }
      ],
      "name": "encDeposit",
      "outputs": [
        {
          "internalType": "euint128",
          "name": "shares",
          "type": "uint256"
        }
      ],
      "stateMutability": "nonpayable",
      "type": "function"
    },
    {
      "inputs": [
        {
          "components": [
            {
              "internalType": "uint256",
              "name": "ctHash",
              "type": "uint256"
            },
            {
              "internalType": "uint8",
              "name": "securityZone",
              "type": "uint8"
            },
            {
              "internalType": "uint8",
              "name": "utype",
              "type": "uint8"
            },
            {
              "internalType": "bytes",
              "name": "signature",
              "type": "bytes"
            }
          ],
          "internalType": "struct InEuint128",
          "name": "inShares",
          "type": "tuple"
        },
        {
          "internalType": "address",
          "name": "receiver",
          "type": "address"
        },
        {
          "internalType": "address",
          "name": "owner",
          "type": "address"
        },
        {
          "components": [
            {
              "internalType": "address",
              "name": "owner",
              "type": "address"
            },
            {
              "internalType": "address",
              "name": "spender",
              "type": "address"
            },
            {
              "internalType": "uint256",
              "name": "value_hash",
              "type": "uint256"
            },
            {
              "internalType": "uint256",
              "name": "deadline",
              "type": "uint256"
            },
            {
              "internalType": "uint8",
              "name": "v",
              "type": "uint8"
            },
            {
              "internalType": "bytes32",
              "name": "r",
              "type": "bytes32"
            },
            {
              "internalType": "bytes32",
              "name": "s",
              "type": "bytes32"
            }
          ],
          "internalType": "struct IFHERC20.FHERC20_EIP712_Permit",
          "name": "permit",
          "type": "tuple"
        }
      ],
      "name": "encRedeem",
      "outputs": [
        {
          "internalType": "euint128",
          "name": "assets",
          "type": "uint256"
        }
      ],
      "stateMutability": "nonpayable",
      "type": "function"
    },
    {
      "inputs": [],
      "name": "encTotalAssets",
      "outputs": [
        {
          "internalType": "euint128",
          "name": "",
          "type": "uint256"
        }
      ],
      "stateMutability": "nonpayable",
      "type": "function"
    },
    {
      "inputs": [],
      "name": "encTotalSupply",
      "outputs": [
        {
          "internalType": "euint128",
          "name": "",
          "type": "uint256"
        }
      ],
      "stateMutability": "view",
      "type": "function"
    },
    {
      "inputs": [
        {
          "internalType": "address",
          "name": "to",
          "type": "address"
        },
        {
          "components": [
            {
              "internalType": "uint256",
              "name": "ctHash",
              "type": "uint256"
            },
            {
              "internalType": "uint8",
              "name": "securityZone",
              "type": "uint8"
            },
            {
              "internalType": "uint8",
              "name": "utype",
              "type": "uint8"
            },
            {
              "internalType": "bytes",
              "name": "signature",
              "type": "bytes"
            }
          ],
          "internalType": "struct InEuint128",
          "name": "inValue",
          "type": "tuple"
        }
      ],
      "name": "encTransfer",
      "outputs": [
        {
          "internalType": "euint128",
          "name": "transferred",
          "type": "uint256"
        }
      ],
      "stateMutability": "nonpayable",
      "type": "function"
    },
    {
      "inputs": [
        {
          "internalType": "address",
          "name": "to",
          "type": "address"
        },
        {
          "internalType": "euint128",
          "name": "value",
          "type": "uint256"
        }
      ],
      "name": "encTransfer",
      "outputs": [
        {
          "internalType": "euint128",
          "name": "transferred",
          "type": "uint256"
        }
      ],
      "stateMutability": "nonpayable",
      "type": "function"
    },
    {
      "inputs": [
        {
          "internalType": "address",
          "name": "from",
          "type": "address"
        },
        {
          "internalType": "address",
          "name": "to",
          "type": "address"
        },
        {
          "internalType": "euint128",
          "name": "value",
          "type": "uint256"
        },
        {
          "components": [
            {
              "internalType": "uint256",
              "name": "ctHash",
              "type": "uint256"
            },
            {
              "internalType": "uint8",
              "name": "securityZone",
              "type": "uint8"
            },
            {
              "internalType": "uint8",
              "name": "utype",
              "type": "uint8"
            },
            {
              "internalType": "bytes",
              "name": "signature",
              "type": "bytes"
            }
          ],
          "internalType": "struct InEuint128",
          "name": "maxInValue",
          "type": "tuple"
        },
        {
          "components": [
            {
              "internalType": "address",
              "name": "owner",
              "type": "address"
            },
            {
              "internalType": "address",
              "name": "spender",
              "type": "address"
            },
            {
              "internalType": "uint256",
              "name": "value_hash",
              "type": "uint256"
            },
            {
              "internalType": "uint256",
              "name": "deadline",
              "type": "uint256"
            },
            {
              "internalType": "uint8",
              "name": "v",
              "type": "uint8"
            },
            {
              "internalType": "bytes32",
              "name": "r",
              "type": "bytes32"
            },
            {
              "internalType": "bytes32",
              "name": "s",
              "type": "bytes32"
            }
          ],
          "internalType": "struct IFHERC20.FHERC20_EIP712_Permit",
          "name": "permit",
          "type": "tuple"
        }
      ],
      "name": "encTransferFrom",
      "outputs": [
        {
          "internalType": "euint128",
          "name": "",
          "type": "uint256"
        }
      ],
      "stateMutability": "nonpayable",
      "type": "function"
    },
    {
      "inputs": [
        {
          "internalType": "address",
          "name": "from",
          "type": "address"
        },
        {
          "internalType": "address",
          "name": "to",
          "type": "address"
        },
        {
          "components": [
            {
              "internalType": "uint256",
              "name": "ctHash",
              "type": "uint256"
            },
            {
              "internalType": "uint8",
              "name": "securityZone",
              "type": "uint8"
            },
            {
              "internalType": "uint8",
              "name": "utype",
              "type": "uint8"
            },
            {
              "internalType": "bytes",
              "name": "signature",
              "type": "bytes"
            }
          ],
          "internalType": "struct InEuint128",
          "name": "inValue",
          "type": "tuple"
        },
        {
          "components": [
            {
              "internalType": "address",
              "name": "owner",
              "type": "address"
            },
            {
              "internalType": "address",
              "name": "spender",
              "type": "address"
            },
            {
              "internalType": "uint256",
              "name": "value_hash",
              "type": "uint256"
            },
            {
              "internalType": "uint256",
              "name": "deadline",
              "type": "uint256"
            },
            {
              "internalType": "uint8",
              "name": "v",
              "type": "uint8"
            },
            {
              "internalType": "bytes32",
              "name": "r",
              "type": "bytes32"
            },
            {
              "internalType": "bytes32",
              "name": "s",
              "type": "bytes32"
            }
          ],
          "internalType": "struct IFHERC20.FHERC20_EIP712_Permit",
          "name": "permit",
          "type": "tuple"
        }
      ],
      "name": "encTransferFrom",
      "outputs": [
        {
          "internalType": "euint128",
          "name": "transferred",
          "type": "uint256"
        }
      ],
      "stateMutability": "nonpayable",
      "type": "function"
    },
    {
      "inputs": [
        {
          "internalType": "address",
          "name": "user",
          "type": "address"
        },
        {
          "internalType": "uint256",
          "name": "index",
          "type": "uint256"
        }
      ],
      "name": "getUserPositionAt",
      "outputs": [
        {
          "components": [
            {
              "internalType": "euint128",
              "name": "collateral",
              "type": "uint256"
            },
            {
              "internalType": "euint128",
              "name": "scaledDebt",
              "type": "uint256"
            },
            {
              "internalType": "uint256",
              "name": "debtIndex0",
              "type": "uint256"
            },
            {
              "internalType": "uint256",
              "name": "liquidationCount",
              "type": "uint256"
            }
          ],
          "internalType": "struct Position.Info",
          "name": "",
          "type": "tuple"
        }
      ],
      "stateMutability": "view",
      "type": "function"
    },
    {
      "inputs": [
        {
          "internalType": "address",
          "name": "user",
          "type": "address"
        }
      ],
      "name": "getUserPositions",
      "outputs": [
        {
          "components": [
            {
              "internalType": "euint128",
              "name": "collateral",
              "type": "uint256"
            },
            {
              "internalType": "euint128",
              "name": "scaledDebt",
              "type": "uint256"
            },
            {
              "internalType": "uint256",
              "name": "debtIndex0",
              "type": "uint256"
            },
            {
              "internalType": "uint256",
              "name": "liquidationCount",
              "type": "uint256"
            }
          ],
          "internalType": "struct Position.Info[]",
          "name": "result",
          "type": "tuple[]"
        }
      ],
      "stateMutability": "view",
      "type": "function"
    },
    {
      "inputs": [
        {
          "internalType": "address",
          "name": "user",
          "type": "address"
        }
      ],
      "name": "getUserPositionsLength",
      "outputs": [
        {
          "internalType": "uint256",
          "name": "",
          "type": "uint256"
        }
      ],
      "stateMutability": "view",
      "type": "function"
    },
    {
      "inputs": [
        {
          "components": [
            {
              "internalType": "uint256",
              "name": "ctHash",
              "type": "uint256"
            },
            {
              "internalType": "uint8",
              "name": "securityZone",
              "type": "uint8"
            },
            {
              "internalType": "uint8",
              "name": "utype",
              "type": "uint8"
            },
            {
              "internalType": "bytes",
              "name": "signature",
              "type": "bytes"
            }
          ],
          "internalType": "struct InEuint128",
          "name": "inMinBorrowAmount",
          "type": "tuple"
        },
        {
          "internalType": "int24",
          "name": "tickOld",
          "type": "int24"
        },
        {
          "internalType": "int24",
          "name": "tickNew",
          "type": "int24"
        }
      ],
      "name": "increaseBorrowAmount",
      "outputs": [],
      "stateMutability": "nonpayable",
      "type": "function"
    },
    {
      "inputs": [],
      "name": "indicatorTick",
      "outputs": [
        {
          "internalType": "uint256",
          "name": "",
          "type": "uint256"
        }
      ],
      "stateMutability": "view",
      "type": "function"
    },
    {
      "inputs": [],
      "name": "isFherc20",
      "outputs": [
        {
          "internalType": "bool",
          "name": "",
          "type": "bool"
        }
      ],
      "stateMutability": "view",
      "type": "function"
    },
    {
      "inputs": [],
      "name": "lastUpdatedTimestamp",
      "outputs": [
        {
          "internalType": "uint32",
          "name": "",
          "type": "uint32"
        }
      ],
      "stateMutability": "view",
      "type": "function"
    },
    {
      "inputs": [],
      "name": "lendingIndex",
      "outputs": [
        {
          "internalType": "euint128",
          "name": "",
          "type": "uint256"
        }
      ],
      "stateMutability": "view",
      "type": "function"
    },
    {
      "inputs": [],
      "name": "lendingIndexGrow",
      "outputs": [
        {
          "internalType": "euint128",
          "name": "",
          "type": "uint256"
        }
      ],
      "stateMutability": "view",
      "type": "function"
    },
    {
      "inputs": [
        {
          "internalType": "bytes32",
          "name": "",
          "type": "bytes32"
        }
      ],
      "name": "liquidatedTicks",
      "outputs": [
        {
          "internalType": "uint256",
          "name": "leftOverCollateral",
          "type": "uint256"
        },
        {
          "internalType": "uint256",
          "name": "scaledDebt",
          "type": "uint256"
        }
      ],
      "stateMutability": "view",
      "type": "function"
    },
    {
      "inputs": [],
      "name": "liquidationThresholdBasisPoint",
      "outputs": [
        {
          "internalType": "uint16",
          "name": "",
          "type": "uint16"
        }
      ],
      "stateMutability": "view",
      "type": "function"
    },
    {
      "inputs": [],
      "name": "maxDebtIndexGrow",
      "outputs": [
        {
          "internalType": "uint128",
          "name": "",
          "type": "uint128"
        }
      ],
      "stateMutability": "view",
      "type": "function"
    },
    {
      "inputs": [],
      "name": "maxLtvBasisPoint",
      "outputs": [
        {
          "internalType": "uint16",
          "name": "",
          "type": "uint16"
        }
      ],
      "stateMutability": "view",
      "type": "function"
    },
    {
      "inputs": [],
      "name": "minDebtIndexGrow",
      "outputs": [
        {
          "internalType": "uint128",
          "name": "",
          "type": "uint128"
        }
      ],
      "stateMutability": "view",
      "type": "function"
    },
    {
      "inputs": [],
      "name": "name",
      "outputs": [
        {
          "internalType": "string",
          "name": "",
          "type": "string"
        }
      ],
      "stateMutability": "view",
      "type": "function"
    },
    {
      "inputs": [
        {
          "internalType": "address",
          "name": "owner",
          "type": "address"
        }
      ],
      "name": "nonces",
      "outputs": [
        {
          "internalType": "uint256",
          "name": "",
          "type": "uint256"
        }
      ],
      "stateMutability": "view",
      "type": "function"
    },
    {
      "inputs": [],
      "name": "oracle",
      "outputs": [
        {
          "internalType": "contract IOracle",
          "name": "",
          "type": "address"
        }
      ],
      "stateMutability": "view",
      "type": "function"
    },
    {
      "inputs": [],
      "name": "pDebtIndex",
      "outputs": [
        {
          "internalType": "uint128",
          "name": "",
          "type": "uint128"
        }
      ],
      "stateMutability": "view",
      "type": "function"
    },
    {
      "inputs": [],
      "name": "pDebtIndexGrow",
      "outputs": [
        {
          "internalType": "uint128",
          "name": "",
          "type": "uint128"
        }
      ],
      "stateMutability": "view",
      "type": "function"
    },
    {
      "inputs": [],
      "name": "penaltyBasisPoint",
      "outputs": [
        {
          "internalType": "uint16",
          "name": "",
          "type": "uint16"
        }
      ],
      "stateMutability": "view",
      "type": "function"
    },
    {
      "inputs": [
        {
          "internalType": "bytes32",
          "name": "",
          "type": "bytes32"
        }
      ],
      "name": "positions",
      "outputs": [
        {
          "internalType": "euint128",
          "name": "collateral",
          "type": "uint256"
        },
        {
          "internalType": "euint128",
          "name": "scaledDebt",
          "type": "uint256"
        },
        {
          "internalType": "uint256",
          "name": "debtIndex0",
          "type": "uint256"
        },
        {
          "internalType": "uint256",
          "name": "liquidationCount",
          "type": "uint256"
        }
      ],
      "stateMutability": "view",
      "type": "function"
    },
    {
      "inputs": [
        {
          "components": [
            {
              "internalType": "uint256",
              "name": "ctHash",
              "type": "uint256"
            },
            {
              "internalType": "uint8",
              "name": "securityZone",
              "type": "uint8"
            },
            {
              "internalType": "uint8",
              "name": "utype",
              "type": "uint8"
            },
            {
              "internalType": "bytes",
              "name": "signature",
              "type": "bytes"
            }
          ],
          "internalType": "struct InEuint128",
          "name": "inRepayAmount",
          "type": "tuple"
        },
        {
          "internalType": "int24",
          "name": "tick",
          "type": "int24"
        },
        {
          "components": [
            {
              "internalType": "uint256",
              "name": "ctHash",
              "type": "uint256"
            },
            {
              "internalType": "uint8",
              "name": "securityZone",
              "type": "uint8"
            },
            {
              "internalType": "uint8",
              "name": "utype",
              "type": "uint8"
            },
            {
              "internalType": "bytes",
              "name": "signature",
              "type": "bytes"
            }
          ],
          "internalType": "struct InEuint128",
          "name": "inMinCollateralAmount",
          "type": "tuple"
        },
        {
          "components": [
            {
              "internalType": "address",
              "name": "owner",
              "type": "address"
            },
            {
              "internalType": "address",
              "name": "spender",
              "type": "address"
            },
            {
              "internalType": "uint256",
              "name": "value_hash",
              "type": "uint256"
            },
            {
              "internalType": "uint256",
              "name": "deadline",
              "type": "uint256"
            },
            {
              "internalType": "uint8",
              "name": "v",
              "type": "uint8"
            },
            {
              "internalType": "bytes32",
              "name": "r",
              "type": "bytes32"
            },
            {
              "internalType": "bytes32",
              "name": "s",
              "type": "bytes32"
            }
          ],
          "internalType": "struct IFHERC20.FHERC20_EIP712_Permit",
          "name": "permit",
          "type": "tuple"
        }
      ],
      "name": "repay",
      "outputs": [],
      "stateMutability": "nonpayable",
      "type": "function"
    },
    {
      "inputs": [],
      "name": "resetIndicatedBalance",
      "outputs": [],
      "stateMutability": "nonpayable",
      "type": "function"
    },
    {
      "inputs": [],
      "name": "symbol",
      "outputs": [
        {
          "internalType": "string",
          "name": "",
          "type": "string"
        }
      ],
      "stateMutability": "view",
      "type": "function"
    },
    {
      "inputs": [
        {
          "internalType": "int16",
          "name": "",
          "type": "int16"
        }
      ],
      "name": "tickBitmap",
      "outputs": [
        {
          "internalType": "uint256",
          "name": "",
          "type": "uint256"
        }
      ],
      "stateMutability": "view",
      "type": "function"
    },
    {
      "inputs": [],
      "name": "tickSpacing",
      "outputs": [
        {
          "internalType": "int24",
          "name": "",
          "type": "int24"
        }
      ],
      "stateMutability": "view",
      "type": "function"
    },
    {
      "inputs": [
        {
          "internalType": "int24",
          "name": "",
          "type": "int24"
        }
      ],
      "name": "ticks",
      "outputs": [
        {
          "internalType": "euint128",
          "name": "collateral",
          "type": "uint256"
        },
        {
          "internalType": "euint128",
          "name": "scaledDebt",
          "type": "uint256"
        },
        {
          "internalType": "uint256",
          "name": "liquidationCount",
          "type": "uint256"
        }
      ],
      "stateMutability": "view",
      "type": "function"
    },
    {
      "inputs": [],
      "name": "totalScaledBorrow",
      "outputs": [
        {
          "internalType": "euint128",
          "name": "",
          "type": "uint256"
        }
      ],
      "stateMutability": "view",
      "type": "function"
    },
    {
      "inputs": [],
      "name": "totalSupply",
      "outputs": [
        {
          "internalType": "uint256",
          "name": "",
          "type": "uint256"
        }
      ],
      "stateMutability": "view",
      "type": "function"
    },
    {
      "inputs": [
        {
          "internalType": "address",
          "name": "",
          "type": "address"
        },
        {
          "internalType": "uint256",
          "name": "",
          "type": "uint256"
        }
      ],
      "name": "transfer",
      "outputs": [
        {
          "internalType": "bool",
          "name": "",
          "type": "bool"
        }
      ],
      "stateMutability": "pure",
      "type": "function"
    },
    {
      "inputs": [
        {
          "internalType": "address",
          "name": "",
          "type": "address"
        },
        {
          "internalType": "address",
          "name": "",
          "type": "address"
        },
        {
          "internalType": "uint256",
          "name": "",
          "type": "uint256"
        }
      ],
      "name": "transferFrom",
      "outputs": [
        {
          "internalType": "bool",
          "name": "",
          "type": "bool"
        }
      ],
      "stateMutability": "pure",
      "type": "function"
    }
  ],
  "bytecode": "0x6101e080604052346106b857616e4b803803809161001d828561097b565b8339810160e0828203126106b85781516001600160401b0381116106b857816100479184016109b9565b602083015190916001600160401b0382116106b8576100679184016109b9565b610073604084016109ff565b92610080606082016109ff565b60808201519261ffff841684036106b85760a0830151928360020b84036106b85760c00151946001600160a01b03861686036106b8576040516100c28161092a565b60018152603160f81b60208201526100d982610b0f565b610120526100e681610c92565b6101405281516020830120908160e0526020815191012080610100524660a0526040519060208201927f8b73c3c69bb8fe3d512ecc4cf759cc79239f7b179b0ffacaa9a75d522b39400f8452604083015260608201524660808201523060a082015260a0815260c0810181811060018060401b03821117610834576040525190206080523060c0528051906001600160401b0382116108345760075490600182811c92168015610920575b60208310146108165781601f8493116108c8575b50602090601f8311600114610853575f92610848575b50508160011b915f199060031b1c1916176007555b8051906001600160401b0382116108345760085490600182811c9216801561082a575b60208310146108165781601f8493116107bb575b50602090601f8311600114610746575f9261073b575b50508160011b915f199060031b1c1916176008555b601260ff196009541617600955655af3107a4000600a5560405161025581610945565b5f815260206102d26040519261026a84610960565b60038452606036848601376001600160801b0361028685610f0a565b52600861029285610f2b565b525f61029d85610f3b565b526102e46040519485938493631888debd60e01b855260086004860152601a6024860152608060448601526084850190610dc8565b83810360031901606485015290610dc8565b03815f5f80516020616deb8339815191525af19081156106c4575f91610709575b50600b5561031b6001600160a01b038216610a6e565b9015610701575b610180526001600160a01b0381166101605261034861033f610dfb565b80600655610a13565b610353600b54610a13565b600c805462010000600160501b0319164260301b69ffffffff00000000000016176501f41f400000179055635e80a6c06101a05264017a029b006101c052610399610dfb565b6010556040516103a881610945565b5f815260206102d2604051926103bd84610960565b60038452606036848601376001600160801b036103d985610f0a565b5260066103e585610f2b565b525f6103f085610f3b565b526104256040519485938493631888debd60e01b855260066004860152601a6024860152608060448601526084850190610dc8565b03815f5f80516020616deb8339815191525af19081156106c4575f916106cf575b50601155601054601255610458610ed0565b60135560018060801b036101a0511660206102d260405161047881610945565b5f81526040519361048885610960565b600385526060368587013761049c85610f0a565b5260066104a885610f2b565b525f6104b385610f3b565b526104e86040519485938493631888debd60e01b855260066004860152601a6024860152608060448601526084850190610dc8565b03815f5f80516020616deb8339815191525af19081156106c4575f9161068e575b506014556101a051670de0b6b3a764000060809190911b6001600160801b03191617601555610536610ed0565b60165560105460175560018060a01b03199460018060a01b031685600d541617600d5560018060a01b031684600e541617600e5561ffff600c549160501b6cffffff00000000000000000000169216906cffffff0000000000000000ffff19161717600c5560018060a01b031690600f541617600f556105b761033f610dfb565b6105c2601054610a13565b6105cd601154610a13565b6105d8601354610a13565b6105e3601454610a13565b6105ee601654610a13565b6105f9601754610a13565b604051615e9f9081610f4c8239608051816141d3015260a0518161429e015260c0518161419d015260e051816142220152610100518161424801526101205181611692015261014051816116bf015261016051818181610a6501528181611a350152612b1c0152610180518161220e01526101a05181818161184d015261528601526101c05181818161088401526152ab0152f35b90506020813d6020116106bc575b816106a96020938361097b565b810103126106b857515f610509565b5f80fd5b3d915061069c565b6040513d5f823e3d90fd5b90506020813d6020116106f9575b816106ea6020938361097b565b810103126106b857515f610446565b3d91506106dd565b506012610322565b90506020813d602011610733575b816107246020938361097b565b810103126106b857515f610305565b3d9150610717565b015190505f8061021d565b60085f90815293505f80516020616e2b83398151915291905b601f19841685106107a0576001945083601f19811610610788575b505050811b01600855610232565b01515f1960f88460031b161c191690555f808061077a565b8181015183556020948501946001909301929091019061075f565b60085f529091505f80516020616e2b833981519152601f840160051c8101916020851061080c575b90601f859493920160051c01905b8181106107fe5750610207565b5f81558493506001016107f1565b90915081906107e3565b634e487b7160e01b5f52602260045260245ffd5b91607f16916101f3565b634e487b7160e01b5f52604160045260245ffd5b015190505f806101bb565b60075f90815293505f80516020616e0b83398151915291905b601f19841685106108ad576001945083601f19811610610895575b505050811b016007556101d0565b01515f1960f88460031b161c191690555f8080610887565b8181015183556020948501946001909301929091019061086c565b60075f529091505f80516020616e0b833981519152601f840160051c810160208510610919575b90849392915b601f830160051c8201811061090b5750506101a5565b5f81558594506001016108f5565b50806108ef565b91607f1691610191565b604081019081106001600160401b0382111761083457604052565b602081019081106001600160401b0382111761083457604052565b608081019081106001600160401b0382111761083457604052565b601f909101601f19168101906001600160401b0382119082101761083457604052565b6001600160401b03811161083457601f01601f191660200190565b81601f820112156106b8578051906109d08261099e565b926109de604051948561097b565b828452602083830101116106b857815f9260208093018386015e8301015290565b51906001600160a01b03821682036106b857565b5f80516020616deb83398151915290813b156106b8575f91604483926040519485938492631974142760e21b845260048401523060248401525af180156106c457610a5b5750565b6001600160401b03811161083457604052565b5f8091604051602081019063313ce56760e01b825260048152610a908161092a565b51916001600160a01b03165afa3d15610b07573d90610aae8261099e565b91610abc604051938461097b565b82523d5f602084013e5b80610afb575b610ad8575b505f905f90565b6020818051810103126106b8576020015160ff8111610ad1579060ff6001921690565b50602081511015610acc565b606090610ac6565b805160209081811015610b855750601f825111610b475780825192015190808310610b3957501790565b825f19910360031b1b161790565b60448260405192839163305a27a960e01b83528160048401528051918291826024860152018484015e5f828201840152601f01601f19168101030190fd5b906001600160401b038211610834575f54926001938481811c91168015610c88575b8382101461081657601f8111610c55575b5081601f8411600114610bf357509282939183925f94610be8575b50501b915f199060031b1c1916175f5560ff90565b015192505f80610bd3565b919083601f1981165f8052845f20945f905b88838310610c3b5750505010610c23575b505050811b015f5560ff90565b01515f1960f88460031b161c191690555f8080610c16565b858701518855909601959485019487935090810190610c05565b5f805284601f845f20920160051c820191601f860160051c015b828110610c7d575050610bb8565b5f8155018590610c6f565b90607f1690610ba7565b805160209081811015610cbc5750601f825111610b475780825192015190808310610b3957501790565b9192916001600160401b0381116108345760019182548381811c91168015610dbe575b8282101461081657601f8111610d8b575b5080601f8311600114610d2b5750819293945f92610d20575b50505f19600383901b1c191690821b17905560ff90565b015190505f80610d09565b90601f19831695845f52825f20925f905b888210610d745750508385969710610d5c575b505050811b01905560ff90565b01515f1960f88460031b161c191690555f8080610d4f565b808785968294968601518155019501930190610d3c565b835f5283601f835f20920160051c820191601f850160051c015b828110610db3575050610cf0565b5f8155018490610da5565b90607f1690610cdf565b9081518082526020808093019301915f5b828110610de7575050505090565b835185529381019392810192600101610dd9565b604051610e0781610945565b5f815260206102d260405192610e1c84610960565b60038452606036848601375f610e3185610f0a565b526006610e3d85610f2b565b525f610e4885610f3b565b52610e7d6040519485938493631888debd60e01b855260066004860152601a6024860152608060448601526084850190610dc8565b03815f5f80516020616deb8339815191525af19081156106c4575f91610ea1575090565b90506020813d602011610ec8575b81610ebc6020938361097b565b810103126106b8575190565b3d9150610eaf565b604051610edc81610945565b5f815260206102d260405192610ef184610960565b6003845260603684860137670de0b6b3a7640000610e31855b805115610f175760200190565b634e487b7160e01b5f52603260045260245ffd5b805160011015610f175760400190565b805160021015610f17576060019056fe60a0806040526004361015610012575f80fd5b5f60805260e05f35811c91826306fdde0314612e535750816307a2d13a14612e35578163095ea7b314610d9e5781630b39f29814612a62578163133fb3021461243257816318160ddd1461240b5781631830913c146123ec5781631d476940146123cd57816323b872dd146123b45781632a6bc2dd14612259578163313ce567146121f85781633644e515146121dc578163365ac00214610da3578163367a762814611a6457816338d52e0f14611a1e5781633c05c589146119fb5781633fd94f171461195e578163456dc17a14611934578163465c1c1a14611918578163490690f3146118f9578163514ea4bf146118aa5781635339c2961461187157816359ca681c1461182c5781636ca66916146117f057816370a08231146117ac5781637dc0d1d0146117825781637ecebe001461174657816384b0196e1461167b57816387be66a51461165c5781638f48b5941461163457816393066e351461160e5781639359b6da146110ec57816395d89b41146110085781639a04a31214610fe9578163a2a6c7a714610da8578163a415f26914610da3578163a9059cbb14610d9e578163aa35029214610d56578163b2016bd414610d2c578163b4b2019014610cfd578163bab2020814610cd5578163baeaaa1014610960578163bb8c631f14610941578163c0d3f71414610922578163c6e6f59214610904578163c8018490146108cd578163d0c93a7c146108a8578163d6ba77a414610863578163d749109314610845578163da39e30114610820578163dd62ed3e146107eb578163dfc4d7c7146107af578163e985fb461461073f57508063f30dba93146106ef578063fbaf894c146106c7578063feed336f146106a55763ff718e5214610295575f80fd5b3461069f576102a336613164565b906102c56102bc600c9594955460501c60020b86613207565b60020b1561322d565b6102cd6135e5565b6102d684614374565b908460020b6080515260186020526102f460406080512095336153f6565b60805152601a6020526040608051209261031760038501546002880154146132a3565b61035361034e610340600187015461033a61033460135492615700565b91615700565b90614f81565b610348615d83565b90615024565b61566c565b6103d96103d361036f6103cb61038561037461036f368d613053565b613acc565b61037e87826142c4565b9687613e4c565b946103b560018b01546103ae61034e6013546103486103346103a68d615700565b61033a615d83565b9083613e4c565b986103c561034e8c54928c61484a565b91613e4c565b953690613053565b84613da9565b600d5460405163dfc4d7c760e01b815230600482015290602090829060249082906001600160a01b03165afa9081156106205760805191610663575b5061049595610443610438602096959461043261044d958a6149fb565b90613d07565b916010549083613e4c565b9560105491613e4c565b600e54909790610466906001600160a01b03168361413c565b600e5460405163a2a6c7a760e01b81529687946001600160a01b039092169385938493913033600487016133f2565b0391608051905af1918215610620576080519261062d575b506104c16104386104cb93601054906142c4565b9360105491613e4c565b600d546104e1906001600160a01b03168261413c565b600d54604051631756404160e31b8152336004820152602481018390526080519091602091839160449183916001600160a01b03165af18015610620576105ed575b50906105876001858461053d876105b6976105be9a613fda565b6001600160801b03601554166105596002840154928754614041565b86556105688885880154614041565b848701556002860155600385015561058081546150c7565b01546150c7565b61059230825461413c565b6105a030600183015461413c565b6105ab33825461413c565b60013391015461413c565b601254614041565b6012556105c96136a8565b600c805463ffffffff60301b19164260301b63ffffffff60301b1617905560805180f35b602090819392933d8311610619575b6106068183613024565b8101031261061557905f610523565b5f80fd5b503d6105fc565b6040513d608051823e3d90fd5b91506020823d60201161065b575b8161064860209383613024565b81010312610615579051906104c16104ad565b3d915061063b565b9050602093929193813d602011610697575b8161068260209383613024565b81010312610615575191929091610495610415565b3d9150610675565b60805180fd5b3461069f5760805136600319011261069f57602060155460801c604051908152f35b3461069f5760805136600319011261069f57602063ffffffff600c5460301c16604051908152f35b3461069f57602036600319011261069f576004358060020b809103610615576080515260186020526060604060805120805490600260018201549101549060405192835260208301526040820152f35b3461069f5761014036600319011261069f57610759612f33565b90610762612f1d565b916044356001600160401b03811161069f57610782903690600401613053565b9136606319011261069f576020926107a18361036f6107a79585614a9e565b91614bf4565b604051908152f35b3461069f57602036600319011261069f576001600160a01b036107d0612f33565b16608051526004602052602060406080512054604051908152f35b3461069f57604036600319011261069f57610804612f33565b5061080d612f1d565b5060405163d411f9a960e01b8152600490fd5b3461069f5760805136600319011261069f576020600c5461ffff60405191831c168152f35b3461069f5760805136600319011261069f5760206040516127108152f35b3461069f5760805136600319011261069f5760206040516001600160801b037f0000000000000000000000000000000000000000000000000000000000000000168152f35b3461069f5760805136600319011261069f576020600c5460501c60020b604051908152f35b3461069f57602036600319011261069f5760043560805152601b602052604080608051206001815491015482519182526020820152f35b3461069f57602036600319011261069f5760206107a7600435614e0f565b3461069f5760805136600319011261069f576020601454604051908152f35b3461069f5760805136600319011261069f576020601354604051908152f35b3461069f5761012036600319011261069f576004356001600160401b03811161069f57610991903690600401613053565b9061099a612f1d565b9036604319011261069f576109ad6135e5565b6109b682613acc565b6109bf81614e0f565b6040516374c2fda360e11b81523360048201523060248201526101406044820152936001600160a01b039391906109fb90610144870190614dd8565b9060443585811680910361061557606487015260643585811680910361061557608487015260843560a487015260a43560c487015260c4359160ff831680930361061557869260e484015261010460e43581850152356101248401528260209788920381608051897f0000000000000000000000000000000000000000000000000000000000000000165af180156106205760805190610ca6575b610ab29250610aad610aa6615b93565b8092615110565b613e4c565b9281168015610c8c577f40a03cb7753ac431404d7dabd793114244b9504f18ba3f66c2d1244bc117ca0e9260809260055461ffff9081610af3818316615def565b1661ffff1980921617600555610b0b88600654613bd7565b600655845f5260048952610b238860405f2054613bd7565b855f5260048a5260405f205560038952610b428260405f205416615def565b91855f5260038a5260405f209216908254161790555f80526004875260405f205480610c60575b50825f526004875260405f20549081610c32575b5050610b89338661413c565b610b94600654615e22565b815f7fddf252ad1be2c89b69c2b068fc378daa952ba7f163c4a11628f55a4df523b3ef88600a54604051908152a3815f7f27717e7ab7bb4c260a567a3e9e1800d1d1d9f9dda250385529cb585b7f549e9488604051898152a360405191338352868301526040820152836060820152a1610c0c6136a8565b600c805463ffffffff60301b19164260301b63ffffffff60301b16179055604051908152f35b610c3e610c5992615e22565b835f5260048852610c538160405f205461413c565b8661413c565b8680610b7d565b610c6990615e22565b5f805260048752610c7d60405f20546140e4565b610c86866140e4565b87610b69565b60405163ec442f0560e01b81526080516004820152602490fd5b508582813d8311610cce575b610cbc8183613024565b8101031261061557610ab29151610a96565b503d610cb2565b3461069f57604036600319011261069f5760206107a7610cf3612f33565b6024359033614bf4565b3461069f5760805136600319011261069f576080805133905260036020525160408120805461ffff1916905580f35b3461069f5760805136600319011261069f57600d546040516001600160a01b039091168152602090f35b3461069f57604036600319011261069f57610d6f612f33565b6024356001600160401b03811161069f57602091610d9761036f6107a7933690600401613053565b9033614bf4565b612f5d565b613116565b3461069f5761016036600319011261069f57610dc2612f33565b90610dcb612f1d565b90604435906064356001600160401b03811161069f57610def903690600401613053565b9036608319011261069f5760e435804211610fd157608435906001600160a01b039081831690818403610615578183891603610fa85760a435908382169182810361061557823303610f7f575085519060c43591828103610f6157509060429291845f52600260205260405f208054906001820190556040519260208401947f93d8009bee40988d1c028b4098d01ce80031d9f6d397b9d85bbf53f8390279df86528760408601526060850152608084015260a083015260c082015260c08152610eb881612fd3565b519020610ec361419a565b906040519161190160f01b8352600283015260228201522091610104359260ff8416840361061557610f0b93610f029161014435916101243591615a8e565b90949194615b10565b821603610f385760206107a787876107a188610f2f610f298a613acc565b826149fb565b906103c5615b93565b6040516325c0072360e11b81526001600160a01b03918216600482015291166024820152604490fd5b604490836040519163112139c560e01b835260048301526024820152fd5b60405163ae8c825f60e01b81523360048201526001600160a01b03919091166024820152604490fd5b6040516312441e3960e21b81526001600160a01b03898116600483015285166024820152604490fd5b6024906040519063313c898160e11b82526004820152fd5b3461069f5760805136600319011261069f576020600654604051908152f35b3461069f5760805136600319011261069f576040516008545f8261102b836131cf565b91828252602093600190856001821691825f146110cc575050600114611071575b5061105992500383613024565b61106d604051928284938452830190612ef9565b0390f35b84915060085f527ff3f7a9fe364faab93b216da50a3214154f22a0a2b415b23a84c8169e8b636ee3905f915b8583106110b457505061105993508201018561104c565b8054838901850152879450869390920191810161109d565b60ff19168582015261105995151560051b850101925087915061104c9050565b3461069f576110fa36613164565b90916111116102bc600c5460501c60020b83613207565b6111196135e5565b600f54600d54604051630681320d60e51b8082526001600160a01b039283166004830152909290911690602083602481855afa92831561062057608051936115d9575b50600e546040519182526001600160a01b0316600482015290602090829060249082905afa90811561062057608051916115a7575b506015546001600160801b0316906111a8926136fe565b60020b938160020b9485126111bc90613269565b6111c582614374565b906111d03686613053565b6111d990613acc565b90366111e491613053565b6111ed90613acc565b906013546111fa83615700565b611202615d83565b61120b91614f81565b9061121590615700565b61121e91615024565b6112279061566c565b92611232908461484a565b61123b9061566c565b9061124690826149fb565b906010546112549183613e4c565b926010549061126292613e4c565b956080515260186020526080516040902093833390611280916153f6565b60805152601a6020526080516040902096875415928315602494611596575b6112a8906132a3565b600e5460405163dfc4d7c760e01b81523060048201529460209186919082906001600160a01b03165afa938415610620578994889160805191611554575b509161044361136e611316611379946104326113646113366113c19d61132c61132161131660209f9e9d8c6149fb565b926010549084613e4c565b996010549083613e4c565b9a60105491613e4c565b9b6104328d8961135961135e838361135961135383601254613bd7565b9b6132e1565b613cda565b94613319565b9160125490613da9565b936010549083613e4c565b600d54909890611392906001600160a01b03168361413c565b600d5460405163a2a6c7a760e01b81529687946001600160a01b039092169385938493913033600487016133f2565b0391608051905af1918215610620576080519261151f575b5060206113fc61144c926113f2610438601054876142c4565b9760105491613e4c565b600e54909690611415906001600160a01b03168261413c565b600e54604051631756404160e31b81523360048201526024810192909252909283916001600160a01b031690829081906044820190565b0391608051905af18015610620576114ee575b506001836114b56105be9794611499856114808a6114c0986114e69b613ffa565b6001600160801b03601554168a6002870154928a614016565b3360805152601c60205262ffffff604060805120911690615613565b5061058081546150c7565b6114cb30825461413c565b6114de60018201916114de30845461413c565b33905461413c565b601254613bd7565b602090819693963d8311611518575b6115078183613024565b81010312610615578594919461145f565b503d6114fd565b9091506020813d60201161154c575b8161153b60209383613024565b8101031261061557519060206113d9565b3d915061152e565b949392955050506020833d60201161158e575b8161157460209383613024565b8101031261061557915188939192919087906104436112e6565b3d9150611567565b50600389015460028801541461129f565b90506020813d6020116115d1575b816115c260209383613024565b81010312610615575186611191565b3d91506115b5565b9092506020813d602011611606575b816115f560209383613024565b81010312610615575191602061115c565b3d91506115e8565b3461069f5760805136600319011261069f57602061ffff600c5460101c16604051908152f35b3461069f5760805136600319011261069f5760206001600160801b0360155416604051908152f35b3461069f5760805136600319011261069f576020601654604051908152f35b3461069f5760805136600319011261069f576116b67f0000000000000000000000000000000000000000000000000000000000000000615768565b9061106d6116e37f0000000000000000000000000000000000000000000000000000000000000000615865565b611724604051916116f383612fb8565b6080518352611716604051968796600f60f81b8852806020890152870190612ef9565b908582036040870152612ef9565b9046606085015230608085015260805160a085015283820360c0850152613131565b3461069f57602036600319011261069f576001600160a01b03611767612f33565b16608051526002602052602060406080512054604051908152f35b3461069f5760805136600319011261069f57600f546040516001600160a01b039091168152602090f35b3461069f57602036600319011261069f576001600160a01b036117cd612f33565b1660805152600360205260206107a761ffff6040608051205416600a549061334b565b3461069f57602036600319011261069f576001600160a01b03611811612f33565b1660805152601c602052602060406080512054604051908152f35b3461069f5760805136600319011261069f5760206040516001600160801b037f0000000000000000000000000000000000000000000000000000000000000000168152f35b3461069f57602036600319011261069f576004358060010b80910361069f57608051526019602052602060406080512054604051908152f35b3461069f57602036600319011261069f5760043560805152601a602052608060408151208054906001810154906003600282015491015491604051938452602084015260408301526060820152f35b3461069f5760805136600319011261069f576020600a54604051908152f35b3461069f5760805136600319011261069f5760206107a7613509565b3461069f5760805136600319011261069f57600e546040516001600160a01b039091168152602090f35b3461069f57604036600319011261069f576119b661197a612f33565b611982613389565b5060018060a01b03811660805152601c6020526119a6602435604060805120615523565b90549060031b1c60020b906153f6565b60805152601a60205260806119ce6040825120613319565b6119f96040518092606080918051845260208101516020850152604081015160408501520151910152565bf35b3461069f5760805136600319011261069f57602061ffff600c5416604051908152f35b3461069f5760805136600319011261069f576040517f00000000000000000000000000000000000000000000000000000000000000006001600160a01b03168152602090f35b3461069f576003196101403682011261069f576001600160401b036004351161069f576080906004353603011261069f57611a9d6130f6565b611aa5613106565b9136606319011261069f57611ad26102bc600c5460501c60020b611acc6102bc8287613207565b83613207565b611ae38160020b8360020b12613269565b611aeb6135e5565b600f54600d54604051630681320d60e51b81526001600160a01b0391821660048201529116602082602481845afa91821561062057608051926121a8575b50602060018060a01b03600e5416602460405180948193630681320d60e51b835260048301525afa9081156106205760805191612174575b50611b8991611b7c916001600160801b0360155416916136fe565b60020b8360020b12613269565b8060020b60805152601860205260406080512090611ba781336153f6565b60805152601a60205260406080512092611bca60038501546002850154146132a3565b8060020b60805152601860205260406080512090611be881336153f6565b60805152601a60205260406080512092611c0b60038501546002850154146132a3565b611c1d61036f36600435600401613053565b94865496600181015491611c3f61034e61034060135461033a61033488615700565b611c88611c5c6001600160801b03611c5689614374565b16615c05565b611c838c611c7d610334611c77611c71615ca9565b93615700565b94615700565b92614f81565b615024565b611ca9611c96601154615700565b828315612166575b8115612156576154ac565b90611cb39061566c565b601054611cc09183613e4c565b99601354611ccd8c615700565b90611cd790615700565b611ce091614f81565b611ce8615d83565b611cf191615024565b611cfa9061566c565b91611d058385614041565b90611d1085836149fb565b611d1991613d07565b91611d23916149fb565b611d2c91613d07565b90601054611d3a9183613e4c565b99601054611d489183613e4c565b9a601054611d569183613e4c565b94601054611d649183613e4c565b9160105490611d7292613e4c565b93808b611d7e8a6132e1565b91611d8892613cda565b818c611d938c613319565b91611d9d92613cda565b611da691613d07565b90601054611db49183613e4c565b91601054611dc29183613e4c565b94601054611dd09183613e4c565b9a601054611dde9183613e4c565b9960105490611dec92613e4c565b98611df78a8c614041565b600e54611e0d906001600160a01b03168261413c565b600160a01b60019003600e54166040519163a2a6c7a760e01b8352336004840152306024840152604483015260648201610160905260043560040135610164830152600435602401611e5e90613045565b60ff16610184830152611e75604460043501613045565b60ff166101a4830152600435606401356022196004353603018112156106155760043501602460048201359101916001600160401b0382116106155781360383136106155760806101c4850152816101e48501528161020493848601375f8285018401526064356001600160a01b0381169081900361061557608485015260843560018060a01b0381168091036106155760a485015260a43560c485015260c43560e485015260e4359160ff831680930361061557602093858094928193610104908184015261012490358184015235610144830152601f80199101168101030191608051905af19081156106205760805191612124575b50601054611f7a916142c4565b91601054611f889184613e4c565b94601054611f969184613e4c565b9a601054611fa49184613e4c565b50601054611fb29183613e4c565b9860105490611fc092613e4c565b50611fcc898484613fda565b611fd7898483613fda565b3360805152601c6020526080516040902062ffffff809516611ff891615538565b508054612004906150c7565b60010154612011906150c7565b3081549061201e9161413c565b3060018201549061202e9161413c565b3381549061203b9161413c565b6001015461204a90339061413c565b612055868286613ffa565b856015546001600160801b03166002860154916120729388614016565b3360805152601c60205260805160409020911661208e91615613565b50805461209a906150c7565b600101546120a7906150c7565b308154906120b49161413c565b6001810190308254906120c69161413c565b546120d290339061413c565b546120de90339061413c565b601254906120eb91613bd7565b906120f591614041565b6012556121006136a8565b600c805463ffffffff60301b191663ffffffff60301b4260301b1617905560805180f35b90506020813d60201161214e575b8161213f60209383613024565b8101031261061557518c611f6d565b3d9150612132565b9050612160615cdf565b906154ac565b5061216f615cdf565b611c9e565b90506020813d6020116121a0575b8161218f60209383613024565b810103126106155751611b89611b61565b3d9150612182565b9091506020813d6020116121d4575b816121c460209383613024565b8101031261061557519084611b29565b3d91506121b7565b3461069f5760805136600319011261069f5760206107a761419a565b3461069f5760805136600319011261069f5760ff7f00000000000000000000000000000000000000000000000000000000000000001660ff811161224157602090604051908152f35b634e487b7160e01b6080515260116004526024608051fd5b3461069f5760208060031936011261069f57612273612f33565b9060018060a01b038216918260805152601c90601c8352604060805120549161229b83613372565b946122a96040519687613024565b8386526122b584613372565b601f1901856080515b82811061239e57505060805190505b84811061233f57858760405190828201838352815180915283604084019201936080515b8281106122fe5784840385f35b909192826080826123306001948a51606080918051845260208101516020850152604081015160408501520151910152565b019601910194929190946122f1565b600190826080515283875261236c61235c82604060805120615523565b90549060031b1c60020b866153f6565b60805152601a8752612382604060805120613319565b61238c828a6133de565b5261239781896133de565b50016122cd565b6123a6613389565b82828b0101520186906122be565b3461069f57606036600319011261069f57610804612f33565b3461069f5760805136600319011261069f576020601754604051908152f35b3461069f5760805136600319011261069f576020601254604051908152f35b3461069f5760805136600319011261069f5760206107a761ffff60055416600a549061334b565b3461069f5760031960603682011261069f57600435906001600160401b03821161069f57608090823603011261069f5761246a6130f6565b90612473613106565b90600c5460501c906124a96124a1600293840b61249b6124938288613207565b860b1561322d565b86613207565b830b1561322d565b82820b9084830b6124bb818413613269565b6124c36135e5565b600f54600d54604051630681320d60e51b8082526001600160a01b039283166004830152909290911690602083602481855afa9283156106205760805193612a2d575b50600e546040519182526001600160a01b0316600482015290602090829060249082905afa90811561062057608051916129f9575b5061255f91612556916001600160801b0360155416916136fe565b850b8412613269565b6080515260186020526040608051209361257986336153f6565b60805152601a6020526040608051209261259b600385015486880154146132a3565b608051526018602052604060805120906125b581336153f6565b60805152601a6020526125e761036f604060805120946125dd600387015489870154146132a3565b3690600401613053565b9684549760018601549761260a61034e6103408b61033a61033460135492615700565b97886126398c611c836126276001600160801b03611c568b614374565b91611c7d610334611c77611c71615ca9565b60246126b061267461266a612664612652601154615700565b868715612166578115612156576154ac565b9461566c565b6010549085613e4c565b966104326126a961269e61269761034e6103408d61033a61033460135492615700565b9788614041565b9561043288886149fb565b9185613da9565b600e5460405163dfc4d7c760e01b81523060048201529193919260209184919082906001600160a01b03165afa9081156129ee575f916129b8575b6126f592506149fb565b6126fe91613d07565b9060105461270c9183613e4c565b9360105461271a9183613e4c565b9b6010546127289183613e4c565b9a6010546127369183613e4c565b996010549061274492613e4c565b998b6012549061275391613bd7565b8c8280826127608c6132e1565b9161276a92613cda565b916127748c613319565b9161277e92613cda565b61278791613d07565b9060125461279491613da9565b61279d91613d07565b906010546127ab9183613e4c565b936010546127b99183613e4c565b9b601054906127c792613e4c565b9788926127d58b8684613fda565b6127e08b8683613fda565b3360805152601c6020526080516040902062ffffff80971661280191615538565b50805461280d906150c7565b6001015461281a906150c7565b308154906128279161413c565b306001820154906128379161413c565b338154906128449161413c565b6001015461285390339061413c565b61285e828488613ffa565b6015546001600160801b031690860154916128799388614016565b3360805152601c60205260805160409020911661289591615613565b5080546128a1906150c7565b600101546128ae906150c7565b308154906128bb9161413c565b6001810190308254906128cd9161413c565b546128d990339061413c565b546128e590339061413c565b601254906128f291613bd7565b906128fc91614041565b6012556129076136a8565b600c805463ffffffff60301b191663ffffffff60301b4260301b1617905561292e91614041565b600e54612944906001600160a01b03168261413c565b600e54604051631756404160e31b815233600482015260248101929092526001600160a01b031681806044810103816080515a94602095f180156106205761298d575b60805180f35b602090813d83116129b1575b6129a38183613024565b810103126106155780612987565b503d612999565b90506020823d6020116129e6575b816129d360209383613024565b81010312610615576126f59151906126eb565b3d91506129c6565b6040513d5f823e3d90fd5b90506020813d602011612a25575b81612a1460209383613024565b81010312610615575161255f61253b565b3d9150612a07565b9092506020813d602011612a5a575b81612a4960209383613024565b810103126106155751916020612506565b3d9150612a3c565b3461061557610140366003190112610615576004356001600160401b03811161061557612a93903690600401613053565b612a9b612f1d565b6044356001600160a01b03818116949092908583036106155736606319011261061557612ac66135e5565b612acf84613acc565b94612ad986613576565b94813303612e26575b612aea615b93565b90825f52612b188260209960048b52612b1282612b0b60405f2054846149fb565b9b8c613e4c565b99613e4c565b50857f0000000000000000000000000000000000000000000000000000000000000000169173ea30c4b8b44078bbf8a6ef5b9f1ec1626c7848d9803b15610615576040516346ce4e4960e11b8152600481018a90526001600160a01b0385166024820152905f908290604490829084905af180156129ee57612e13575b50604051631756404160e31b81526001600160a01b03861660048201526024810189905260805190938a91859160449183915af19283156106205760805193612de2575b506103c5612bea82612bf095615110565b92613acc565b908015612dc8577fd54f94fb7ed9e89d9722d16ca9701850b67cd94dc8ab3f699edb8317015bec8b945f827f27717e7ab7bb4c260a567a3e9e1800d1d1d9f9dda250385529cb585b7f549e948a60a09883855260048252612c61612c5860408720548a6149fb565b896103c5615b93565b9084865260048352612c77826040882054614041565b8587526004845260408720556003835261ffff612c9981604089205416615dbd565b86885260038552604088208261ffff1992168282541617905560055491612cc1818416615dbd565b16911617600555612cd482600654614041565b6006558486526004835260408620549081612d9a575b505084805260048252604085205480612d6e575b50612d09338261413c565b612d14600654615e22565b84847fddf252ad1be2c89b69c2b068fc378daa952ba7f163c4a11628f55a4df523b3ef84600a54604051908152a3604051908152a360405193338552168784015260408301528460608301526080820152a1610c0c6136a8565b612d7790615e22565b84805260048252612d8b60408620546140e4565b612d94816140e4565b8d612cfe565b612da6612dc192615e22565b85875260048452612dbb81604089205461413c565b8261413c565b8d80612cea565b604051634b637e8f60e11b81526080516004820152602490fd5b92508883813d8311612e0c575b612df98183613024565b81010312610615579151916103c5612bd9565b503d612def565b612e1c90612f76565b5f60805289612b95565b612e308185614a9e565b612ae2565b346106155760203660031901126106155760206107a7600435613576565b34610615575f366003190112610615576007545f82612e71836131cf565b91828252602093600190856001821691825f146110cc575050600114612e9e575061105992500383613024565b84915060075f527fa66cc928b5edb82af9bd49922954155ab7b0942694bea4ce44661d9a8736c688905f915b858310612ee157505061105993508201018561104c565b80548389018501528794508693909201918101612eca565b805180835260209291819084018484015e5f828201840152601f01601f1916010190565b602435906001600160a01b038216820361061557565b600435906001600160a01b038216820361061557565b35906001600160a01b038216820361061557565b346106155760403660031901126106155761080d612f33565b6001600160401b038111612f8957604052565b634e487b7160e01b5f52604160045260245ffd5b608081019081106001600160401b03821117612f8957604052565b602081019081106001600160401b03821117612f8957604052565b60e081019081106001600160401b03821117612f8957604052565b606081019081106001600160401b03821117612f8957604052565b604081019081106001600160401b03821117612f8957604052565b90601f801991011681019081106001600160401b03821117612f8957604052565b359060ff8216820361061557565b9190608083820312610615576040519261306c84612f9d565b8381358152602061307e818401613045565b8183015261308e60408401613045565b604083015260608301356001600160401b039384821161061557019084601f83011215610615578135938411612f8957604051946130d5601f8601601f1916830187613024565b8486528185840101116106155783606094825f940183880137850101520152565b602435908160020b820361061557565b604435908160020b820361061557565b34610615575f36600319011261061557602060405160018152f35b9081518082526020808093019301915f5b828110613150575050505090565b835185529381019392810192600101613142565b6003199061014081830112610615576001600160401b039260043584811161061557608084828503011261061557600401936024358060020b810361061557936044359182116106155760809082850301126106155760e09060040192606319011261061557606490565b90600182811c921680156131fd575b60208310146131e957565b634e487b7160e01b5f52602260045260245ffd5b91607f16916131de565b9060020b9081156132195760020b0790565b634e487b7160e01b5f52601260045260245ffd5b1561323457565b60405162461bcd60e51b815260206004820152600d60248201526c151a58dad39bdd14dc1858d959609a1b6044820152606490fd5b1561327057565b60405162461bcd60e51b815260206004820152600b60248201526a496e76616c69645469636b60a81b6044820152606490fd5b156132aa57565b60405162461bcd60e51b815260206004820152600f60248201526e24b73b30b634b22837b9b4ba34b7b760891b6044820152606490fd5b90604051606081018181106001600160401b03821117612f895760405260406002829480548452600181015460208501520154910152565b9060405161332681612f9d565b6060600382948054845260018101546020850152600281015460408501520154910152565b8181029291811591840414171561335e57565b634e487b7160e01b5f52601160045260245ffd5b6001600160401b038111612f895760051b60200190565b6040519061339682612f9d565b5f6060838281528260208201528260408201520152565b8051156133ba5760200190565b634e487b7160e01b5f52603260045260245ffd5b8051600110156133ba5760400190565b80518210156133ba5760209160051b010190565b93919594926101609160018060a01b0397888092168752166020860152604085015280606085015281359084015260ff61342e60208301613045565b1661018084015260ff61344360408301613045565b166101a08401526060810135601e19823603018112156106155701602081359101916001600160401b038211610615578136038313610615576101409260c09260806101c0870152806101e08701528061020092838801375f868201830152601f01601f191685010195806134b783612f49565b1660808601526134c960208301612f49565b1660a0850152604081013582850152606081013560e085015260ff6134f060808301613045565b1661010085015260a08101356101208501520135910152565b63ffffffff600c5460301c168042115f146135645761034e6103406135536135619361354d6016549161354761354260175492426153e9565b615c05565b90615923565b90613bd7565b61033a610334600654615700565b90565b5061356161034e610340601654613553565b613561906135dd6135d76135ca6135bc6135a7613599613594613509565b615700565b6135a1615c36565b90614e3b565b61033a6135b6600b5483614ede565b96615700565b610348613599600654615700565b92610432600b5485614ede565b9161566c565b6103c5615b93565b63ffffffff80600c5460301c1642036135fb5750565b61362660135461354d61361260155460801c615c05565b61354761354286600c5460301c16426153e9565b60135561364960165461354d60175461354761354286600c5460301c16426153e9565b6016556015549061368061367861366f6001600160801b0393600c5460301c16426153e9565b8460801c61334b565b828416614367565b16906001600160801b0319161760155561369b6013546150c7565b6136a66016546150c7565b565b6136b06151b3565b6136a66136eb6006546136e26136c8601054836142c4565b916136dd60125461354760155460801c615c05565b6159c6565b60175491613e4c565b806017556150c7565b8115613219570490565b91906001600160801b03928060501b90808204600160501b149015171561335e57839161372a916136f4565b1690670de0b6b3a76400009182810292818404149015171561335e578291826137549216906136f4565b1661271061376a61ffff9283600c54169061334b565b048281169064010001d8f982101580613ab3575b15613a8a5775ffffffffffffffffffffffffffffffff0000000000009060301b168084811160071b9181831c926001600160401b03841160061b93841c9363ffffffff851160051b94851c946004978611881b95861c60ff9687821160031b91821c92600f841160021b93841c94600160038711811b96871c1196171717171717179160808310155f14613a765750607e198201828111613a63571c5b607f198201918213600116613a50578002607f928392828493841c81841c1c800280851c81851c1c800280861c81861c1c800280871c81871c1c80029081881c82881c1c80029283891c84891c1c800294858a1c868a1c1c800296878b1c888b1c1c800298898c1c8a8c1c1c80029a8b8d1c8c821c1c8002809d1c8d821c1c8002809e81901c90821c1c80029e8f80911c911c1c800260cd1c6604000000000000169d60cc1c6608000000000000169c60cb1c6610000000000000169b60ca1c6620000000000000169a60c91c6640000000000000169960c81c6680000000000000169860c71c670100000000000000169760c61c670200000000000000169660c51c670400000000000000169560c41c670800000000000000169460c31c671000000000000000169360c21c672000000000000000169260c11c674000000000000000169160c01c678000000000000000169060401b1717171717171717171717171717691b13d180eb8b7200000090818102918183051490151715613a3d576f028f6481ab7f045a5af012a19d003aa9198101600182821316613a2a5760801d60020b926fdb2df09e81959a81455e260799a0632f915f8382019384129112908015821691151617613a17575060801d60020b928284036139ff575050905090565b613a0884614374565b1611613a12575090565b905090565b601190634e487b7160e01b5f525260245ffd5b601184634e487b7160e01b5f525260245ffd5b601183634e487b7160e01b5f525260245ffd5b601185634e487b7160e01b5f525260245ffd5b601186634e487b7160e01b5f525260245ffd5b905081607f03607f8111613a63571b61381b565b60405162461bcd60e51b81526020600482015260016024820152602960f91b6044820152606490fd5b506ffffe270a5e3428000000000000000000821061377e565b60409060ff828201511660068103613bb957506060613b5391835190613af182612f9d565b5f825282602093835f86809601525f888201520152805190606060ff848301511691015190865192613b2284612f9d565b83528383015260068683015260608201528451809481926313fce3b160e11b83528760048401526044830190614dd8565b33602483015203815f73ea30c4b8b44078bbf8a6ef5b9f1ec1626c7848d95af1928315613bb057505f92613b8657505090565b90809250813d8311613ba9575b613b9d8183613024565b81010312610615575190565b503d613b93565b513d5f823e3d90fd5b6044908351906367cf307160e01b8252600482015260066024820152fd5b908115613cca575b8015613cbc575b60405191613bf383612fee565b600283526040366020850137613c08836133ad565b52613c12826133ce565b526020613c5c60405192613c2584612fb8565b5f8452613c6e6040519485938493631888debd60e01b85526006600486015260086024860152608060448601526084850190613131565b83810360031901606485015290613131565b03815f73ea30c4b8b44078bbf8a6ef5b9f1ec1626c7848d95af19081156129ee575f91613c99575090565b90506020813d602011613cb4575b81613b9d60209383613024565b3d9150613ca7565b50613cc5615b93565b613be6565b9050613cd4615b93565b90613bdf565b61043290613cff613cf061356195948351613bd7565b613cff60208401958651613bd7565b925190613da9565b908115613d99575b8015613d8b575b60405191613d2383612fee565b600283526040366020850137613d38836133ad565b52613d42826133ce565b526020613c5c60405192613d5584612fb8565b5f8452613c6e6040519485938493631888debd60e01b85525f6004860152600a6024860152608060448601526084850190613131565b50613d94615d11565b613d16565b9050613da3615d11565b90613d0f565b908115613e3c575b8015613e2e575b60405191613dc583612fee565b600283526040366020850137613dda836133ad565b52613de4826133ce565b526020613c5c60405192613df784612fb8565b5f8452613c6e6040519485938493631888debd60e01b85526006600486015260126024860152608060448601526084850190613131565b50613e37615b93565b613db8565b9050613e46615b93565b90613db1565b91908215613f06575b8015613ef8575b8115613ee8575b60405192613e7084612f9d565b600384526060366020860137613e85846133ad565b52613e8f836133ce565b528151600210156133ba5760608201526020613c5c60405192613eb184612fb8565b5f8452613c6e6040519485938493631888debd60e01b85526006600486015260046024860152608060448601526084850190613131565b9050613ef2615b93565b90613e63565b50613f01615b93565b613e5c565b9150604051613f1481612fb8565b5f815260405190613f2482612f9d565b6003825260603660208401375f613f3a836133ad565b525f613f45836133ce565b528151600210156133ba575f6060830152604051631888debd60e01b81529160209183918291613f79919060048401615488565b03815f73ea30c4b8b44078bbf8a6ef5b9f1ec1626c7848d95af19081156129ee575f91613fa8575b5091613e55565b90506020813d602011613fd2575b81613fc360209383613024565b8101031261061557515f613fa1565b3d9150613fb6565b600190613feb613ff6938254614041565b815501918254614041565b9055565b60019061400b613ff6938254613bd7565b815501918254613bd7565b91614025600394928454613bd7565b835561403660018401918254613bd7565b905560028201550155565b9081156140d4575b80156140c6575b6040519161405d83612fee565b600283526040366020850137614072836133ad565b5261407c826133ce565b526020613c5c6040519261408f84612fb8565b5f8452613c6e6040519485938493631888debd60e01b85526006600486015260076024860152608060448601526084850190613131565b506140cf615b93565b614050565b90506140de615b93565b90614049565b73ea30c4b8b44078bbf8a6ef5b9f1ec1626c7848d990813b15610615575f91604483926040519485938492631974142760e21b845260048401528160248401525af180156129ee576141335750565b6136a690612f76565b73ea30c4b8b44078bbf8a6ef5b9f1ec1626c7848d991823b1561061557604051631974142760e21b815260048101929092526001600160a01b03166024820152905f908290818381604481015b03925af180156129ee576141335750565b307f00000000000000000000000000000000000000000000000000000000000000006001600160a01b0316148061429b575b156141f5577f000000000000000000000000000000000000000000000000000000000000000090565b60405160208101907f8b73c3c69bb8fe3d512ecc4cf759cc79239f7b179b0ffacaa9a75d522b39400f82527f000000000000000000000000000000000000000000000000000000000000000060408201527f000000000000000000000000000000000000000000000000000000000000000060608201524660808201523060a082015260a0815260c081018181106001600160401b03821117612f895760405251902090565b507f000000000000000000000000000000000000000000000000000000000000000046146141cc565b908115614357575b8015614349575b604051916142e083612fee565b6002835260403660208501376142f5836133ad565b526142ff826133ce565b526020613c5c6040519261431284612fb8565b5f8452613c6e6040519485938493631888debd60e01b85526006600486015260156024860152608060448601526084850190613131565b50614352615b93565b6142d3565b9050614361615b93565b906142cc565b9190820180921161335e57565b60020b5f81121561484457600160ff1b811461335e57805f035b620513b7811161481b576001811615614809576001600160881b036ffff97272373d413259a46990580e213a5b1691600282166147dd575b6004918281166147b1575b60088116614785575b60108116614759575b6020811661472d575b60408116614701575b6080908181166146d6575b61010081166146ab575b6102008116614680575b6104008116614655575b610800811661462a575b61100081166145ff575b61200081166145d4575b61400081166145a9575b618000811661457e575b620100008116614554575b62020000811661452b575b620400008116614504575b62080000166144e0575b505f126144bb575b506144ae6001600160801b039165ffffffffffff8116155f146144b25760ff5f5b169060301c614367565b1690565b60ff60016144a4565b81156144cd57505f19046144ae614483565b601290634e487b7160e01b5f525260245ffd5b66149b34ee7ac26393919391828102928184041490151715613a3d571c915f61447b565b936b048a170391f7dc42444e8fa290818102918183041490151715613a2a57811c93614471565b936d2216e584f5fa1ea926041bedfe9890818102918183041490151715613a2a57811c93614466565b936e5d6af8dedb81196699c329225ee60490818102918183041490151715613a2a57811c9361445b565b936f09aa508b5b7a84e1c677de54f3e99bc990818102918183041490151715613a2a57811c93614450565b936f31be135f97d08fd981231505542fcfa690818102918183041490151715613a2a57811c93614446565b936f70d869a156d2a1b890bb3df62baf32f790818102918183041490151715613a2a57811c9361443c565b936fa9f746462d870fdf8a65dc1f90e061e590818102918183041490151715613a2a57811c93614432565b936fd097f3bdfd2022b8845ad8f792aa582590818102918183041490151715613a2a57811c93614428565b936fe7159475a2c29b7443b29c7fa6e889d990818102918183041490151715613a2a57811c9361441e565b936ff3392b0822b70005940c7a398e4b70f390818102918183041490151715613a2a57811c93614414565b936ff987a7253ac413176f2b074cf7815e5490818102918183041490151715613a2a57811c9361440a565b936ffcbe86c7900a88aedcffc83b479aa3a490818102918183041490151715613a2a57811c93614400565b926ffe5dee046a99a2a811c461f1969c305390818102918183041490151715613a3d5760801c926143f5565b926fff2ea16466c96a3843ec78b326b5286190818102918183041490151715613a3d5760801c926143ec565b926fff973b41fa98c081472e6896dfb254c090818102918183041490151715613a3d5760801c926143e3565b926fffcb9843d60f6159c9db58835c92664490818102918183041490151715613a3d5760801c926143da565b926fffe5caca7e10e4e61c3624eaa0941cd090818102918183041490151715613a3d5760801c926143d1565b916ffff2e50f5f656932ef12357cf3c7fdcc9081810291818304149015171561335e5760801c916143c6565b6001600160881b03600160801b6143bb565b60405162461bcd60e51b81526020600482015260016024820152601560fa1b6044820152606490fd5b8061438e565b61485390615700565b90604090815161486281612fb8565b5f815282519061487182612f9d565b6003825260209160603684830137600160501b61488d826133ad565b526008614899826133ce565b528051600210156133ba57805f60606148c89301528551918291631888debd60e01b9485845260048401615430565b0395838273ea30c4b8b44078bbf8a6ef5b9f1ec1626c7848d998815f8b5af19081156149f1575f916149c0575b6148ff9250614f81565b9284519561490c87612fb8565b5f87526001600160801b0386519261492384612f9d565b600384526060368786013716614938836133ad565b526008614944836133ce565b528151600210156133ba57614970965f85948160608601528851998a9586948593845260048401615430565b03925af1928315613bb057505f9261498e575b506135619250615024565b90915082813d83116149b9575b6149a58183613024565b81010312610615576135619151905f614983565b503d61499b565b90508382813d83116149ea575b6149d78183613024565b81010312610615576148ff9151906148f5565b503d6149cd565b86513d5f823e3d90fd5b908115614a8e575b8015614a80575b60405191614a1783612fee565b600283526040366020850137614a2c836133ad565b52614a36826133ce565b526020613c5c60405192614a4984612fb8565b5f8452613c6e6040519485938493631888debd60e01b85526006600486015260136024860152608060448601526084850190613131565b50614a89615b93565b614a0a565b9050614a98615b93565b90614a03565b60c43590814211614bdb57606435926001600160a01b039283851692838603610615578385821603614bb15750608435918483169283810361061557833303610f7f5750519060a43591828103610f6157509060429291845f52600260205260405f208054906001820190556040519260208401947f93d8009bee40988d1c028b4098d01ce80031d9f6d397b9d85bbf53f8390279df86528760408601526060850152608084015260a083015260c082015260c08152614b5d81612fd3565b519020614b6861419a565b906040519161190160f01b835260028301526022820152209160e4359260ff8416840361061557614ba693610f029161012435916101043591615a8e565b821603610f38575050565b6040516312441e3960e21b81526001600160a01b0391821660048201529086166024820152604490fd5b60405163313c898160e11b815260048101839052602490fd5b916001600160a01b0380841691908215614dc0578316928315614da8577f27717e7ab7bb4c260a567a3e9e1800d1d1d9f9dda250385529cb585b7f549e9491835f526004602092818452614c51604093610f2f855f2054826149fb565b97865f52828552614c6589855f2054614041565b875f52838652845f20556003855261ffff614c8481865f205416615dbd565b885f5260038752855f208261ffff19921682825416179055895f52848752614caf8b875f2054613bd7565b8a5f52858852865f205560038752614ccb82875f205416615def565b918a5f5260038852865f20921690825416179055865f52828552835f20549081614d7c575b5050865f52818452825f20549182614d50575b505050614d10338761413c565b614d1b600654615e22565b84847fddf252ad1be2c89b69c2b068fc378daa952ba7f163c4a11628f55a4df523b3ef84600a548551908152a351858152a390565b614d5c614d7493615e22565b875f528452614d6e81845f205461413c565b8761413c565b5f8080614d03565b614d88614da192615e22565b875f52838652614d9b81865f205461413c565b8961413c565b5f80614cf0565b60405163ec442f0560e01b81525f6004820152602490fd5b604051634b637e8f60e11b81525f6004820152602490fd5b9060806060613561938051845260ff602082015116602085015260ff60408201511660408501520151918160608201520190612ef9565b613561906135dd6135d76135ca614e2d6135a7613599600654615700565b610348613599613594613509565b908115614ece575b8015614ec0575b60405191614e5783612fee565b600283526040366020850137614e6c836133ad565b52614e76826133ce565b526020613c5c60405192614e8984612fb8565b5f8452613c6e6040519485938493631888debd60e01b85526008600486015260086024860152608060448601526084850190613131565b50614ec9615cdf565b614e4a565b9050614ed8615cdf565b90614e43565b908115614f71575b8015614f63575b60405191614efa83612fee565b600283526040366020850137614f0f836133ad565b52614f19826133ce565b526020613c5c60405192614f2c84612fb8565b5f8452613c6e6040519485938493631888debd60e01b85526008600486015260146024860152608060448601526084850190613131565b50614f6c615cdf565b614eed565b9050614f7b615cdf565b90614ee6565b908115615014575b8015615006575b60405191614f9d83612fee565b600283526040366020850137614fb2836133ad565b52614fbc826133ce565b526020613c5c60405192614fcf84612fb8565b5f8452613c6e6040519485938493631888debd60e01b855260086004860152600f6024860152608060448601526084850190613131565b5061500f615cdf565b614f90565b905061501e615cdf565b90614f89565b9081156150b7575b80156150a9575b6040519161504083612fee565b600283526040366020850137615055836133ad565b5261505f826133ce565b526020613c5c6040519261507284612fb8565b5f8452613c6e6040519485938493631888debd60e01b855260086004860152600d6024860152608060448601526084850190613131565b506150b2615cdf565b615033565b90506150c1615cdf565b9061502c565b73ea30c4b8b44078bbf8a6ef5b9f1ec1626c7848d990813b15610615575f91602483926040519485938492631a778f2d60e11b845260048401525af180156129ee576141335750565b9081156151a3575b8015615195575b6040519161512c83612fee565b600283526040366020850137615141836133ad565b5261514b826133ce565b526020613c5c6040519261515e84612fb8565b5f8452613c6e6040519485938493631888debd60e01b85526006600486015260186024860152608060448601526084850190613131565b5061519e615b93565b61511f565b90506151ad615b93565b90615118565b601454604080519163458693c960e01b8352600483015273ea30c4b8b44078bbf8a6ef5b9f1ec1626c7848d9918181602481865afa80156153df575f915f9161539f575b501561539a576015546001600160801b0380926001600160801b03199060801b16911617601555615226613509565b600e54835163dfc4d7c760e01b815230600482015291929190602090829060249082906001600160a01b03165afa8015615390575f9061535c575b615283915061527a61527382866142c4565b9185614041565b60105491613e4c565b817f0000000000000000000000000000000000000000000000000000000000000000169182817f000000000000000000000000000000000000000000000000000000000000000016039381851161335e576136dd6152fb946152f56152ef61354d956153049916615c05565b91615c05565b94615923565b806014556150c7565b60145491821561534c575b803b15610615578151630828982760e01b815260048101939093523360248401525f908390604490829084905af1908115613bb057506141335750565b9150615356615b93565b9161530f565b506020813d602011615388575b8161537660209383613024565b81010312610615576152839051615261565b3d9150615369565b84513d5f823e3d90fd5b505050565b809250838092503d83116153d8575b6153b88183613024565b81010312610615576020815191015190811515820361061557905f6151f7565b503d6153ae565b82513d5f823e3d90fd5b9190820391821161335e57565b906040519060208201926bffffffffffffffffffffffff199060601b16835260e81b60348201526017815261542a81613009565b51902090565b90916154556135619360088452601a6020850152608060408501526080840190613131565b916060818403910152613131565b90916154556135619360068452601a6020850152608060408501526080840190613131565b9091615455613561935f8452601a6020850152608060408501526080840190613131565b90604051916154ba83612fee565b6002835260403660208501376154cf836133ad565b526154d9826133ce565b526020613c5c604051926154ec84612fb8565b5f8452613c6e6040519485938493631888debd60e01b85526008600486015260136024860152608060448601526084850190613131565b80548210156133ba575f5260205f2001905f90565b906001820191815f528260205260405f2054908115155f1461560b575f199180830181811161335e5782549084820191821161335e578181036155c0575b505050805480156155ac5782019161558e8383615523565b909182549160031b1b19169055555f526020525f6040812055600190565b634e487b7160e01b5f52603160045260245ffd5b6155f66155d06155e09386615523565b90549060031b1c92839286615523565b819391549060031b91821b915f19901b19161790565b90555f528460205260405f20555f8080615576565b505050505f90565b6001810190825f528160205260405f2054155f1461566557805468010000000000000000811015612f89576156526155e0826001879401855584615523565b905554915f5260205260405f2055600190565b5050505f90565b615678613c5c91615a69565b6040519061568582613009565b600182526020928391823681860137600661569f856133ad565b526156d46040519485938493631888debd60e01b85526006600486015260026024860152608060448601526084850190613131565b03815f73ea30c4b8b44078bbf8a6ef5b9f1ec1626c7848d95af19182156129ee575f92613b8657505090565b61570c613c5c91615a69565b6040519061571982613009565b6001825260209283918236818601376008615733856133ad565b526156d46040519485938493631888debd60e01b85526008600486015260026024860152608060448601526084850190613131565b60ff81146157a65760ff811690601f8211615794576040519161578a83613009565b8252602082015290565b604051632cd44ac360e21b8152600490fd5b506040515f815f54916157b8836131cf565b8083529260209060019081811690811561584157506001146157e3575b505061356192500382613024565b9150925f80527f290decd9548b62a8d60345a988386fc84ba6bc95484008f6362f93160ef3e563935f925b82841061582957506135619450505081016020015f806157d5565b8554878501830152948501948694509281019261580e565b9150506020925061356194915060ff191682840152151560051b8201015f806157d5565b60ff81146158875760ff811690601f8211615794576040519161578a83613009565b506040515f8160019160015461589c816131cf565b808452936020916001811690811561584157506001146158c457505061356192500382613024565b91509260015f527fb10e2d527612073b26eecdfd717e6a320cf44b4afac2b0732d9fcbe2b7fa0cf6935f925b82841061590b57506135619450505081016020015f806157d5565b855487850183015294850194869450928101926158f0565b9081156159b6575b80156159a8575b6040519161593f83612fee565b600283526040366020850137615954836133ad565b5261595e826133ce565b526020613c5c6040519261597184612fb8565b5f8452613c6e6040519485938493631888debd60e01b855260066004860152600f6024860152608060448601526084850190613131565b506159b1615b93565b615932565b90506159c0615b93565b9061592b565b908115615a59575b8015615a4b575b604051916159e283612fee565b6002835260403660208501376159f7836133ad565b52615a01826133ce565b526020613c5c60405192615a1484612fb8565b5f8452613c6e6040519485938493631888debd60e01b855260066004860152600d6024860152608060448601526084850190613131565b50615a54615b93565b6159d5565b9050615a63615b93565b906159ce565b60405190615a7682613009565b6001825260203681840137615a8a826133ad565b5290565b91907f7fffffffffffffffffffffffffffffff5d576e7357a4501ddfe92f46681b20a08411615b05579160209360809260ff5f9560405194855216868401526040830152606082015282805260015afa156129ee575f516001600160a01b03811615615afb57905f905f90565b505f906001905f90565b5050505f9160039190565b6004811015615b7f5780615b22575050565b60018103615b3c5760405163f645eedf60e01b8152600490fd5b60028103615b5d5760405163fce698f760e01b815260048101839052602490fd5b600314615b675750565b602490604051906335e2f38360e21b82526004820152fd5b634e487b7160e01b5f52602160045260245ffd5b604051615b9f81612fb8565b5f815260405190615baf82612f9d565b6003825260603660208401375f615bc5836133ad565b526006615bd1836133ce565b528151600210156133ba575f6060830152604051631888debd60e01b81529160209183918291613c6e919060048401615463565b604051615c1181612fb8565b5f815260405191615c2183612f9d565b600383526060366020850137615bc5836133ad565b604051615c4281612fb8565b5f815260405190615c5282612f9d565b6003825260603660208401376001615c69836133ad565b526008615c75836133ce565b528151600210156133ba575f6060830152604051631888debd60e01b81529160209183918291613c6e919060048401615430565b604051615cb581612fb8565b5f815260405190615cc582612f9d565b600382526060366020840137600160501b615bc5836133ad565b604051615ceb81612fb8565b5f815260405190615cfb82612f9d565b6003825260603660208401375f615c69836133ad565b604051615d1d81612fb8565b5f815260405190615d2d82612f9d565b6003825260603660208401376001615d44836133ad565b525f615d4f836133ce565b528151600210156133ba575f6060830152604051631888debd60e01b81529160209183918291613c6e919060048401615488565b604051615d8f81612fb8565b5f815260405190615d9f82612f9d565b600382526060366020840137670de0b6b3a7640000615c69836133ad565b61ffff80911680158015615de5575b615ddd575f190190811161335e5790565b505061138790565b5060018114615dcc565b61ffff80911680158015615e17575b615e0f5760010190811161335e5790565b505061138990565b5061270f8114615dfe565b73ea30c4b8b44078bbf8a6ef5b9f1ec1626c7848d9803b1561061557604051631974142760e21b815260048101929092523060248301525f9082908183816044810161418956fea26469706673582212207a905e54b9dee9aec96e3bce67d0eb98fc5b33192d1e5742459906820e81e9ef64736f6c63430008190033000000000000000000000000ea30c4b8b44078bbf8a6ef5b9f1ec1626c7848d9a66cc928b5edb82af9bd49922954155ab7b0942694bea4ce44661d9a8736c688f3f7a9fe364faab93b216da50a3214154f22a0a2b415b23a84c8169e8b636ee3",
  "linkReferences": {},
  "deployedLinkReferences": {}
}