{
  "_format": "hh-sol-artifact-1",
  "contractName": "Vault",
  "sourceName": "contracts/Vault.sol",
  "abi": [
    {
      "inputs": [
        {
          "internalType": "address",
          "name": "_token",
          "type": "address"
        },
        {
          "internalType": "address",
          "name": "_operator",
          "type": "address"
        },
        {
          "internalType": "string",
          "name": "_fTokenName",
          "type": "string"
        },
        {
          "internalType": "string",
          "name": "_fTokenSymbol",
          "type": "string"
        }
      ],
      "stateMutability": "nonpayable",
      "type": "constructor"
    },
    {
      "inputs": [
        {
          "internalType": "address",
          "name": "owner",
          "type": "address"
        }
      ],
      "name": "OwnableInvalidOwner",
      "type": "error"
    },
    {
      "inputs": [
        {
          "internalType": "address",
          "name": "account",
          "type": "address"
        }
      ],
      "name": "OwnableUnauthorizedAccount",
      "type": "error"
    },
    {
      "inputs": [],
      "name": "ReentrancyGuardReentrantCall",
      "type": "error"
    },
    {
      "inputs": [
        {
          "internalType": "address",
          "name": "token",
          "type": "address"
        }
      ],
      "name": "SafeERC20FailedOperation",
      "type": "error"
    },
    {
      "anonymous": false,
      "inputs": [
        {
          "indexed": true,
          "internalType": "address",
          "name": "user",
          "type": "address"
        },
        {
          "indexed": false,
          "internalType": "uint256",
          "name": "amount",
          "type": "uint256"
        },
        {
          "indexed": false,
          "internalType": "uint256",
          "name": "shares",
          "type": "uint256"
        }
      ],
      "name": "Deposited",
      "type": "event"
    },
    {
      "anonymous": false,
      "inputs": [
        {
          "components": [
            {
              "internalType": "address",
              "name": "market",
              "type": "address"
            },
            {
              "internalType": "uint256",
              "name": "weight",
              "type": "uint256"
            }
          ],
          "indexed": false,
          "internalType": "struct Vault.MarketAllocation[]",
          "name": "allocations",
          "type": "tuple[]"
        },
        {
          "indexed": false,
          "internalType": "uint256",
          "name": "totalWeight",
          "type": "uint256"
        }
      ],
      "name": "MarketAllocationsUpdated",
      "type": "event"
    },
    {
      "anonymous": false,
      "inputs": [
        {
          "indexed": true,
          "internalType": "address",
          "name": "previousOperator",
          "type": "address"
        },
        {
          "indexed": true,
          "internalType": "address",
          "name": "newOperator",
          "type": "address"
        }
      ],
      "name": "OperatorUpdated",
      "type": "event"
    },
    {
      "anonymous": false,
      "inputs": [
        {
          "indexed": true,
          "internalType": "address",
          "name": "previousOwner",
          "type": "address"
        },
        {
          "indexed": true,
          "internalType": "address",
          "name": "newOwner",
          "type": "address"
        }
      ],
      "name": "OwnershipTransferred",
      "type": "event"
    },
    {
      "anonymous": false,
      "inputs": [
        {
          "indexed": true,
          "internalType": "address",
          "name": "market",
          "type": "address"
        },
        {
          "indexed": false,
          "internalType": "uint256",
          "name": "amount",
          "type": "uint256"
        }
      ],
      "name": "TokensAllocated",
      "type": "event"
    },
    {
      "anonymous": false,
      "inputs": [
        {
          "indexed": true,
          "internalType": "address",
          "name": "user",
          "type": "address"
        },
        {
          "indexed": false,
          "internalType": "uint256",
          "name": "amount",
          "type": "uint256"
        },
        {
          "indexed": false,
          "internalType": "uint256",
          "name": "shares",
          "type": "uint256"
        }
      ],
      "name": "Withdrawn",
      "type": "event"
    },
    {
      "inputs": [],
      "name": "allocateToMarkets",
      "outputs": [],
      "stateMutability": "nonpayable",
      "type": "function"
    },
    {
      "inputs": [
        {
          "internalType": "uint256",
          "name": "_amount",
          "type": "uint256"
        }
      ],
      "name": "calculateShares",
      "outputs": [
        {
          "internalType": "uint256",
          "name": "",
          "type": "uint256"
        }
      ],
      "stateMutability": "view",
      "type": "function"
    },
    {
      "inputs": [
        {
          "internalType": "uint256",
          "name": "_shares",
          "type": "uint256"
        }
      ],
      "name": "calculateTokenAmount",
      "outputs": [
        {
          "internalType": "uint256",
          "name": "",
          "type": "uint256"
        }
      ],
      "stateMutability": "view",
      "type": "function"
    },
    {
      "inputs": [
        {
          "internalType": "uint256",
          "name": "_amount",
          "type": "uint256"
        }
      ],
      "name": "deposit",
      "outputs": [],
      "stateMutability": "nonpayable",
      "type": "function"
    },
    {
      "inputs": [],
      "name": "fToken",
      "outputs": [
        {
          "internalType": "contract VaultToken",
          "name": "",
          "type": "address"
        }
      ],
      "stateMutability": "view",
      "type": "function"
    },
    {
      "inputs": [],
      "name": "getAllMarketAllocations",
      "outputs": [
        {
          "components": [
            {
              "internalType": "address",
              "name": "market",
              "type": "address"
            },
            {
              "internalType": "uint256",
              "name": "weight",
              "type": "uint256"
            }
          ],
          "internalType": "struct Vault.MarketAllocation[]",
          "name": "",
          "type": "tuple[]"
        }
      ],
      "stateMutability": "view",
      "type": "function"
    },
    {
      "inputs": [],
      "name": "getMarketsCount",
      "outputs": [
        {
          "internalType": "uint256",
          "name": "",
          "type": "uint256"
        }
      ],
      "stateMutability": "view",
      "type": "function"
    },
    {
      "inputs": [],
      "name": "getTotalAssets",
      "outputs": [
        {
          "internalType": "uint256",
          "name": "",
          "type": "uint256"
        }
      ],
      "stateMutability": "view",
      "type": "function"
    },
    {
      "inputs": [
        {
          "internalType": "uint256",
          "name": "",
          "type": "uint256"
        }
      ],
      "name": "marketAllocations",
      "outputs": [
        {
          "internalType": "address",
          "name": "market",
          "type": "address"
        },
        {
          "internalType": "uint256",
          "name": "weight",
          "type": "uint256"
        }
      ],
      "stateMutability": "view",
      "type": "function"
    },
    {
      "inputs": [],
      "name": "operator",
      "outputs": [
        {
          "internalType": "address",
          "name": "",
          "type": "address"
        }
      ],
      "stateMutability": "view",
      "type": "function"
    },
    {
      "inputs": [],
      "name": "owner",
      "outputs": [
        {
          "internalType": "address",
          "name": "",
          "type": "address"
        }
      ],
      "stateMutability": "view",
      "type": "function"
    },
    {
      "inputs": [
        {
          "internalType": "address",
          "name": "_tokenAddress",
          "type": "address"
        }
      ],
      "name": "recoverERC20",
      "outputs": [],
      "stateMutability": "nonpayable",
      "type": "function"
    },
    {
      "inputs": [],
      "name": "renounceOwnership",
      "outputs": [],
      "stateMutability": "nonpayable",
      "type": "function"
    },
    {
      "inputs": [
        {
          "components": [
            {
              "internalType": "address",
              "name": "market",
              "type": "address"
            },
            {
              "internalType": "uint256",
              "name": "weight",
              "type": "uint256"
            }
          ],
          "internalType": "struct Vault.MarketAllocation[]",
          "name": "_allocations",
          "type": "tuple[]"
        }
      ],
      "name": "setMarketAllocations",
      "outputs": [],
      "stateMutability": "nonpayable",
      "type": "function"
    },
    {
      "inputs": [
        {
          "internalType": "address",
          "name": "_newOperator",
          "type": "address"
        }
      ],
      "name": "setOperator",
      "outputs": [],
      "stateMutability": "nonpayable",
      "type": "function"
    },
    {
      "inputs": [],
      "name": "token",
      "outputs": [
        {
          "internalType": "contract IERC20",
          "name": "",
          "type": "address"
        }
      ],
      "stateMutability": "view",
      "type": "function"
    },
    {
      "inputs": [],
      "name": "totalDeposits",
      "outputs": [
        {
          "internalType": "uint256",
          "name": "",
          "type": "uint256"
        }
      ],
      "stateMutability": "view",
      "type": "function"
    },
    {
      "inputs": [],
      "name": "totalWeight",
      "outputs": [
        {
          "internalType": "uint256",
          "name": "",
          "type": "uint256"
        }
      ],
      "stateMutability": "view",
      "type": "function"
    },
    {
      "inputs": [
        {
          "internalType": "address",
          "name": "newOwner",
          "type": "address"
        }
      ],
      "name": "transferOwnership",
      "outputs": [],
      "stateMutability": "nonpayable",
      "type": "function"
    },
    {
      "inputs": [
        {
          "internalType": "uint256",
          "name": "_shares",
          "type": "uint256"
        }
      ],
      "name": "withdraw",
      "outputs": [],
      "stateMutability": "nonpayable",
      "type": "function"
    }
  ],
  "bytecode": "0x6040608081523461021057612d818038038061001a81610214565b92833981016080828203126102105761003282610239565b9161003f60208201610239565b8185015190926001600160401b03929091838111610210578261006391830161024d565b9160608201518481116102105761007a920161024d565b9133156101f9575f549060018060a01b03948560018060a01b03199733898616175f55895194823391167f8be0079c531659141344cd1fd0a4f28419497f9722a3daafe3b4186f6b6457e05f80a360018055169283156101b757508516801561017357828760025416176002558660045416176004558651936115dc808601928684109084111761015f57859461013494610127926117a58839845260606020850152606084019061029e565b918881840391015261029e565b03905ff080156101555716906003541617600355516114e290816102c38239f35b83513d5f823e3d90fd5b634e487b7160e01b5f52604160045260245ffd5b875162461bcd60e51b815260206004820152601f60248201527f4f70657261746f722063616e6e6f74206265207a65726f2061646472657373006044820152606490fd5b62461bcd60e51b815260206004820152601c60248201527f546f6b656e2063616e6e6f74206265207a65726f2061646472657373000000006044820152606490fd5b8551631e4fbdf760e01b81525f6004820152602490fd5b5f80fd5b6040519190601f01601f191682016001600160401b0381118382101761015f57604052565b51906001600160a01b038216820361021057565b81601f82011215610210578051906001600160401b03821161015f5761027c601f8301601f1916602001610214565b928284526020838301011161021057815f9260208093018386015e8301015290565b805180835260209291819084018484015e5f828201840152601f01601f191601019056fe6080604090808252600480361015610015575f80fd5b5f3560e01c91826327fa35c314610fe7575081632c5783d414610cce5781632e1a7d4d146109ee5781633ec16194146109d0578163570ca735146109a95781635aa6fc0e146108a75781635d50539f146106e65781636e07302b146106ca578163715018a6146106735781637d882097146106555781638da5cb5b1461062e57816396c82e57146106105781639e8c708e14610495578163a24bcf4614610470578163a8694e5714610448578163aa47dbed146103fc578163b3ab15fb14610340578163b6b55f25146101b4578163f2fde38b14610127575063fc0c546a146100fc575f80fd5b34610123575f3660031901126101235760025490516001600160a01b039091168152602090f35b5f80fd5b90503461012357602036600319011261012357610142611001565b9061014b611427565b6001600160a01b0391821692831561019e5750505f54826bffffffffffffffffffffffff60a01b8216175f55167f8be0079c531659141344cd1fd0a4f28419497f9722a3daafe3b4186f6b6457e05f80a3005b905f6024925191631e4fbdf760e01b8352820152fd5b82346101235760209081600319360112610123578235926101d36113c1565b8315610300576101e2846111a6565b906101ee821515611107565b60025483516323b872dd60e01b86820152336024820152306044820152606480820188905281526001600160a01b0391821660a0820167ffffffffffffffff8111838210176102ed579261024986936044938a968a52611452565b60035416935f875195869485936394bf804d60e01b85528401523360248401525af180156102e3576102b9575b507f73a19dd210f1a7f902193214c0ee91dd35ee5b4d920cba8d519eca65a7b488ca926102a5856005546110fa565b60055582519485528401523392a260018055005b8390813d83116102dc575b6102ce8183611152565b810103126101235784610276565b503d6102c4565b83513d5f823e3d90fd5b604185634e487b7160e01b5f525260245ffd5b8280606493519262461bcd60e51b845283015260248201527f416d6f756e74206d7573742062652067726561746572207468616e207a65726f6044820152fd5b82346101235760203660031901126101235761035a611001565b610362611427565b6001600160a01b039081169182156103ae57508183549182167ffbe5b6cbafb274f445d7fed869dc77a838d8243a22c460de156560e8857cad035f80a36001600160a01b031916179055005b5162461bcd60e51b8152602081850152602360248201527f4e6577206f70657261746f722063616e6e6f74206265207a65726f206164647260448201526265737360e81b6064820152608490fd5b90503461012357602036600319011261012357356006548110156101235761042390611017565b50805460019091015491516001600160a01b0390911681526020810191909152604090f35b8234610123575f3660031901126101235760035490516001600160a01b039091168152602090f35b82346101235760203660031901126101235761048e602092356112e3565b9051908152f35b9050346101235760209081600319360112610123576104b2611001565b906104bb611427565b6002546001600160a01b03928316929190821683146105cd57816003541683146105925784516370a0823160e01b81523082820152938085602481875afa948515610588575f95610559575b50841561052057505061051e93505f5416906113e4565b005b855162461bcd60e51b81529182015260146024820152732737903a37b5b2b739903a37903932b1b7bb32b960611b604482015260649150fd5b9080955081813d8311610581575b6105718183611152565b810103126101235751935f610507565b503d610567565b86513d5f823e3d90fd5b845162461bcd60e51b8152908101849052601560248201527421b0b73737ba103932b1b7bb32b910332a37b5b2b760591b6044820152606490fd5b845162461bcd60e51b8152908101849052601960248201527f43616e6e6f74207265636f76657220706f6f6c20746f6b656e000000000000006044820152606490fd5b8234610123575f366003190112610123576020906007549051908152f35b8234610123575f366003190112610123575f5490516001600160a01b039091168152602090f35b8234610123575f366003190112610123576020906005549051908152f35b34610123575f3660031901126101235761068b611427565b5f80546001600160a01b0319811682556001600160a01b03167f8be0079c531659141344cd1fd0a4f28419497f9722a3daafe3b4186f6b6457e08280a3005b8234610123575f3660031901126101235760209061048e611277565b905034610123575f3660031901126101235780546001600160a01b0392906107119084163314611063565b6006916006541561086557600554156108235760029084600254169083519182916370a0823160e01b8352309083015281602460209485935afa908115610819575f916107ec575b505f5b855481101561051e578061077a610774600193611017565b5061123f565b61079361078a86830151866110af565b60075490611188565b90858a836107a6575b505050500161075c565b7f3b87361b8a201c697d51aaa7a509f6dfb3870db9e5c5501d22d3e9fae858f725926107da85838c541684845116906113e4565b5116928951908152a25f80858a61079c565b90508181813d8311610812575b6108038183611152565b8101031261012357515f610759565b503d6107f9565b84513d5f823e3d90fd5b6020606492519162461bcd60e51b8352820152601760248201527f4e6f206465706f7369747320746f20616c6c6f636174650000000000000000006044820152fd5b6020606492519162461bcd60e51b8352820152601960248201527f4e6f206d61726b657420616c6c6f636174696f6e7320736574000000000000006044820152fd5b905034610123575f366003190112610123576006549067ffffffffffffffff821161099657506020908251926108e2838360051b0185611152565b818452828401918260065f527ff652222313e28459528d920b65115c16c04f3efc82aaedc97be59f3f377c0d3f5f915b83831061096f57505050508051938385948501918186525180925282850193925f905b8382106109425786860387f35b845180516001600160a01b0316875283015186840152879650948501949382019360019190910190610935565b600287600192610983859b999a989b61123f565b8152019201920191909693959496610912565b604190634e487b7160e01b5f525260245ffd5b8234610123575f36600319011261012357905490516001600160a01b039091168152602090f35b82346101235760203660031901126101235761048e602092356111a6565b9050346101235760209182600319360112610123578135610a0d6113c1565b610a18811515611107565b60035482516370a0823160e01b80825233828701526024969095909290916001600160a01b039182169084818a81855afa908115610c17579086915f91610c9d575b5010610c5b57610a69856112e3565b968715610c2157848360025416918a895180948193825230898301525afa908115610c17579088915f91610be6575b5010610ba457835f916064885180948193635d043b2960e11b83528a898401528d33908401523360448401525af180156105885787918591610b77575b5050610ae6913390600254166113e4565b6005549081861115610b2e5750507f92ccf450a286a957af52509bc1c9939d1a6a481783e142e41e2499f0bb66ebc69394505f6005555b82519485528401523392a260018055005b858203918211610b6557507f92ccf450a286a957af52509bc1c9939d1a6a481783e142e41e2499f0bb66ebc6949550600555610b1d565b60118791634e487b7160e01b5f52525ffd5b908092503d8311610b9d575b610b8d8183611152565b810103126101235785835f610ad5565b503d610b83565b855162461bcd60e51b8152808401859052601a818a01527f496e73756666696369656e74207661756c742062616c616e63650000000000006044820152606490fd5b809250868092503d8311610c10575b610bff8183611152565b81010312610123578790515f610a98565b503d610bf5565b87513d5f823e3d90fd5b865162461bcd60e51b81528085018690526015818b0152744e6f20746f6b656e7320746f20776974686472617760581b6044820152606490fd5b855162461bcd60e51b8152808401859052601b818a01527f496e73756666696369656e742066546f6b656e2062616c616e636500000000006044820152606490fd5b809250868092503d8311610cc7575b610cb68183611152565b81010312610123578590515f610a5a565b503d610cac565b905034610123576020918260031936011261012357813567ffffffffffffffff80821161012357366023830112156101235781840135908111610123576024928383019360069381369185871b0101116101235785546001600160a01b039690610d3b9088163314611063565b8315610fa75784545f865580610f39575b5093905f96939296945f925b848410610dde57505050508260075584519481818701828852526060860194925f905b838210610db0577f548e8407dba21b66d73f03b981cecb2ca1d49513133ca9d3c2fb9be941b416e1888089898d8301520390a1005b9091929395863590828216809203610123579081528689013589820152830195830193929160010190610d7b565b9091929585610dfa610df589888c9d999a9d6110d6565b6110e6565b1615610ef75789610e0c88888b6110d6565b013515610eb757610e1e87878a6110d6565b825468010000000000000000811015610ea557610e416001918281018655611017565b929092610e945791600193918d848e610e5c610e86976110e6565b85546001600160a01b031916911617845501359101558b610e7e8a8a8d6110d6565b0135906110fa565b960192919097949397610d58565b865f87634e487b7160e01b8252525ffd5b85604186634e487b7160e01b5f52525ffd5b6064838b868189519362461bcd60e51b85528401528201527f576569676874206d7573742062652067726561746572207468616e207a65726f6044820152fd5b845162461bcd60e51b81528084018b9052601d818601527f4d61726b65742063616e6e6f74206265207a65726f20616464726573730000006044820152606490fd5b60016001600160ff1b0382168203610f9557865f527ff652222313e28459528d920b65115c16c04f3efc82aaedc97be59f3f377c0d3f9160011b8201915b828110610f85575050610d4c565b5f80825582820155600201610f77565b83601184634e487b7160e01b5f52525ffd5b601b6064928985519362461bcd60e51b85528401528201527f416c6c6f636174696f6e732063616e6e6f7420626520656d70747900000000006044820152fd5b34610123575f366003190112610123576020906006548152f35b600435906001600160a01b038216820361012357565b60065481101561104f5760065f5260011b7ff652222313e28459528d920b65115c16c04f3efc82aaedc97be59f3f377c0d3f01905f90565b634e487b7160e01b5f52603260045260245ffd5b1561106a57565b60405162461bcd60e51b815260206004820152601a60248201527f43616c6c6572206973206e6f7420746865206f70657261746f720000000000006044820152606490fd5b818102929181159184041417156110c257565b634e487b7160e01b5f52601160045260245ffd5b919081101561104f5760061b0190565b356001600160a01b03811681036101235790565b919082018092116110c257565b1561110e57565b606460405162461bcd60e51b815260206004820152602060248201527f536861726573206d7573742062652067726561746572207468616e207a65726f6044820152fd5b90601f8019910116810190811067ffffffffffffffff82111761117457604052565b634e487b7160e01b5f52604160045260245ffd5b8115611192570490565b634e487b7160e01b5f52601260045260245ffd5b600554156111fd576111b6611277565b6003546040516318160ddd60e01b815290602090829060049082906001600160a01b03165afa908115611234575f91611200575b506111f8906111fd936110af565b611188565b90565b90506020813d60201161122c575b8161121b60209383611152565b8101031261012357516111fd6111ea565b3d915061120e565b6040513d5f823e3d90fd5b906040516040810181811067ffffffffffffffff8211176111745760405282546001600160a01b031681526001909201546020830152565b6002546040516370a0823160e01b815230600482015290602090829060249082906001600160a01b03165afa908115611234575f916112b4575090565b90506020813d6020116112db575b816112cf60209383611152565b81010312610123575190565b3d91506112c2565b6003546040516318160ddd60e01b8082526001600160a01b0390921692602092918381600481885afa908115611234575f91611394575b501561138c57611333839161132d611277565b906110af565b9160046040518096819382525afa918215611234575f9261135a575b506111fd9250611188565b90915082813d8311611385575b6113718183611152565b81010312610123576111fd9151905f61134f565b503d611367565b505050505f90565b90508381813d83116113ba575b6113ab8183611152565b8101031261012357515f61131a565b503d6113a1565b6002600154146113d2576002600155565b604051633ee5aeb560e01b8152600490fd5b60405163a9059cbb60e01b60208201526001600160a01b0392909216602483015260448083019390935291815261142591611420606483611152565b611452565b565b5f546001600160a01b0316330361143a57565b60405163118cdaa760e01b8152336004820152602490fd5b905f602091828151910182855af115611234575f513d6114a357506001600160a01b0381163b155b6114815750565b604051635274afe760e01b81526001600160a01b039091166004820152602490fd5b6001141561147a56fea26469706673582212200b726c70eb40fc4292bb348e5acad4cb2b533e990b6fca3cf614a79a4e42fb4864736f6c6343000819003360c0806040523461038d576115dc803803809161001c8285610391565b833981019060608183031261038d5780516001600160a01b0392838216820361038d5760208381015190936001600160401b039182811161038d57836100639183016103cf565b92604082015183811161038d5761007a92016103cf565b82518281116102a4576003918254916001958684811c94168015610383575b8985101461036f578190601f94858111610321575b5089908583116001146102c3575f926102b8575b50505f1982861b1c191690861b1783555b80519384116102a45760049687548681811c9116801561029a575b8282101461028757838111610244575b50809285116001146101df57509383949184925f956101d4575b50501b925f19911b1c19161782555b61013081610415565b90156101cc575b60a05260805233156101b5575060058054336001600160a01b03198216811790925560405192167f8be0079c531659141344cd1fd0a4f28419497f9722a3daafe3b4186f6b6457e05f80a361111190816104cb823960805181818161062d01528181610a3001528181610dd60152610f75015260a051816106720152f35b6024905f60405191631e4fbdf760e01b8352820152fd5b506012610137565b015193505f80610118565b92919084601f198116895f52855f20955f905b8983831061022a5750505010610211575b50505050811b018255610127565b01519060f8845f19921b161c191690555f808080610203565b8587015189559097019694850194889350908101906101f2565b885f52815f208480880160051c82019284891061027e575b0160051c019087905b8281106102735750506100fe565b5f8155018790610265565b9250819261025c565b602289634e487b7160e01b5f525260245ffd5b90607f16906100ee565b634e487b7160e01b5f52604160045260245ffd5b015190505f806100c2565b90889350601f19831691875f528b5f20925f5b8d82821061030b57505084116102f4575b505050811b0183556100d3565b01515f1983881b60f8161c191690555f80806102e7565b8385015186558c979095019493840193016102d6565b909150855f52895f208580850160051c8201928c8610610366575b918a91869594930160051c01915b8281106103585750506100ae565b5f81558594508a910161034a565b9250819261033c565b634e487b7160e01b5f52602260045260245ffd5b93607f1693610099565b5f80fd5b601f909101601f19168101906001600160401b038211908210176102a457604052565b6001600160401b0381116102a457601f01601f191660200190565b81601f8201121561038d578051906103e6826103b4565b926103f46040519485610391565b8284526020838301011161038d57815f9260208093018386015e8301015290565b6040805163313ce56760e01b6020820190815260048252909291830191906001600160401b038311848410176102a4575f938493604052519160018060a01b03165afa3d156104c2573d90610469826103b4565b916104776040519384610391565b82523d5f602084013e5b806104b6575b610493575b505f905f90565b60208180518101031261038d576020015160ff811161048c579060ff6001921690565b50602081511015610487565b60609061048156fe604060808152600480361015610013575f80fd5b5f3560e01c806301e1d114146108cf57806306fdde03146107da57806307a2d13a14610614578063095ea7b3146107315780630a28a4771461071257806318160ddd146106f457806323b872dd146106b8578063313ce5671461065c57806338d52e0f14610619578063402d267d146102a65780634cdad506146106145780636e553f65146105d857806370a082311461022e578063715018a61461057d5780638da5cb5b1461055557806394bf804d1461051957806395d89b4114610416578063a9059cbb146103e6578063b3d7f6b9146103c7578063b460af941461033a578063ba087652146102ab578063c63d75b6146102a6578063c6e6f592146101e0578063ce96cb771461026f578063d905777e1461022e578063dd62ed3e146101e5578063ef8b30f7146101e05763f2fde38b1461014f575f80fd5b346101dc5760203660031901126101dc5761016861093b565b90610171610d1c565b6001600160a01b039182169283156101c6575050600554826bffffffffffffffffffffffff60a01b821617600555167f8be0079c531659141344cd1fd0a4f28419497f9722a3daafe3b4186f6b6457e05f80a3005b905f6024925191631e4fbdf760e01b8352820152fd5b5f80fd5b6109c1565b82346101dc57806003193601126101dc5760209061020161093b565b610209610951565b9060018060a01b038091165f5260018452825f2091165f528252805f20549051908152f35b82346101dc5760203660031901126101dc5760209061026861024e61093b565b6001600160a01b03165f9081526020819052604090205490565b9051908152f35b82346101dc5760203660031901126101dc576020906001600160a01b0361029461093b565b165f525f8252610268815f2054610af4565b610967565b5090346101dc576102bb3661098c565b9291936102c6610d1c565b6001600160a01b0384165f908152602081905283902054808611610305575050836102ff916102f6602096610af4565b94859133610e94565b51908152f35b9251632e52afbb60e21b81526001600160a01b0390941690840190815260208101949094525060408301529081906060010390fd5b5090346101dc5761034a3661098c565b929193610355610d1c565b60018060a01b0384165f525f602052610370835f2054610af4565b8086116103925750506102ff9084610389602096610b1f565b94859233610e94565b9251633fa733bb60e21b81526001600160a01b0390941690840190815260208101949094525060408301529081906060010390fd5b5090346101dc5760203660031901126101dc5761026860209235610ac6565b82346101dc57806003193601126101dc5760209061040f61040561093b565b6024359033610c42565b5160018152f35b5090346101dc575f3660031901126101dc578051905f9280549060018260011c916001841693841561050f575b60209485851081146104fc578488529081156104da5750600114610481575b61047d8686610473828b03836109df565b51918291826108eb565b0390f35b5f9081529295507f8a35acfbc15ff81a39ae7d344fd709f28e8600b4aa8c65c6b64bfe7fe36bd19b5b8284106104c7575050508261047d9461047392820101945f610462565b80548685018801529286019281016104aa565b60ff191687860152505050151560051b83010192506104738261047d5f610462565b602283634e487b7160e01b5f525260245ffd5b92607f1692610443565b5090346101dc57806003193601126101dc5760209135906102ff61053b610951565b92610544610d1c565b61054d81610ac6565b809433610d7c565b82346101dc575f3660031901126101dc5760055490516001600160a01b039091168152602090f35b346101dc575f3660031901126101dc57610595610d1c565b600580546001600160a01b031981169091555f906001600160a01b03167f8be0079c531659141344cd1fd0a4f28419497f9722a3daafe3b4186f6b6457e08280a3005b5090346101dc57806003193601126101dc5760209135906102ff6105fa610951565b610602610d1c565b61060b84610b4a565b93849133610d7c565b610915565b82346101dc575f3660031901126101dc57517f00000000000000000000000000000000000000000000000000000000000000006001600160a01b03168152602090f35b5090346101dc575f3660031901126101dc5760ff7f0000000000000000000000000000000000000000000000000000000000000000169060ff82116106a5576020925051908152f35b601183634e487b7160e01b5f525260245ffd5b82346101dc5760603660031901126101dc5760209061040f6106d861093b565b6106e0610951565b604435916106ef833383610b75565b610c42565b82346101dc575f3660031901126101dc576020906002549051908152f35b5090346101dc5760203660031901126101dc5761026860209235610b1f565b5090346101dc57806003193601126101dc5761074b61093b565b6024359033156107c4576001600160a01b03169081156107ae5760209350335f5260018452825f20825f52845280835f205582519081527f8c5be1e5ebec7d5bd14f71427d1e84f3dd0314c0f7b2291e5b200ac8c7c3b925843392a35160018152f35b8251634a1406b160e11b81525f81860152602490fd5b825163e602df0560e01b81525f81860152602490fd5b5090346101dc575f3660031901126101dc578051905f9260035460018160011c916001811680156108c5575b60209485851082146108b257508387529081156108925750600114610838575b5050506104738261047d9403836109df565b60035f9081529295507fc2575a0e9e593c00f959f8c92f12db2869c3395a3b0502d05e2516446f71f85b5b82841061087f575050508261047d946104739282010194610826565b8054868501880152928601928101610863565b60ff1916868501525050151560051b83010192506104738261047d610826565b602290634e487b7160e01b5f525260245ffd5b92607f1692610806565b82346101dc575f3660031901126101dc57602090610268610a15565b602060409281835280519182918282860152018484015e5f828201840152601f01601f1916010190565b346101dc5760203660031901126101dc576020610933600435610af4565b604051908152f35b600435906001600160a01b03821682036101dc57565b602435906001600160a01b03821682036101dc57565b346101dc5760203660031901126101dc5761098061093b565b5060206040515f198152f35b60609060031901126101dc57600435906001600160a01b039060243582811681036101dc579160443590811681036101dc5790565b346101dc5760203660031901126101dc576020610933600435610b4a565b90601f8019910116810190811067ffffffffffffffff821117610a0157604052565b634e487b7160e01b5f52604160045260245ffd5b6040516370a0823160e01b81523060048201526020816024817f00000000000000000000000000000000000000000000000000000000000000006001600160a01b03165afa908115610a9a575f91610a6b575090565b90506020813d602011610a92575b81610a86602093836109df565b810103126101dc575190565b3d9150610a79565b6040513d5f823e3d90fd5b91908201809211610ab257565b634e487b7160e01b5f52601160045260245ffd5b610ace610a15565b60018101809111610ab2576002549060018201809211610ab257610af192610d48565b90565b610afc610a15565b60018101809111610ab2576002549060018201809211610ab257610af192610fe8565b60025460018101809111610ab257610b35610a15565b9060018201809211610ab257610af192610d48565b60025460018101809111610ab257610b60610a15565b9060018201809211610ab257610af192610fe8565b919060018060a01b0380931692835f526001602052604093845f2091831691825f52602052845f2054925f198410610bb0575b505050505050565b848410610c1257508015610bfb578115610be4575f526001602052835f20905f5260205203905f20555f8080808080610ba8565b8451634a1406b160e11b81525f6004820152602490fd5b845163e602df0560e01b81525f6004820152602490fd5b8551637dc7a0d960e11b81526001600160a01b039190911660048201526024810184905260448101859052606490fd5b916001600160a01b03808416928315610d045716928315610cec57825f525f60205260405f205490828210610cba5750817fddf252ad1be2c89b69c2b068fc378daa952ba7f163c4a11628f55a4df523b3ef92602092855f525f84520360405f2055845f5260405f20818154019055604051908152a3565b60405163391434e360e21b81526001600160a01b03919091166004820152602481019190915260448101829052606490fd5b60405163ec442f0560e01b81525f6004820152602490fd5b604051634b637e8f60e11b81525f6004820152602490fd5b6005546001600160a01b03163303610d3057565b60405163118cdaa760e01b8152336004820152602490fd5b91610d54818385610fe8565b918115610d6857610af19309151590610aa5565b634e487b7160e01b5f52601260045260245ffd5b604080516323b872dd60e01b60208201526001600160a01b0392831660248201819052306044830152606480830187905282529491939192919060a081019067ffffffffffffffff821181831017610a0157610dfa9186527f0000000000000000000000000000000000000000000000000000000000000000611081565b16938415610e7d579081610e327fdcbc1c05240f31ff3ad067ef1ee35ce4997762752e3a095284754544f4c709d79493600254610aa5565b600255855f525f602052825f20818154019055855f7fddf252ad1be2c89b69c2b068fc378daa952ba7f163c4a11628f55a4df523b3ef60208651858152a382519182526020820152a3565b825163ec442f0560e01b81525f6004820152602490fd5b6001600160a01b038084169594818316949290919086888703610fd7575b50508615610d0457865f525f602052604092835f205490878210610fa657508690885f525f60205203835f205585600254036002555f877fddf252ad1be2c89b69c2b068fc378daa952ba7f163c4a11628f55a4df523b3ef602086518a8152a382519363a9059cbb60e01b60208601521694856024850152816044850152604484526080840184811067ffffffffffffffff821117610a01577ffbde797d201c681b91056529119e0b02407c7bb96a4a2c75c01fc9667232c8db94610f999185527f0000000000000000000000000000000000000000000000000000000000000000611081565b82519182526020820152a4565b845163391434e360e21b81526001600160a01b03919091166004820152602481019190915260448101879052606490fd5b610fe19185610b75565b5f86610eb2565b91818302915f1981850993838086109503948086039514611073578483111561105b5790829109815f038216809204600280826003021880830282030280830282030280830282030280830282030280830282030280920290030293600183805f03040190848311900302920304170290565b82634e487b715f52156003026011186020526024601cfd5b505080925015610d68570490565b905f602091828151910182855af115610a9a575f513d6110d257506001600160a01b0381163b155b6110b05750565b604051635274afe760e01b81526001600160a01b039091166004820152602490fd5b600114156110a956fea2646970667358221220f1d736b1e63cf21f1c906908598047957f5c18ad27b468d350955a10c422d43564736f6c63430008190033",
  "linkReferences": {},
  "deployedLinkReferences": {}
}